{
  "contractName": "Prizable",
  "abi": [
    {
      "inputs": [
        {
          "internalType": "address",
          "name": "",
          "type": "address"
        }
      ],
      "name": "prizes",
      "outputs": [
        {
          "internalType": "uint256",
          "name": "",
          "type": "uint256"
        }
      ],
      "stateMutability": "view",
      "type": "function"
    },
    {
      "inputs": [],
      "name": "getPrize",
      "outputs": [
        {
          "internalType": "uint256",
          "name": "",
          "type": "uint256"
        }
      ],
      "stateMutability": "view",
      "type": "function"
    },
    {
      "inputs": [
        {
          "internalType": "uint256",
          "name": "withdrawAmount",
          "type": "uint256"
        }
      ],
      "name": "withdrawPrize",
      "outputs": [
        {
          "internalType": "uint256",
          "name": "",
          "type": "uint256"
        }
      ],
      "stateMutability": "nonpayable",
      "type": "function"
    }
  ],
  "bytecode": "0x608060405234801561001057600080fd5b5061038c806100206000396000f3fe608060405234801561001057600080fd5b50600436106100415760003560e01c8063b35d11bf14610046578063c20eec7b14610076578063c34f6b0d146100a6575b600080fd5b610060600480360381019061005b919061020d565b6100c4565b60405161006d919061026e565b60405180910390f35b610090600480360381019061008b9190610236565b6100dc565b60405161009d919061026e565b60405180910390f35b6100ae61019d565b6040516100bb919061026e565b60405180910390f35b60006020528060005260406000206000915090505481565b6000816100e761019d565b10156100f257600080fd5b816000803373ffffffffffffffffffffffffffffffffffffffff1673ffffffffffffffffffffffffffffffffffffffff16815260200190815260200160002060008282546101409190610289565b925050819055503373ffffffffffffffffffffffffffffffffffffffff166108fc839081150290604051600060405180830381858888f1935050505015801561018d573d6000803e3d6000fd5b5061019661019d565b9050919050565b60008060003373ffffffffffffffffffffffffffffffffffffffff1673ffffffffffffffffffffffffffffffffffffffff16815260200190815260200160002054905090565b6000813590506101f281610328565b92915050565b6000813590506102078161033f565b92915050565b60006020828403121561021f57600080fd5b600061022d848285016101e3565b91505092915050565b60006020828403121561024857600080fd5b6000610256848285016101f8565b91505092915050565b610268816102ef565b82525050565b6000602082019050610283600083018461025f565b92915050565b6000610294826102ef565b915061029f836102ef565b9250828210156102b2576102b16102f9565b5b828203905092915050565b60006102c8826102cf565b9050919050565b600073ffffffffffffffffffffffffffffffffffffffff82169050919050565b6000819050919050565b7f4e487b7100000000000000000000000000000000000000000000000000000000600052601160045260246000fd5b610331816102bd565b811461033c57600080fd5b50565b610348816102ef565b811461035357600080fd5b5056fea2646970667358221220e33942949de9a64b7524323e7d255e6aad60dec134efa648d09433b4ee5616b764736f6c63430008000033",
  "immutableReferences": {},
  "source": "// SPDX-License-Identifier: MIT\npragma solidity >=0.8.0 <0.9.0;\n\n\n/// @title Users prize bank\ncontract Prizable {\n    // Prizes\n    mapping (address => uint) public prizes;\n\n    function addPrize(address _address, uint _amount) internal {\n        uint balance = prizes[_address];\n        balance += _amount;\n        prizes[_address] = balance;\n    }\n\n    function getPrize() public view returns (uint) {\n        return prizes[msg.sender];\n    }\n    \n\n    function withdrawPrize(uint withdrawAmount) public returns (uint) {\n      // If the sender's balance is at least the amount they want to withdraw,\n      // Subtract the amount from the sender's balance, and try to send that amount of ether\n      // to the user attempting to withdraw. \n      // return the user's balance.\n\n      // 1. Use a require expression to guard/ensure sender has enough funds\n      require(getPrize() >= withdrawAmount);\n  \n      // 2. Transfer Eth to the sender and decrement the withdrawal amount from\n      //    sender's balance\n      prizes[msg.sender] -= withdrawAmount;\n      payable(msg.sender).transfer(withdrawAmount);\n\n      // 3. Emit the appropriate event for this message\n    //   emit LogWithdrawal(msg.sender, withdrawAmount, getBalance());\n\n      return getPrize();\n    }\n\n}",
  "sourcePath": "/home/ubuntu/todo-list-dapp/blockchain/contracts/Prizable.sol",
  "compiler": {
    "name": "solc",
    "version": "0.8.0+commit.c7dfd78e.Emscripten.clang"
  },
  "schemaVersion": "3.4.3",
  "updatedAt": "2021-09-30T22:26:58.996Z",
  "devdoc": {
    "kind": "dev",
    "methods": {},
    "title": "Users prize bank",
    "version": 1
  },
  "userdoc": {
    "kind": "user",
    "methods": {},
    "version": 1
  }
}