{
  "contractName": "TaskFactory",
  "abi": [
    {
      "anonymous": false,
      "inputs": [
        {
          "indexed": false,
          "internalType": "address",
          "name": "userAddress",
          "type": "address"
        },
        {
          "indexed": false,
          "internalType": "uint256",
          "name": "taskID",
          "type": "uint256"
        }
      ],
      "name": "LogAdd",
      "type": "event"
    },
    {
      "stateMutability": "payable",
      "type": "fallback"
    },
    {
      "inputs": [],
      "name": "getPrize",
      "outputs": [
        {
          "internalType": "uint256",
          "name": "",
          "type": "uint256"
        }
      ],
      "stateMutability": "view",
      "type": "function"
    },
    {
      "inputs": [
        {
          "internalType": "address",
          "name": "",
          "type": "address"
        }
      ],
      "name": "prizes",
      "outputs": [
        {
          "internalType": "uint256",
          "name": "",
          "type": "uint256"
        }
      ],
      "stateMutability": "view",
      "type": "function"
    },
    {
      "inputs": [
        {
          "internalType": "address",
          "name": "",
          "type": "address"
        },
        {
          "internalType": "uint256",
          "name": "",
          "type": "uint256"
        }
      ],
      "name": "tasks",
      "outputs": [
        {
          "internalType": "string",
          "name": "description",
          "type": "string"
        },
        {
          "internalType": "uint256",
          "name": "createdAt",
          "type": "uint256"
        },
        {
          "internalType": "uint256",
          "name": "value",
          "type": "uint256"
        },
        {
          "internalType": "uint256",
          "name": "dueDate",
          "type": "uint256"
        },
        {
          "internalType": "bool",
          "name": "completed",
          "type": "bool"
        },
        {
          "internalType": "bool",
          "name": "cleared",
          "type": "bool"
        }
      ],
      "stateMutability": "view",
      "type": "function"
    },
    {
      "inputs": [
        {
          "internalType": "uint256",
          "name": "withdrawAmount",
          "type": "uint256"
        }
      ],
      "name": "withdrawPrize",
      "outputs": [
        {
          "internalType": "uint256",
          "name": "",
          "type": "uint256"
        }
      ],
      "stateMutability": "nonpayable",
      "type": "function"
    },
    {
      "stateMutability": "payable",
      "type": "receive"
    },
    {
      "inputs": [
        {
          "internalType": "uint256",
          "name": "_id",
          "type": "uint256"
        },
        {
          "internalType": "string",
          "name": "_description",
          "type": "string"
        },
        {
          "internalType": "uint256",
          "name": "_dueDate",
          "type": "uint256"
        }
      ],
      "name": "update",
      "outputs": [],
      "stateMutability": "nonpayable",
      "type": "function"
    },
    {
      "inputs": [
        {
          "internalType": "uint256",
          "name": "_id",
          "type": "uint256"
        }
      ],
      "name": "remove",
      "outputs": [],
      "stateMutability": "nonpayable",
      "type": "function"
    },
    {
      "inputs": [
        {
          "internalType": "uint256",
          "name": "_id",
          "type": "uint256"
        }
      ],
      "name": "setComplete",
      "outputs": [],
      "stateMutability": "nonpayable",
      "type": "function"
    },
    {
      "inputs": [
        {
          "internalType": "uint256",
          "name": "_id",
          "type": "uint256"
        }
      ],
      "name": "setIncomplete",
      "outputs": [],
      "stateMutability": "nonpayable",
      "type": "function"
    },
    {
      "inputs": [
        {
          "internalType": "uint256",
          "name": "_id",
          "type": "uint256"
        }
      ],
      "name": "clear",
      "outputs": [
        {
          "internalType": "bool",
          "name": "",
          "type": "bool"
        }
      ],
      "stateMutability": "nonpayable",
      "type": "function"
    },
    {
      "inputs": [
        {
          "internalType": "uint256",
          "name": "_id",
          "type": "uint256"
        }
      ],
      "name": "setPrize",
      "outputs": [],
      "stateMutability": "payable",
      "type": "function"
    },
    {
      "inputs": [
        {
          "internalType": "uint256",
          "name": "_id",
          "type": "uint256"
        }
      ],
      "name": "isPunishing",
      "outputs": [
        {
          "internalType": "bool",
          "name": "",
          "type": "bool"
        }
      ],
      "stateMutability": "view",
      "type": "function"
    },
    {
      "inputs": [],
      "name": "getTasks",
      "outputs": [
        {
          "components": [
            {
              "internalType": "string",
              "name": "description",
              "type": "string"
            },
            {
              "internalType": "uint256",
              "name": "createdAt",
              "type": "uint256"
            },
            {
              "internalType": "uint256",
              "name": "value",
              "type": "uint256"
            },
            {
              "internalType": "uint256",
              "name": "dueDate",
              "type": "uint256"
            },
            {
              "internalType": "bool",
              "name": "completed",
              "type": "bool"
            },
            {
              "internalType": "bool",
              "name": "cleared",
              "type": "bool"
            }
          ],
          "internalType": "struct TaskFactory.Task[]",
          "name": "",
          "type": "tuple[]"
        }
      ],
      "stateMutability": "view",
      "type": "function"
    },
    {
      "inputs": [
        {
          "internalType": "uint256",
          "name": "_id",
          "type": "uint256"
        }
      ],
      "name": "getTask",
      "outputs": [
        {
          "components": [
            {
              "internalType": "string",
              "name": "description",
              "type": "string"
            },
            {
              "internalType": "uint256",
              "name": "createdAt",
              "type": "uint256"
            },
            {
              "internalType": "uint256",
              "name": "value",
              "type": "uint256"
            },
            {
              "internalType": "uint256",
              "name": "dueDate",
              "type": "uint256"
            },
            {
              "internalType": "bool",
              "name": "completed",
              "type": "bool"
            },
            {
              "internalType": "bool",
              "name": "cleared",
              "type": "bool"
            }
          ],
          "internalType": "struct TaskFactory.Task",
          "name": "",
          "type": "tuple"
        }
      ],
      "stateMutability": "view",
      "type": "function"
    }
  ],
  "bytecode": "0x608060405234801561001057600080fd5b50611c1b806100206000396000f3fe6080604052600436106100c65760003560e01c80639ec06b8e1161007f578063c0fe1af811610059578063c0fe1af814610290578063c20eec7b146102cd578063c34f6b0d1461030a578063e7a9d40614610335576100d0565b80639ec06b8e146101ed578063ad841e071461022a578063b35d11bf14610253576100d0565b806304a87e38146100d55780631d65e77e146101005780634cc822151461013d5780636ca7f3ba146101665780637149d2e41461018257806389e8491f146101c4576100d0565b366100d057600080fd5b600080fd5b3480156100e157600080fd5b506100ea61035e565b6040516100f7919061182a565b60405180910390f35b34801561010c57600080fd5b5061012760048036038101906101229190611551565b6104e0565b60405161013491906118cf565b60405180910390f35b34801561014957600080fd5b50610164600480360381019061015f9190611551565b6106b3565b005b610180600480360381019061017b9190611551565b6109e9565b005b34801561018e57600080fd5b506101a960048036038101906101a49190611515565b610a6d565b6040516101bb96959493929190611867565b60405180910390f35b3480156101d057600080fd5b506101eb60048036038101906101e69190611551565b610b68565b005b3480156101f957600080fd5b50610214600480360381019061020f9190611551565b610c33565b604051610221919061184c565b60405180910390f35b34801561023657600080fd5b50610251600480360381019061024c919061157a565b610c74565b005b34801561025f57600080fd5b5061027a600480360381019061027591906114ec565b610e26565b60405161028791906118f1565b60405180910390f35b34801561029c57600080fd5b506102b760048036038101906102b29190611551565b610e3e565b6040516102c4919061184c565b60405180910390f35b3480156102d957600080fd5b506102f460048036038101906102ef9190611551565b610ebf565b60405161030191906118f1565b60405180910390f35b34801561031657600080fd5b5061031f610f80565b60405161032c91906118f1565b60405180910390f35b34801561034157600080fd5b5061035c60048036038101906103579190611551565b610fc6565b005b6060600160003373ffffffffffffffffffffffffffffffffffffffff1673ffffffffffffffffffffffffffffffffffffffff168152602001908152602001600020805480602002602001604051908101604052809291908181526020016000905b828210156104d757838290600052602060002090600502016040518060c00160405290816000820180546103f290611ae7565b80601f016020809104026020016040519081016040528092919081815260200182805461041e90611ae7565b801561046b5780601f106104405761010080835404028352916020019161046b565b820191906000526020600020905b81548152906001019060200180831161044e57829003601f168201915b505050505081526020016001820154815260200160028201548152602001600382015481526020016004820160009054906101000a900460ff161515151581526020016004820160019054906101000a900460ff161515151581525050815260200190600101906103bf565b50505050905090565b6104e86112b0565b81600160003373ffffffffffffffffffffffffffffffffffffffff1673ffffffffffffffffffffffffffffffffffffffff168152602001908152602001600020805490501161053657600080fd5b600160003373ffffffffffffffffffffffffffffffffffffffff1673ffffffffffffffffffffffffffffffffffffffff16815260200190815260200160002082815481106105ad577f4e487b7100000000000000000000000000000000000000000000000000000000600052603260045260246000fd5b90600052602060002090600502016040518060c00160405290816000820180546105d690611ae7565b80601f016020809104026020016040519081016040528092919081815260200182805461060290611ae7565b801561064f5780601f106106245761010080835404028352916020019161064f565b820191906000526020600020905b81548152906001019060200180831161063257829003601f168201915b505050505081526020016001820154815260200160028201548152602001600382015481526020016004820160009054906101000a900460ff161515151581526020016004820160019054906101000a900460ff1615151515815250509050919050565b806106bd8161101f565b156106c757600080fd5b600160003373ffffffffffffffffffffffffffffffffffffffff1673ffffffffffffffffffffffffffffffffffffffff16815260200190815260200160002080549050821061071557600080fd5b600160003373ffffffffffffffffffffffffffffffffffffffff1673ffffffffffffffffffffffffffffffffffffffff16815260200190815260200160002060018060003373ffffffffffffffffffffffffffffffffffffffff1673ffffffffffffffffffffffffffffffffffffffff168152602001908152602001600020805490506107a29190611a29565b815481106107d9577f4e487b7100000000000000000000000000000000000000000000000000000000600052603260045260246000fd5b9060005260206000209060050201600160003373ffffffffffffffffffffffffffffffffffffffff1673ffffffffffffffffffffffffffffffffffffffff168152602001908152602001600020838154811061085e577f4e487b7100000000000000000000000000000000000000000000000000000000600052603260045260246000fd5b9060005260206000209060050201600082018160000190805461088090611ae7565b61088b9291906112ea565b506001820154816001015560028201548160020155600382015481600301556004820160009054906101000a900460ff168160040160006101000a81548160ff0219169083151502179055506004820160019054906101000a900460ff168160040160016101000a81548160ff021916908315150217905550905050600160003373ffffffffffffffffffffffffffffffffffffffff1673ffffffffffffffffffffffffffffffffffffffff16815260200190815260200160002080548061097c577f4e487b7100000000000000000000000000000000000000000000000000000000600052603160045260246000fd5b6001900381819060005260206000209060050201600080820160006109a19190611377565b6001820160009055600282016000905560038201600090556004820160006101000a81549060ff02191690556004820160016101000a81549060ff0219169055505090555050565b8060006109f5826104e0565b606001511415610a0457600080fd5b6000610a0f836104e0565b90506000816040015114610a2257600080fd5b610a2b83611053565b15610a3557600080fd5b8060a00151610a4357600080fd5b3481604001818152505060008160a0019015159081151581525050610a688382611088565b505050565b60016020528160005260406000208181548110610a8957600080fd5b906000526020600020906005020160009150915050806000018054610aad90611ae7565b80601f0160208091040260200160405190810160405280929190818152602001828054610ad990611ae7565b8015610b265780601f10610afb57610100808354040283529160200191610b26565b820191906000526020600020905b815481529060010190602001808311610b0957829003601f168201915b5050505050908060010154908060020154908060030154908060040160009054906101000a900460ff16908060040160019054906101000a900460ff16905086565b80610b72816104e0565b6080015115610b8057600080fd5b6000610b8b836104e0565b9050610b968361101f565b1580610ba85750610ba683611053565b155b15610bc9576001816080019015159081151581525050610bc88382611088565b5b610bd28361101f565b8015610be057508060a00151155b15610c2e57610bee83610c33565b610c2d5760018160a00190151590811515815250506001816080019015159081151581525050610c1e8382611088565b610c2c338260400151611190565b5b5b505050565b6000610c3e8261101f565b610c4b5760009050610c6f565b610c5482611053565b15610c625760009050610c6f565b610c6b82611229565b1590505b919050565b82610c7e8161101f565b15610c8857600080fd5b6000600160003373ffffffffffffffffffffffffffffffffffffffff1673ffffffffffffffffffffffffffffffffffffffff1681526020019081526020016000208581548110610d01577f4e487b7100000000000000000000000000000000000000000000000000000000600052603260045260246000fd5b90600052602060002090600502016040518060c0016040529081600082018054610d2a90611ae7565b80601f0160208091040260200160405190810160405280929190818152602001828054610d5690611ae7565b8015610da35780601f10610d7857610100808354040283529160200191610da3565b820191906000526020600020905b815481529060010190602001808311610d8657829003601f168201915b505050505081526020016001820154815260200160028201548152602001600382015481526020016004820160009054906101000a900460ff161515151581526020016004820160019054906101000a900460ff161515151581525050905083816000018190525082816060018181525050610e1f8582611088565b5050505050565b60006020528060005260406000206000915090505481565b600080610e4a836104e0565b9050610e558361101f565b80610e655750610e6483610c33565b5b15610e74576000915050610eba565b610e7d83611229565b15610eb45760018160a0019015159081151581525050610ea08160400151611266565b610eaa8382611088565b6001915050610eba565b60009150505b919050565b600081610eca610f80565b1015610ed557600080fd5b816000803373ffffffffffffffffffffffffffffffffffffffff1673ffffffffffffffffffffffffffffffffffffffff1681526020019081526020016000206000828254610f239190611a29565b925050819055503373ffffffffffffffffffffffffffffffffffffffff166108fc839081150290604051600060405180830381858888f19350505050158015610f70573d6000803e3d6000fd5b50610f79610f80565b9050919050565b60008060003373ffffffffffffffffffffffffffffffffffffffff1673ffffffffffffffffffffffffffffffffffffffff16815260200190815260200160002054905090565b80610fd0816104e0565b60800151610fdd57600080fd5b81610fe78161101f565b15610ff157600080fd5b6000610ffc846104e0565b905060008160800190151590811515815250506110198482611088565b50505050565b60008061102b836104e0565b905060008160400151141561104457600091505061104e565b8060a00151159150505b919050565b60008061105f836104e0565b9050600081606001511415611078576000915050611083565b428160600151109150505b919050565b80600160003373ffffffffffffffffffffffffffffffffffffffff1673ffffffffffffffffffffffffffffffffffffffff1681526020019081526020016000208381548110611100577f4e487b7100000000000000000000000000000000000000000000000000000000600052603260045260246000fd5b9060005260206000209060050201600082015181600001908051906020019061112a9291906113b7565b5060208201518160010155604082015181600201556060820151816003015560808201518160040160006101000a81548160ff02191690831515021790555060a08201518160040160016101000a81548160ff0219169083151502179055509050505050565b60008060008473ffffffffffffffffffffffffffffffffffffffff1673ffffffffffffffffffffffffffffffffffffffff16815260200190815260200160002054905081816111df91906119d3565b9050806000808573ffffffffffffffffffffffffffffffffffffffff1673ffffffffffffffffffffffffffffffffffffffff16815260200190815260200160002081905550505050565b600080611235836104e0565b905062278d00816060015161124a91906119d3565b42111561125b576001915050611261565b60009150505b919050565b3373ffffffffffffffffffffffffffffffffffffffff166108fc829081150290604051600060405180830381858888f193505050501580156112ac573d6000803e3d6000fd5b5050565b6040518060c00160405280606081526020016000815260200160008152602001600081526020016000151581526020016000151581525090565b8280546112f690611ae7565b90600052602060002090601f0160209004810192826113185760008555611366565b82601f106113295780548555611366565b8280016001018555821561136657600052602060002091601f016020900482015b8281111561136557825482559160010191906001019061134a565b5b509050611373919061143d565b5090565b50805461138390611ae7565b6000825580601f1061139557506113b4565b601f0160209004906000526020600020908101906113b3919061143d565b5b50565b8280546113c390611ae7565b90600052602060002090601f0160209004810192826113e5576000855561142c565b82601f106113fe57805160ff191683800117855561142c565b8280016001018555821561142c579182015b8281111561142b578251825591602001919060010190611410565b5b509050611439919061143d565b5090565b5b8082111561145657600081600090555060010161143e565b5090565b600061146d6114688461193d565b61190c565b90508281526020810184848401111561148557600080fd5b611490848285611aa5565b509392505050565b6000813590506114a781611bb7565b92915050565b600082601f8301126114be57600080fd5b81356114ce84826020860161145a565b91505092915050565b6000813590506114e681611bce565b92915050565b6000602082840312156114fe57600080fd5b600061150c84828501611498565b91505092915050565b6000806040838503121561152857600080fd5b600061153685828601611498565b9250506020611547858286016114d7565b9150509250929050565b60006020828403121561156357600080fd5b6000611571848285016114d7565b91505092915050565b60008060006060848603121561158f57600080fd5b600061159d868287016114d7565b935050602084013567ffffffffffffffff8111156115ba57600080fd5b6115c6868287016114ad565b92505060406115d7868287016114d7565b9150509250925092565b60006115ed83836116fa565b905092915050565b60006116008261197d565b61160a81856119a0565b93508360208202850161161c8561196d565b8060005b85811015611658578484038952815161163985826115e1565b945061164483611993565b925060208a01995050600181019050611620565b50829750879550505050505092915050565b61167381611a6f565b82525050565b61168281611a6f565b82525050565b600061169382611988565b61169d81856119b1565b93506116ad818560208601611ab4565b6116b681611ba6565b840191505092915050565b60006116cc82611988565b6116d681856119c2565b93506116e6818560208601611ab4565b6116ef81611ba6565b840191505092915050565b600060c08301600083015184820360008601526117178282611688565b915050602083015161172c602086018261180c565b50604083015161173f604086018261180c565b506060830151611752606086018261180c565b506080830151611765608086018261166a565b5060a083015161177860a086018261166a565b508091505092915050565b600060c08301600083015184820360008601526117a08282611688565b91505060208301516117b5602086018261180c565b5060408301516117c8604086018261180c565b5060608301516117db606086018261180c565b5060808301516117ee608086018261166a565b5060a083015161180160a086018261166a565b508091505092915050565b61181581611a9b565b82525050565b61182481611a9b565b82525050565b6000602082019050818103600083015261184481846115f5565b905092915050565b60006020820190506118616000830184611679565b92915050565b600060c082019050818103600083015261188181896116c1565b9050611890602083018861181b565b61189d604083018761181b565b6118aa606083018661181b565b6118b76080830185611679565b6118c460a0830184611679565b979650505050505050565b600060208201905081810360008301526118e98184611783565b905092915050565b6000602082019050611906600083018461181b565b92915050565b6000604051905081810181811067ffffffffffffffff8211171561193357611932611b77565b5b8060405250919050565b600067ffffffffffffffff82111561195857611957611b77565b5b601f19601f8301169050602081019050919050565b6000819050602082019050919050565b600081519050919050565b600081519050919050565b6000602082019050919050565b600082825260208201905092915050565b600082825260208201905092915050565b600082825260208201905092915050565b60006119de82611a9b565b91506119e983611a9b565b9250827fffffffffffffffffffffffffffffffffffffffffffffffffffffffffffffffff03821115611a1e57611a1d611b19565b5b828201905092915050565b6000611a3482611a9b565b9150611a3f83611a9b565b925082821015611a5257611a51611b19565b5b828203905092915050565b6000611a6882611a7b565b9050919050565b60008115159050919050565b600073ffffffffffffffffffffffffffffffffffffffff82169050919050565b6000819050919050565b82818337600083830152505050565b60005b83811015611ad2578082015181840152602081019050611ab7565b83811115611ae1576000848401525b50505050565b60006002820490506001821680611aff57607f821691505b60208210811415611b1357611b12611b48565b5b50919050565b7f4e487b7100000000000000000000000000000000000000000000000000000000600052601160045260246000fd5b7f4e487b7100000000000000000000000000000000000000000000000000000000600052602260045260246000fd5b7f4e487b7100000000000000000000000000000000000000000000000000000000600052604160045260246000fd5b6000601f19601f8301169050919050565b611bc081611a5d565b8114611bcb57600080fd5b50565b611bd781611a9b565b8114611be257600080fd5b5056fea2646970667358221220773dc1caa9d04d02ac0e92404ded2b1a26af9f030d052898c8e7553ff4b54cfb64736f6c63430008000033",
  "immutableReferences": {},
  "source": "// SPDX-License-Identifier: MIT\npragma solidity >=0.8.0 <0.9.0;\n\nimport \"./Financable.sol\";\n\ncontract TaskFactory is Financable {\n  /*\n   * Constant variables\n   */\n  \n  // Punishment period in seconds\n  uint constant PUNISHMENT_TIME = 30 days;\n\n\n  /*\n   * State variables\n   */\n\n  struct Task {\n    string description;\n    uint createdAt;\n    uint value;\n    uint dueDate;\n    bool completed;\n    bool cleared;\n  }\n\n  // Tasks\n  mapping (address => Task[]) public tasks;\n\n\n  /* \n   * Events\n   */\n\n  // Task added event\n  event LogAdd (address userAddress, uint taskID); // TODO\n\n\n  /* \n   * Modifiers\n   */\n\n  modifier validDueDate (uint _date) {\n    require(_date > block.timestamp);\n    _;\n  }\n\n  // If task has not any prize locked in it\n  modifier notPrized (uint _id) {\n    require(!hasPrize(_id));\n    _;\n  }\n\n  modifier completed (uint _id) {\n    require(getTask(_id).completed);\n    _;\n  }\n\n  modifier incomplete (uint _id) {\n    require(!getTask(_id).completed);\n    _;\n  }\n\n  modifier dueIsSet (uint _id) {\n    require(getTask(_id).dueDate != 0);\n    _;\n  }\n\n  /* \n   * Functions\n   */\n\n  // Add task\n  function _add(string memory _description, uint _dueDate) internal {\n    Task memory task = Task({\n      description: _description,\n      createdAt: block.timestamp,\n      value: 0,\n      dueDate: _dueDate,\n      completed: false,\n      cleared: true\n    });\n    tasks[msg.sender].push(task);\n  }\n\n\n  // Update task\n  function update(uint _id, string memory _description, uint _dueDate)\n  public notPrized(_id) {\n    Task memory task = tasks[msg.sender][_id];\n    task.description = _description;\n    task.dueDate = _dueDate;\n    replace(_id, task);\n  }\n\n  // Remove task\n  function remove(uint _id) public notPrized(_id) {\n    require(_id < tasks[msg.sender].length);\n\n    tasks[msg.sender][_id] = tasks[msg.sender][tasks[msg.sender].length - 1];\n    tasks[msg.sender].pop();\n  }\n  \n\n  // Set complete\n  function setComplete(uint _id) public incomplete(_id) {\n    Task memory task = getTask(_id);\n    if (!hasPrize(_id) || !isExpired(_id)) {\n      task.completed = true;\n      replace(_id, task);\n    }\n    if (hasPrize(_id) && !task.cleared) {\n      if (!isPunishing(_id)) {\n        task.cleared = true;\n        task.completed = true;\n        replace(_id, task);\n        addPrize(msg.sender, task.value);\n      }\n    }\n  }\n\n  // Set incomplete\n  function setIncomplete(uint _id) public completed(_id) notPrized(_id) {\n    Task memory task = getTask(_id);\n    task.completed = false;\n    replace(_id, task);\n  }\n\n  // Has prize locked in it\n  function hasPrize(uint _id) internal view returns (bool) {\n    Task memory task = getTask(_id);\n    if (task.value == 0)\n      return false;\n    return !task.cleared;\n  }\n\n  // Clear a task\n  function clear(uint _id) public returns (bool) {\n    Task memory task = getTask(_id);\n    if(hasPrize(_id) || isPunishing(_id)) {\n      return false;\n    }\n    if(isPunishmentOver(_id)) {\n      task.cleared = true;\n      payUser(task.value);\n      replace(_id, task);\n      return true;\n    }\n    return false;\n  }\n\n  // Set prize\n  function setPrize(uint _id) public payable dueIsSet(_id) {\n    Task memory task = getTask(_id);\n    require(task.value == 0);\n    require(!isExpired(_id));\n    require(task.cleared);\n\n    task.value = msg.value;\n    task.cleared = false;\n\n    replace(_id, task);\n  }\n\n  // Is in punishment period\n  function isPunishing(uint _id) public view returns (bool) {\n    if (!hasPrize(_id)) {\n      return false;\n    }\n    if (!!isExpired(_id)) {\n      return false;\n    }\n    return !isPunishmentOver(_id);\n  }\n\n  // Is punishment period over\n  function isPunishmentOver(uint _id) private view returns (bool){\n    Task memory task = getTask(_id);\n    if (block.timestamp > task.dueDate + PUNISHMENT_TIME) {\n      return true;\n    }\n    return false;\n  }\n\n  // Is task overdue\n  function isExpired(uint _id) internal view returns (bool) {\n    Task memory task = getTask(_id);\n    if (task.dueDate == 0) {\n      return false;\n    }\n    return (task.dueDate < block.timestamp);\n  }\n\n  // Get current user tasks\n  function getTasks() public view returns(Task[] memory) {\n    return tasks[msg.sender];\n  }\n\n  // Get task\n  function getTask(uint _id) public view returns(Task memory) {\n    require(tasks[msg.sender].length>_id);\n    return tasks[msg.sender][_id];\n  }\n\n\n  // Replace task\n  function replace(uint _id, Task memory _task) internal {\n    tasks[msg.sender][_id] = _task;\n  }\n\n}",
  "sourcePath": "/home/ubuntu/todo-list-dapp/blockchain/contracts/TaskFactory.sol",
  "compiler": {
    "name": "solc",
    "version": "0.8.0+commit.c7dfd78e.Emscripten.clang"
  },
  "schemaVersion": "3.4.3",
  "updatedAt": "2021-09-17T23:31:59.811Z",
  "devdoc": {
    "kind": "dev",
    "methods": {},
    "version": 1
  },
  "userdoc": {
    "kind": "user",
    "methods": {},
    "version": 1
  }
}