{
  "contractName": "TaskFactory",
  "abi": [
    {
      "anonymous": false,
      "inputs": [
        {
          "indexed": false,
          "internalType": "address",
          "name": "userAddress",
          "type": "address"
        },
        {
          "indexed": false,
          "internalType": "uint256",
          "name": "taskID",
          "type": "uint256"
        }
      ],
      "name": "LogAdd",
      "type": "event"
    },
    {
      "anonymous": false,
      "inputs": [
        {
          "indexed": false,
          "internalType": "address",
          "name": "account",
          "type": "address"
        }
      ],
      "name": "Paused",
      "type": "event"
    },
    {
      "anonymous": false,
      "inputs": [
        {
          "indexed": false,
          "internalType": "address",
          "name": "account",
          "type": "address"
        }
      ],
      "name": "Unpaused",
      "type": "event"
    },
    {
      "stateMutability": "payable",
      "type": "fallback"
    },
    {
      "inputs": [],
      "name": "getPrize",
      "outputs": [
        {
          "internalType": "uint256",
          "name": "",
          "type": "uint256"
        }
      ],
      "stateMutability": "view",
      "type": "function"
    },
    {
      "inputs": [],
      "name": "paused",
      "outputs": [
        {
          "internalType": "bool",
          "name": "",
          "type": "bool"
        }
      ],
      "stateMutability": "view",
      "type": "function"
    },
    {
      "inputs": [
        {
          "internalType": "address",
          "name": "",
          "type": "address"
        }
      ],
      "name": "prizes",
      "outputs": [
        {
          "internalType": "uint256",
          "name": "",
          "type": "uint256"
        }
      ],
      "stateMutability": "view",
      "type": "function"
    },
    {
      "inputs": [
        {
          "internalType": "address",
          "name": "",
          "type": "address"
        },
        {
          "internalType": "uint256",
          "name": "",
          "type": "uint256"
        }
      ],
      "name": "tasks",
      "outputs": [
        {
          "internalType": "string",
          "name": "description",
          "type": "string"
        },
        {
          "internalType": "uint256",
          "name": "createdAt",
          "type": "uint256"
        },
        {
          "internalType": "uint256",
          "name": "value",
          "type": "uint256"
        },
        {
          "internalType": "uint256",
          "name": "dueDate",
          "type": "uint256"
        },
        {
          "internalType": "bool",
          "name": "completed",
          "type": "bool"
        },
        {
          "internalType": "bool",
          "name": "cleared",
          "type": "bool"
        }
      ],
      "stateMutability": "view",
      "type": "function"
    },
    {
      "inputs": [
        {
          "internalType": "uint256",
          "name": "withdrawAmount",
          "type": "uint256"
        }
      ],
      "name": "withdrawPrize",
      "outputs": [
        {
          "internalType": "uint256",
          "name": "",
          "type": "uint256"
        }
      ],
      "stateMutability": "nonpayable",
      "type": "function"
    },
    {
      "stateMutability": "payable",
      "type": "receive"
    },
    {
      "inputs": [
        {
          "internalType": "uint256",
          "name": "_id",
          "type": "uint256"
        },
        {
          "internalType": "string",
          "name": "_description",
          "type": "string"
        },
        {
          "internalType": "uint256",
          "name": "_dueDate",
          "type": "uint256"
        }
      ],
      "name": "update",
      "outputs": [],
      "stateMutability": "nonpayable",
      "type": "function"
    },
    {
      "inputs": [
        {
          "internalType": "uint256",
          "name": "_id",
          "type": "uint256"
        }
      ],
      "name": "remove",
      "outputs": [],
      "stateMutability": "nonpayable",
      "type": "function"
    },
    {
      "inputs": [
        {
          "internalType": "uint256",
          "name": "_id",
          "type": "uint256"
        }
      ],
      "name": "setComplete",
      "outputs": [],
      "stateMutability": "nonpayable",
      "type": "function"
    },
    {
      "inputs": [
        {
          "internalType": "uint256",
          "name": "_id",
          "type": "uint256"
        }
      ],
      "name": "setIncomplete",
      "outputs": [],
      "stateMutability": "nonpayable",
      "type": "function"
    },
    {
      "inputs": [
        {
          "internalType": "uint256",
          "name": "_id",
          "type": "uint256"
        }
      ],
      "name": "clear",
      "outputs": [
        {
          "internalType": "bool",
          "name": "",
          "type": "bool"
        }
      ],
      "stateMutability": "nonpayable",
      "type": "function"
    },
    {
      "inputs": [
        {
          "internalType": "uint256",
          "name": "_id",
          "type": "uint256"
        }
      ],
      "name": "setPrize",
      "outputs": [],
      "stateMutability": "payable",
      "type": "function"
    },
    {
      "inputs": [
        {
          "internalType": "uint256",
          "name": "_id",
          "type": "uint256"
        }
      ],
      "name": "isPunishing",
      "outputs": [
        {
          "internalType": "bool",
          "name": "",
          "type": "bool"
        }
      ],
      "stateMutability": "view",
      "type": "function"
    },
    {
      "inputs": [],
      "name": "getTasks",
      "outputs": [
        {
          "components": [
            {
              "internalType": "string",
              "name": "description",
              "type": "string"
            },
            {
              "internalType": "uint256",
              "name": "createdAt",
              "type": "uint256"
            },
            {
              "internalType": "uint256",
              "name": "value",
              "type": "uint256"
            },
            {
              "internalType": "uint256",
              "name": "dueDate",
              "type": "uint256"
            },
            {
              "internalType": "bool",
              "name": "completed",
              "type": "bool"
            },
            {
              "internalType": "bool",
              "name": "cleared",
              "type": "bool"
            }
          ],
          "internalType": "struct TaskFactory.Task[]",
          "name": "",
          "type": "tuple[]"
        }
      ],
      "stateMutability": "view",
      "type": "function"
    },
    {
      "inputs": [
        {
          "internalType": "uint256",
          "name": "_id",
          "type": "uint256"
        }
      ],
      "name": "getTask",
      "outputs": [
        {
          "components": [
            {
              "internalType": "string",
              "name": "description",
              "type": "string"
            },
            {
              "internalType": "uint256",
              "name": "createdAt",
              "type": "uint256"
            },
            {
              "internalType": "uint256",
              "name": "value",
              "type": "uint256"
            },
            {
              "internalType": "uint256",
              "name": "dueDate",
              "type": "uint256"
            },
            {
              "internalType": "bool",
              "name": "completed",
              "type": "bool"
            },
            {
              "internalType": "bool",
              "name": "cleared",
              "type": "bool"
            }
          ],
          "internalType": "struct TaskFactory.Task",
          "name": "",
          "type": "tuple"
        }
      ],
      "stateMutability": "view",
      "type": "function"
    }
  ],
  "bytecode": "0x608060405234801561001057600080fd5b506000600160006101000a81548160ff021916908315150217905550611d218061003b6000396000f3fe6080604052600436106100e15760003560e01c80639ec06b8e1161007f578063c0fe1af811610059578063c0fe1af8146102d6578063c20eec7b14610313578063c34f6b0d14610350578063e7a9d4061461037b576100eb565b80639ec06b8e14610233578063ad841e0714610270578063b35d11bf14610299576100eb565b80635c975abb116100bb5780635c975abb146101815780636ca7f3ba146101ac5780637149d2e4146101c857806389e8491f1461020a576100eb565b806304a87e38146100f05780631d65e77e1461011b5780634cc8221514610158576100eb565b366100eb57600080fd5b600080fd5b3480156100fc57600080fd5b506101056103a4565b6040516101129190611910565b60405180910390f35b34801561012757600080fd5b50610142600480360381019061013d91906115f7565b610526565b60405161014f91906119d5565b60405180910390f35b34801561016457600080fd5b5061017f600480360381019061017a91906115f7565b6106f9565b005b34801561018d57600080fd5b50610196610a30565b6040516101a39190611932565b60405180910390f35b6101c660048036038101906101c191906115f7565b610a47565b005b3480156101d457600080fd5b506101ef60048036038101906101ea91906115bb565b610b13565b6040516102019695949392919061194d565b60405180910390f35b34801561021657600080fd5b50610231600480360381019061022c91906115f7565b610c0e565b005b34801561023f57600080fd5b5061025a600480360381019061025591906115f7565b610cd9565b6040516102679190611932565b60405180910390f35b34801561027c57600080fd5b5061029760048036038101906102929190611620565b610d1a565b005b3480156102a557600080fd5b506102c060048036038101906102bb9190611592565b610ecc565b6040516102cd91906119f7565b60405180910390f35b3480156102e257600080fd5b506102fd60048036038101906102f891906115f7565b610ee4565b60405161030a9190611932565b60405180910390f35b34801561031f57600080fd5b5061033a600480360381019061033591906115f7565b610f65565b60405161034791906119f7565b60405180910390f35b34801561035c57600080fd5b50610365611026565b60405161037291906119f7565b60405180910390f35b34801561038757600080fd5b506103a2600480360381019061039d91906115f7565b61106c565b005b6060600260003373ffffffffffffffffffffffffffffffffffffffff1673ffffffffffffffffffffffffffffffffffffffff168152602001908152602001600020805480602002602001604051908101604052809291908181526020016000905b8282101561051d57838290600052602060002090600502016040518060c001604052908160008201805461043890611bed565b80601f016020809104026020016040519081016040528092919081815260200182805461046490611bed565b80156104b15780601f10610486576101008083540402835291602001916104b1565b820191906000526020600020905b81548152906001019060200180831161049457829003601f168201915b505050505081526020016001820154815260200160028201548152602001600382015481526020016004820160009054906101000a900460ff161515151581526020016004820160019054906101000a900460ff16151515158152505081526020019060010190610405565b50505050905090565b61052e611356565b81600260003373ffffffffffffffffffffffffffffffffffffffff1673ffffffffffffffffffffffffffffffffffffffff168152602001908152602001600020805490501161057c57600080fd5b600260003373ffffffffffffffffffffffffffffffffffffffff1673ffffffffffffffffffffffffffffffffffffffff16815260200190815260200160002082815481106105f3577f4e487b7100000000000000000000000000000000000000000000000000000000600052603260045260246000fd5b90600052602060002090600502016040518060c001604052908160008201805461061c90611bed565b80601f016020809104026020016040519081016040528092919081815260200182805461064890611bed565b80156106955780601f1061066a57610100808354040283529160200191610695565b820191906000526020600020905b81548152906001019060200180831161067857829003601f168201915b505050505081526020016001820154815260200160028201548152602001600382015481526020016004820160009054906101000a900460ff161515151581526020016004820160019054906101000a900460ff1615151515815250509050919050565b80610703816110c5565b1561070d57600080fd5b600260003373ffffffffffffffffffffffffffffffffffffffff1673ffffffffffffffffffffffffffffffffffffffff16815260200190815260200160002080549050821061075b57600080fd5b600260003373ffffffffffffffffffffffffffffffffffffffff1673ffffffffffffffffffffffffffffffffffffffff1681526020019081526020016000206001600260003373ffffffffffffffffffffffffffffffffffffffff1673ffffffffffffffffffffffffffffffffffffffff168152602001908152602001600020805490506107e99190611b2f565b81548110610820577f4e487b7100000000000000000000000000000000000000000000000000000000600052603260045260246000fd5b9060005260206000209060050201600260003373ffffffffffffffffffffffffffffffffffffffff1673ffffffffffffffffffffffffffffffffffffffff16815260200190815260200160002083815481106108a5577f4e487b7100000000000000000000000000000000000000000000000000000000600052603260045260246000fd5b906000526020600020906005020160008201816000019080546108c790611bed565b6108d2929190611390565b506001820154816001015560028201548160020155600382015481600301556004820160009054906101000a900460ff168160040160006101000a81548160ff0219169083151502179055506004820160019054906101000a900460ff168160040160016101000a81548160ff021916908315150217905550905050600260003373ffffffffffffffffffffffffffffffffffffffff1673ffffffffffffffffffffffffffffffffffffffff1681526020019081526020016000208054806109c3577f4e487b7100000000000000000000000000000000000000000000000000000000600052603160045260246000fd5b6001900381819060005260206000209060050201600080820160006109e8919061141d565b6001820160009055600282016000905560038201600090556004820160006101000a81549060ff02191690556004820160016101000a81549060ff0219169055505090555050565b6000600160009054906101000a900460ff16905090565b806000610a5382610526565b606001511415610a6257600080fd5b610a6a610a30565b15610aaa576040517f08c379a0000000000000000000000000000000000000000000000000000000008152600401610aa1906119b5565b60405180910390fd5b6000610ab583610526565b90506000816040015114610ac857600080fd5b610ad1836110f9565b15610adb57600080fd5b8060a00151610ae957600080fd5b3481604001818152505060008160a0019015159081151581525050610b0e838261112e565b505050565b60026020528160005260406000208181548110610b2f57600080fd5b906000526020600020906005020160009150915050806000018054610b5390611bed565b80601f0160208091040260200160405190810160405280929190818152602001828054610b7f90611bed565b8015610bcc5780601f10610ba157610100808354040283529160200191610bcc565b820191906000526020600020905b815481529060010190602001808311610baf57829003601f168201915b5050505050908060010154908060020154908060030154908060040160009054906101000a900460ff16908060040160019054906101000a900460ff16905086565b80610c1881610526565b6080015115610c2657600080fd5b6000610c3183610526565b9050610c3c836110c5565b1580610c4e5750610c4c836110f9565b155b15610c6f576001816080019015159081151581525050610c6e838261112e565b5b610c78836110c5565b8015610c8657508060a00151155b15610cd457610c9483610cd9565b610cd35760018160a00190151590811515815250506001816080019015159081151581525050610cc4838261112e565b610cd2338260400151611236565b5b5b505050565b6000610ce4826110c5565b610cf15760009050610d15565b610cfa826110f9565b15610d085760009050610d15565b610d11826112cf565b1590505b919050565b82610d24816110c5565b15610d2e57600080fd5b6000600260003373ffffffffffffffffffffffffffffffffffffffff1673ffffffffffffffffffffffffffffffffffffffff1681526020019081526020016000208581548110610da7577f4e487b7100000000000000000000000000000000000000000000000000000000600052603260045260246000fd5b90600052602060002090600502016040518060c0016040529081600082018054610dd090611bed565b80601f0160208091040260200160405190810160405280929190818152602001828054610dfc90611bed565b8015610e495780601f10610e1e57610100808354040283529160200191610e49565b820191906000526020600020905b815481529060010190602001808311610e2c57829003601f168201915b505050505081526020016001820154815260200160028201548152602001600382015481526020016004820160009054906101000a900460ff161515151581526020016004820160019054906101000a900460ff161515151581525050905083816000018190525082816060018181525050610ec5858261112e565b5050505050565b60006020528060005260406000206000915090505481565b600080610ef083610526565b9050610efb836110c5565b80610f0b5750610f0a83610cd9565b5b15610f1a576000915050610f60565b610f23836112cf565b15610f5a5760018160a0019015159081151581525050610f46816040015161130c565b610f50838261112e565b6001915050610f60565b60009150505b919050565b600081610f70611026565b1015610f7b57600080fd5b816000803373ffffffffffffffffffffffffffffffffffffffff1673ffffffffffffffffffffffffffffffffffffffff1681526020019081526020016000206000828254610fc99190611b2f565b925050819055503373ffffffffffffffffffffffffffffffffffffffff166108fc839081150290604051600060405180830381858888f19350505050158015611016573d6000803e3d6000fd5b5061101f611026565b9050919050565b60008060003373ffffffffffffffffffffffffffffffffffffffff1673ffffffffffffffffffffffffffffffffffffffff16815260200190815260200160002054905090565b8061107681610526565b6080015161108357600080fd5b8161108d816110c5565b1561109757600080fd5b60006110a284610526565b905060008160800190151590811515815250506110bf848261112e565b50505050565b6000806110d183610526565b90506000816040015114156110ea5760009150506110f4565b8060a00151159150505b919050565b60008061110583610526565b905060008160600151141561111e576000915050611129565b428160600151109150505b919050565b80600260003373ffffffffffffffffffffffffffffffffffffffff1673ffffffffffffffffffffffffffffffffffffffff16815260200190815260200160002083815481106111a6577f4e487b7100000000000000000000000000000000000000000000000000000000600052603260045260246000fd5b906000526020600020906005020160008201518160000190805190602001906111d092919061145d565b5060208201518160010155604082015181600201556060820151816003015560808201518160040160006101000a81548160ff02191690831515021790555060a08201518160040160016101000a81548160ff0219169083151502179055509050505050565b60008060008473ffffffffffffffffffffffffffffffffffffffff1673ffffffffffffffffffffffffffffffffffffffff16815260200190815260200160002054905081816112859190611ad9565b9050806000808573ffffffffffffffffffffffffffffffffffffffff1673ffffffffffffffffffffffffffffffffffffffff16815260200190815260200160002081905550505050565b6000806112db83610526565b905062278d0081606001516112f09190611ad9565b421115611301576001915050611307565b60009150505b919050565b3373ffffffffffffffffffffffffffffffffffffffff166108fc829081150290604051600060405180830381858888f19350505050158015611352573d6000803e3d6000fd5b5050565b6040518060c00160405280606081526020016000815260200160008152602001600081526020016000151581526020016000151581525090565b82805461139c90611bed565b90600052602060002090601f0160209004810192826113be576000855561140c565b82601f106113cf578054855561140c565b8280016001018555821561140c57600052602060002091601f016020900482015b8281111561140b5782548255916001019190600101906113f0565b5b50905061141991906114e3565b5090565b50805461142990611bed565b6000825580601f1061143b575061145a565b601f01602090049060005260206000209081019061145991906114e3565b5b50565b82805461146990611bed565b90600052602060002090601f01602090048101928261148b57600085556114d2565b82601f106114a457805160ff19168380011785556114d2565b828001600101855582156114d2579182015b828111156114d15782518255916020019190600101906114b6565b5b5090506114df91906114e3565b5090565b5b808211156114fc5760008160009055506001016114e4565b5090565b600061151361150e84611a43565b611a12565b90508281526020810184848401111561152b57600080fd5b611536848285611bab565b509392505050565b60008135905061154d81611cbd565b92915050565b600082601f83011261156457600080fd5b8135611574848260208601611500565b91505092915050565b60008135905061158c81611cd4565b92915050565b6000602082840312156115a457600080fd5b60006115b28482850161153e565b91505092915050565b600080604083850312156115ce57600080fd5b60006115dc8582860161153e565b92505060206115ed8582860161157d565b9150509250929050565b60006020828403121561160957600080fd5b60006116178482850161157d565b91505092915050565b60008060006060848603121561163557600080fd5b60006116438682870161157d565b935050602084013567ffffffffffffffff81111561166057600080fd5b61166c86828701611553565b925050604061167d8682870161157d565b9150509250925092565b600061169383836117e0565b905092915050565b60006116a682611a83565b6116b08185611aa6565b9350836020820285016116c285611a73565b8060005b858110156116fe57848403895281516116df8582611687565b94506116ea83611a99565b925060208a019950506001810190506116c6565b50829750879550505050505092915050565b61171981611b75565b82525050565b61172881611b75565b82525050565b600061173982611a8e565b6117438185611ab7565b9350611753818560208601611bba565b61175c81611cac565b840191505092915050565b600061177282611a8e565b61177c8185611ac8565b935061178c818560208601611bba565b61179581611cac565b840191505092915050565b60006117ad601083611ac8565b91507f5061757361626c653a20706175736564000000000000000000000000000000006000830152602082019050919050565b600060c08301600083015184820360008601526117fd828261172e565b915050602083015161181260208601826118f2565b50604083015161182560408601826118f2565b50606083015161183860608601826118f2565b50608083015161184b6080860182611710565b5060a083015161185e60a0860182611710565b508091505092915050565b600060c0830160008301518482036000860152611886828261172e565b915050602083015161189b60208601826118f2565b5060408301516118ae60408601826118f2565b5060608301516118c160608601826118f2565b5060808301516118d46080860182611710565b5060a08301516118e760a0860182611710565b508091505092915050565b6118fb81611ba1565b82525050565b61190a81611ba1565b82525050565b6000602082019050818103600083015261192a818461169b565b905092915050565b6000602082019050611947600083018461171f565b92915050565b600060c08201905081810360008301526119678189611767565b90506119766020830188611901565b6119836040830187611901565b6119906060830186611901565b61199d608083018561171f565b6119aa60a083018461171f565b979650505050505050565b600060208201905081810360008301526119ce816117a0565b9050919050565b600060208201905081810360008301526119ef8184611869565b905092915050565b6000602082019050611a0c6000830184611901565b92915050565b6000604051905081810181811067ffffffffffffffff82111715611a3957611a38611c7d565b5b8060405250919050565b600067ffffffffffffffff821115611a5e57611a5d611c7d565b5b601f19601f8301169050602081019050919050565b6000819050602082019050919050565b600081519050919050565b600081519050919050565b6000602082019050919050565b600082825260208201905092915050565b600082825260208201905092915050565b600082825260208201905092915050565b6000611ae482611ba1565b9150611aef83611ba1565b9250827fffffffffffffffffffffffffffffffffffffffffffffffffffffffffffffffff03821115611b2457611b23611c1f565b5b828201905092915050565b6000611b3a82611ba1565b9150611b4583611ba1565b925082821015611b5857611b57611c1f565b5b828203905092915050565b6000611b6e82611b81565b9050919050565b60008115159050919050565b600073ffffffffffffffffffffffffffffffffffffffff82169050919050565b6000819050919050565b82818337600083830152505050565b60005b83811015611bd8578082015181840152602081019050611bbd565b83811115611be7576000848401525b50505050565b60006002820490506001821680611c0557607f821691505b60208210811415611c1957611c18611c4e565b5b50919050565b7f4e487b7100000000000000000000000000000000000000000000000000000000600052601160045260246000fd5b7f4e487b7100000000000000000000000000000000000000000000000000000000600052602260045260246000fd5b7f4e487b7100000000000000000000000000000000000000000000000000000000600052604160045260246000fd5b6000601f19601f8301169050919050565b611cc681611b63565b8114611cd157600080fd5b50565b611cdd81611ba1565b8114611ce857600080fd5b5056fea2646970667358221220a6f64aa8e19aaa4bdeff34022ad71d21b6f65021c792b76af26cdda8a51870e764736f6c63430008000033",
  "immutableReferences": {},
  "source": "// SPDX-License-Identifier: MIT\npragma solidity >=0.8.0 <0.9.0;\n\nimport \"./Financable.sol\";\nimport \"@openzeppelin/contracts/security/Pausable.sol\";\n\ncontract TaskFactory is Financable, Pausable{\n  /*\n   * Constant variables\n   */\n  \n  // Punishment period in seconds\n  uint constant PUNISHMENT_TIME = 30 days;\n\n\n  /*\n   * State variables\n   */\n\n  struct Task {\n    string description;\n    uint createdAt;\n    uint value;\n    uint dueDate;\n    bool completed;\n    bool cleared;\n  }\n\n  // Tasks\n  mapping (address => Task[]) public tasks;\n\n\n  /* \n   * Events\n   */\n\n  // Task added event\n  event LogAdd (address userAddress, uint taskID); // TODO\n\n\n  /* \n   * Modifiers\n   */\n\n  modifier validDueDate (uint _date) {\n    require(_date > block.timestamp);\n    _;\n  }\n\n  // If task has not any prize locked in it\n  modifier notPrized (uint _id) {\n    require(!hasPrize(_id));\n    _;\n  }\n\n  modifier completed (uint _id) {\n    require(getTask(_id).completed);\n    _;\n  }\n\n  modifier incomplete (uint _id) {\n    require(!getTask(_id).completed);\n    _;\n  }\n\n  modifier dueIsSet (uint _id) {\n    require(getTask(_id).dueDate != 0);\n    _;\n  }\n\n  /* \n   * Functions\n   */\n\n  // Add task\n  function _add(string memory _description, uint _dueDate) internal {\n    Task memory task = Task({\n      description: _description,\n      createdAt: block.timestamp,\n      value: 0,\n      dueDate: _dueDate,\n      completed: false,\n      cleared: true\n    });\n    tasks[msg.sender].push(task);\n  }\n\n\n  // Update task\n  function update(uint _id, string memory _description, uint _dueDate)\n  public notPrized(_id) {\n    Task memory task = tasks[msg.sender][_id];\n    task.description = _description;\n    task.dueDate = _dueDate;\n    replace(_id, task);\n  }\n\n  // Remove task\n  function remove(uint _id) public notPrized(_id) {\n    require(_id < tasks[msg.sender].length);\n\n    tasks[msg.sender][_id] = tasks[msg.sender][tasks[msg.sender].length - 1];\n    tasks[msg.sender].pop();\n  }\n  \n\n  // Set complete\n  function setComplete(uint _id) public incomplete(_id) {\n    Task memory task = getTask(_id);\n    if (!hasPrize(_id) || !isExpired(_id)) {\n      task.completed = true;\n      replace(_id, task);\n    }\n    if (hasPrize(_id) && !task.cleared) {\n      if (!isPunishing(_id)) {\n        task.cleared = true;\n        task.completed = true;\n        replace(_id, task);\n        addPrize(msg.sender, task.value);\n      }\n    }\n  }\n\n  // Set incomplete\n  function setIncomplete(uint _id) public completed(_id) notPrized(_id) {\n    Task memory task = getTask(_id);\n    task.completed = false;\n    replace(_id, task);\n  }\n\n  // Has prize locked in it\n  function hasPrize(uint _id) internal view returns (bool) {\n    Task memory task = getTask(_id);\n    if (task.value == 0)\n      return false;\n    return !task.cleared;\n  }\n\n  // Clear a task\n  function clear(uint _id) public returns (bool) {\n    Task memory task = getTask(_id);\n    if(hasPrize(_id) || isPunishing(_id)) {\n      return false;\n    }\n    if(isPunishmentOver(_id)) {\n      task.cleared = true;\n      payUser(task.value);\n      replace(_id, task);\n      return true;\n    }\n    return false;\n  }\n\n  // Set prize\n  function setPrize(uint _id) public payable dueIsSet(_id) whenNotPaused() {\n    Task memory task = getTask(_id);\n    require(task.value == 0);\n    require(!isExpired(_id));\n    require(task.cleared);\n\n    task.value = msg.value;\n    task.cleared = false;\n\n    replace(_id, task);\n  }\n\n  // Is in punishment period\n  function isPunishing(uint _id) public view returns (bool) {\n    if (!hasPrize(_id)) {\n      return false;\n    }\n    if (!!isExpired(_id)) {\n      return false;\n    }\n    return !isPunishmentOver(_id);\n  }\n\n  // Is punishment period over\n  function isPunishmentOver(uint _id) private view returns (bool){\n    Task memory task = getTask(_id);\n    if (block.timestamp > task.dueDate + PUNISHMENT_TIME) {\n      return true;\n    }\n    return false;\n  }\n\n  // Is task overdue\n  function isExpired(uint _id) internal view returns (bool) {\n    Task memory task = getTask(_id);\n    if (task.dueDate == 0) {\n      return false;\n    }\n    return (task.dueDate < block.timestamp);\n  }\n\n  // Get current user tasks\n  function getTasks() public view returns(Task[] memory) {\n    return tasks[msg.sender];\n  }\n\n  // Get task\n  function getTask(uint _id) public view returns(Task memory) {\n    require(tasks[msg.sender].length>_id);\n    return tasks[msg.sender][_id];\n  }\n\n\n  // Replace task\n  function replace(uint _id, Task memory _task) internal {\n    tasks[msg.sender][_id] = _task;\n  }\n\n}",
  "sourcePath": "/home/ubuntu/todo-list-dapp/blockchain/contracts/TaskFactory.sol",
  "compiler": {
    "name": "solc",
    "version": "0.8.0+commit.c7dfd78e.Emscripten.clang"
  },
  "schemaVersion": "3.4.3",
  "updatedAt": "2021-09-18T14:23:38.506Z",
  "devdoc": {
    "kind": "dev",
    "methods": {
      "paused()": {
        "details": "Returns true if the contract is paused, and false otherwise."
      }
    },
    "version": 1
  },
  "userdoc": {
    "kind": "user",
    "methods": {},
    "version": 1
  }
}