{
  "contractName": "TaskFactory",
  "abi": [
    {
      "anonymous": false,
      "inputs": [],
      "name": "LogTasksUpdated",
      "type": "event"
    },
    {
      "anonymous": false,
      "inputs": [
        {
          "indexed": false,
          "internalType": "address",
          "name": "account",
          "type": "address"
        }
      ],
      "name": "Paused",
      "type": "event"
    },
    {
      "anonymous": false,
      "inputs": [
        {
          "indexed": false,
          "internalType": "address",
          "name": "account",
          "type": "address"
        }
      ],
      "name": "Unpaused",
      "type": "event"
    },
    {
      "stateMutability": "payable",
      "type": "fallback"
    },
    {
      "inputs": [],
      "name": "getPrize",
      "outputs": [
        {
          "internalType": "uint256",
          "name": "",
          "type": "uint256"
        }
      ],
      "stateMutability": "view",
      "type": "function"
    },
    {
      "inputs": [],
      "name": "paused",
      "outputs": [
        {
          "internalType": "bool",
          "name": "",
          "type": "bool"
        }
      ],
      "stateMutability": "view",
      "type": "function"
    },
    {
      "inputs": [
        {
          "internalType": "address",
          "name": "",
          "type": "address"
        }
      ],
      "name": "prizes",
      "outputs": [
        {
          "internalType": "uint256",
          "name": "",
          "type": "uint256"
        }
      ],
      "stateMutability": "view",
      "type": "function"
    },
    {
      "inputs": [
        {
          "internalType": "address",
          "name": "",
          "type": "address"
        },
        {
          "internalType": "uint256",
          "name": "",
          "type": "uint256"
        }
      ],
      "name": "tasks",
      "outputs": [
        {
          "internalType": "string",
          "name": "description",
          "type": "string"
        },
        {
          "internalType": "uint256",
          "name": "createdAt",
          "type": "uint256"
        },
        {
          "internalType": "uint256",
          "name": "value",
          "type": "uint256"
        },
        {
          "internalType": "uint256",
          "name": "dueDate",
          "type": "uint256"
        },
        {
          "internalType": "bool",
          "name": "completed",
          "type": "bool"
        },
        {
          "internalType": "bool",
          "name": "cleared",
          "type": "bool"
        }
      ],
      "stateMutability": "view",
      "type": "function"
    },
    {
      "inputs": [
        {
          "internalType": "uint256",
          "name": "withdrawAmount",
          "type": "uint256"
        }
      ],
      "name": "withdrawPrize",
      "outputs": [
        {
          "internalType": "uint256",
          "name": "",
          "type": "uint256"
        }
      ],
      "stateMutability": "nonpayable",
      "type": "function"
    },
    {
      "stateMutability": "payable",
      "type": "receive"
    }
  ],
  "bytecode": "0x608060405234801561001057600080fd5b506000600160006101000a81548160ff02191690831515021790555061071d8061003b6000396000f3fe60806040526004361061004e5760003560e01c80635c975abb1461005d5780637149d2e414610088578063b35d11bf146100ca578063c20eec7b14610107578063c34f6b0d1461014457610058565b3661005857600080fd5b600080fd5b34801561006957600080fd5b5061007261016f565b60405161007f91906104af565b60405180910390f35b34801561009457600080fd5b506100af60048036038101906100aa91906103f3565b610186565b6040516100c1969594939291906104ca565b60405180910390f35b3480156100d657600080fd5b506100f160048036038101906100ec91906103ca565b610281565b6040516100fe9190610532565b60405180910390f35b34801561011357600080fd5b5061012e6004803603810190610129919061042f565b610299565b60405161013b9190610532565b60405180910390f35b34801561015057600080fd5b5061015961035a565b6040516101669190610532565b60405180910390f35b6000600160009054906101000a900460ff16905090565b600260205281600052604060002081815481106101a257600080fd5b9060005260206000209060050201600091509150508060000180546101c690610618565b80601f01602080910402602001604051908101604052809291908181526020018280546101f290610618565b801561023f5780601f106102145761010080835404028352916020019161023f565b820191906000526020600020905b81548152906001019060200180831161022257829003601f168201915b5050505050908060010154908060020154908060030154908060040160009054906101000a900460ff16908060040160019054906101000a900460ff16905086565b60006020528060005260406000206000915090505481565b6000816102a461035a565b10156102af57600080fd5b816000803373ffffffffffffffffffffffffffffffffffffffff1673ffffffffffffffffffffffffffffffffffffffff16815260200190815260200160002060008282546102fd9190610569565b925050819055503373ffffffffffffffffffffffffffffffffffffffff166108fc839081150290604051600060405180830381858888f1935050505015801561034a573d6000803e3d6000fd5b5061035361035a565b9050919050565b60008060003373ffffffffffffffffffffffffffffffffffffffff1673ffffffffffffffffffffffffffffffffffffffff16815260200190815260200160002054905090565b6000813590506103af816106b9565b92915050565b6000813590506103c4816106d0565b92915050565b6000602082840312156103dc57600080fd5b60006103ea848285016103a0565b91505092915050565b6000806040838503121561040657600080fd5b6000610414858286016103a0565b9250506020610425858286016103b5565b9150509250929050565b60006020828403121561044157600080fd5b600061044f848285016103b5565b91505092915050565b610461816105af565b82525050565b60006104728261054d565b61047c8185610558565b935061048c8185602086016105e5565b610495816106a8565b840191505092915050565b6104a9816105db565b82525050565b60006020820190506104c46000830184610458565b92915050565b600060c08201905081810360008301526104e48189610467565b90506104f360208301886104a0565b61050060408301876104a0565b61050d60608301866104a0565b61051a6080830185610458565b61052760a0830184610458565b979650505050505050565b600060208201905061054760008301846104a0565b92915050565b600081519050919050565b600082825260208201905092915050565b6000610574826105db565b915061057f836105db565b9250828210156105925761059161064a565b5b828203905092915050565b60006105a8826105bb565b9050919050565b60008115159050919050565b600073ffffffffffffffffffffffffffffffffffffffff82169050919050565b6000819050919050565b60005b838110156106035780820151818401526020810190506105e8565b83811115610612576000848401525b50505050565b6000600282049050600182168061063057607f821691505b6020821081141561064457610643610679565b5b50919050565b7f4e487b7100000000000000000000000000000000000000000000000000000000600052601160045260246000fd5b7f4e487b7100000000000000000000000000000000000000000000000000000000600052602260045260246000fd5b6000601f19601f8301169050919050565b6106c28161059d565b81146106cd57600080fd5b50565b6106d9816105db565b81146106e457600080fd5b5056fea2646970667358221220bc453b4013fee34e932a25577399711cf68f1b4ed526c051bcbb7c2df559c63964736f6c63430008000033",
  "immutableReferences": {},
  "source": "// SPDX-License-Identifier: MIT\npragma solidity >=0.8.0 <0.9.0;\n\nimport \"./Financable.sol\";\nimport \"@openzeppelin/contracts/security/Pausable.sol\";\n\ncontract TaskFactory is Financable, Pausable{\n  /*\n   * Constant variables\n   */\n  \n  // Punishment period in seconds\n  uint constant PUNISHMENT_TIME = 30 days;\n\n\n  /*\n   * State variables\n   */\n\n  struct Task {\n    string description;\n    uint createdAt;\n    uint value;\n    uint dueDate;\n    bool completed;\n    bool cleared;\n  }\n\n  // Tasks\n  mapping (address => Task[]) public tasks;\n\n\n  /* \n   * Events\n   */\n\n  // Tasks updated event\n  event LogTasksUpdated ();\n\n\n  /* \n   * Modifiers\n   */\n\n  modifier validDueDate (uint _date) {\n    require(_date > block.timestamp);\n    _;\n  }\n\n  // If task has not any prize locked in it\n  modifier notPrized (uint _id) {\n    require(!hasPrize(_id));\n    _;\n  }\n\n  modifier completed (uint _id) {\n    require(getTask(_id).completed);\n    _;\n  }\n\n  modifier incomplete (uint _id) {\n    require(!getTask(_id).completed);\n    _;\n  }\n\n  modifier dueIsSet (uint _id) {\n    require(getTask(_id).dueDate != 0);\n    _;\n  }\n\n  /* \n   * Functions\n   */\n\n  // Add task\n  function _add(string memory _description, uint _dueDate) internal {\n    Task memory task = Task({\n      description: _description,\n      createdAt: block.timestamp,\n      value: 0,\n      dueDate: _dueDate,\n      completed: false,\n      cleared: true\n    });\n    tasks[msg.sender].push(task);\n\n    emit LogTasksUpdated();\n  }\n\n\n  // Update task\n  function _update(uint _id, string memory _description, uint _dueDate)\n  internal notPrized(_id) {\n    Task memory task = tasks[msg.sender][_id];\n    task.description = _description;\n    task.dueDate = _dueDate;\n    replace(_id, task);\n  }\n\n  // Remove task\n  function _remove(uint _id) internal notPrized(_id) {\n    require(_id < tasks[msg.sender].length);\n\n    tasks[msg.sender][_id] = tasks[msg.sender][tasks[msg.sender].length - 1];\n    tasks[msg.sender].pop();\n\n    emit LogTasksUpdated();\n  }\n  \n\n  // Set complete\n  function _setComplete(uint _id) internal incomplete(_id) {\n    Task memory task = getTask(_id);\n    if (!hasPrize(_id) || !isExpired(_id)) {\n      task.completed = true;\n      replace(_id, task);\n    }\n    if (hasPrize(_id) && !task.cleared) {\n      if (!isUnderPunishment(_id)) {\n        task.cleared = true;\n        task.completed = true;\n        replace(_id, task);\n        addPrize(msg.sender, task.value);\n      }\n    }\n  }\n\n  // Set incomplete\n  function _setIncomplete(uint _id) internal completed(_id) notPrized(_id) {\n    Task memory task = getTask(_id);\n    task.completed = false;\n    replace(_id, task);\n  }\n\n  // Has prize locked in it\n  function hasPrize(uint _id) private view returns (bool) {\n    Task memory task = getTask(_id);\n    if (task.value == 0)\n      return false;\n    return !task.cleared;\n  }\n\n  // Clear a task\n  function _clear(uint _id) internal returns (bool) {\n    Task memory task = getTask(_id);\n    if(hasPrize(_id) || isUnderPunishment(_id)) {\n      return false;\n    }\n    if(isPunishmentOver(_id)) {\n      task.cleared = true;\n      payUser(task.value);\n      replace(_id, task);\n      return true;\n    }\n    return false;\n  }\n\n  // Set prize\n  function _setPrize(uint _id) internal dueIsSet(_id) whenNotPaused() {\n    Task memory task = getTask(_id);\n    require(task.value == 0);\n    require(!isExpired(_id));\n    require(task.cleared);\n\n    task.value = msg.value;\n    task.cleared = false;\n\n    replace(_id, task);\n  }\n\n  // Is in punishment period\n  function isUnderPunishment(uint _id) private view returns (bool) {\n    if (!hasPrize(_id)) {\n      return false;\n    }\n    if (!!isExpired(_id)) {\n      return false;\n    }\n    return !isPunishmentOver(_id);\n  }\n\n  // Is punishment period over\n  function isPunishmentOver(uint _id) private view returns (bool){\n    Task memory task = getTask(_id);\n    if (block.timestamp > task.dueDate + PUNISHMENT_TIME) {\n      return true;\n    }\n    return false;\n  }\n\n  // Is task overdue\n  function isExpired(uint _id) private view returns (bool) {\n    Task memory task = getTask(_id);\n    if (task.dueDate == 0) {\n      return false;\n    }\n    return (task.dueDate < block.timestamp);\n  }\n\n  // Get current user tasks\n  function _getTasks() internal view returns(Task[] memory) {\n    return tasks[msg.sender];\n  }\n\n  // Get task\n  function getTask(uint _id) private view returns(Task memory) {\n    require(tasks[msg.sender].length>_id);\n    return tasks[msg.sender][_id];\n  }\n\n\n  // Replace task\n  function replace(uint _id, Task memory _task) private {\n    tasks[msg.sender][_id] = _task;\n\n    emit LogTasksUpdated();\n  }\n\n}",
  "sourcePath": "/home/ubuntu/todo-list-dapp/blockchain/contracts/TaskFactory.sol",
  "compiler": {
    "name": "solc",
    "version": "0.8.0+commit.c7dfd78e.Emscripten.clang"
  },
  "schemaVersion": "3.4.3",
  "updatedAt": "2021-09-19T00:18:45.326Z",
  "devdoc": {
    "kind": "dev",
    "methods": {
      "paused()": {
        "details": "Returns true if the contract is paused, and false otherwise."
      }
    },
    "version": 1
  },
  "userdoc": {
    "kind": "user",
    "methods": {},
    "version": 1
  }
}