{
  "contractName": "Todos",
  "abi": [
    {
      "anonymous": false,
      "inputs": [],
      "name": "LogTasksUpdated",
      "type": "event"
    },
    {
      "anonymous": false,
      "inputs": [
        {
          "indexed": true,
          "internalType": "address",
          "name": "previousOwner",
          "type": "address"
        },
        {
          "indexed": true,
          "internalType": "address",
          "name": "newOwner",
          "type": "address"
        }
      ],
      "name": "OwnershipTransferred",
      "type": "event"
    },
    {
      "anonymous": false,
      "inputs": [
        {
          "indexed": false,
          "internalType": "address",
          "name": "account",
          "type": "address"
        }
      ],
      "name": "Paused",
      "type": "event"
    },
    {
      "anonymous": false,
      "inputs": [
        {
          "indexed": false,
          "internalType": "address",
          "name": "account",
          "type": "address"
        }
      ],
      "name": "Unpaused",
      "type": "event"
    },
    {
      "stateMutability": "payable",
      "type": "fallback",
      "payable": true
    },
    {
      "inputs": [],
      "name": "getPrize",
      "outputs": [
        {
          "internalType": "uint256",
          "name": "",
          "type": "uint256"
        }
      ],
      "stateMutability": "view",
      "type": "function",
      "constant": true
    },
    {
      "inputs": [],
      "name": "owner",
      "outputs": [
        {
          "internalType": "address",
          "name": "",
          "type": "address"
        }
      ],
      "stateMutability": "view",
      "type": "function",
      "constant": true
    },
    {
      "inputs": [],
      "name": "paused",
      "outputs": [
        {
          "internalType": "bool",
          "name": "",
          "type": "bool"
        }
      ],
      "stateMutability": "view",
      "type": "function",
      "constant": true
    },
    {
      "inputs": [
        {
          "internalType": "address",
          "name": "",
          "type": "address"
        }
      ],
      "name": "prizes",
      "outputs": [
        {
          "internalType": "uint256",
          "name": "",
          "type": "uint256"
        }
      ],
      "stateMutability": "view",
      "type": "function",
      "constant": true
    },
    {
      "inputs": [],
      "name": "renounceOwnership",
      "outputs": [],
      "stateMutability": "nonpayable",
      "type": "function"
    },
    {
      "inputs": [
        {
          "internalType": "address",
          "name": "",
          "type": "address"
        },
        {
          "internalType": "uint256",
          "name": "",
          "type": "uint256"
        }
      ],
      "name": "tasks",
      "outputs": [
        {
          "internalType": "string",
          "name": "description",
          "type": "string"
        },
        {
          "internalType": "uint256",
          "name": "createdAt",
          "type": "uint256"
        },
        {
          "internalType": "uint256",
          "name": "value",
          "type": "uint256"
        },
        {
          "internalType": "uint256",
          "name": "dueDate",
          "type": "uint256"
        },
        {
          "internalType": "bool",
          "name": "completed",
          "type": "bool"
        },
        {
          "internalType": "bool",
          "name": "cleared",
          "type": "bool"
        }
      ],
      "stateMutability": "view",
      "type": "function",
      "constant": true
    },
    {
      "inputs": [
        {
          "internalType": "address",
          "name": "newOwner",
          "type": "address"
        }
      ],
      "name": "transferOwnership",
      "outputs": [],
      "stateMutability": "nonpayable",
      "type": "function"
    },
    {
      "inputs": [
        {
          "internalType": "uint256",
          "name": "withdrawAmount",
          "type": "uint256"
        }
      ],
      "name": "withdrawPrize",
      "outputs": [
        {
          "internalType": "uint256",
          "name": "",
          "type": "uint256"
        }
      ],
      "stateMutability": "nonpayable",
      "type": "function"
    },
    {
      "stateMutability": "payable",
      "type": "receive",
      "payable": true
    },
    {
      "inputs": [],
      "name": "getTasks",
      "outputs": [
        {
          "components": [
            {
              "internalType": "string",
              "name": "description",
              "type": "string"
            },
            {
              "internalType": "uint256",
              "name": "createdAt",
              "type": "uint256"
            },
            {
              "internalType": "uint256",
              "name": "value",
              "type": "uint256"
            },
            {
              "internalType": "uint256",
              "name": "dueDate",
              "type": "uint256"
            },
            {
              "internalType": "bool",
              "name": "completed",
              "type": "bool"
            },
            {
              "internalType": "bool",
              "name": "cleared",
              "type": "bool"
            }
          ],
          "internalType": "struct TaskFactory.Task[]",
          "name": "",
          "type": "tuple[]"
        }
      ],
      "stateMutability": "view",
      "type": "function",
      "constant": true
    },
    {
      "inputs": [
        {
          "internalType": "string",
          "name": "_description",
          "type": "string"
        },
        {
          "internalType": "uint256",
          "name": "_dueDate",
          "type": "uint256"
        }
      ],
      "name": "add",
      "outputs": [],
      "stateMutability": "nonpayable",
      "type": "function"
    },
    {
      "inputs": [
        {
          "internalType": "uint256",
          "name": "_id",
          "type": "uint256"
        }
      ],
      "name": "setComplete",
      "outputs": [],
      "stateMutability": "nonpayable",
      "type": "function"
    },
    {
      "inputs": [
        {
          "internalType": "uint256",
          "name": "_id",
          "type": "uint256"
        }
      ],
      "name": "setPrize",
      "outputs": [],
      "stateMutability": "payable",
      "type": "function",
      "payable": true
    },
    {
      "inputs": [
        {
          "internalType": "uint256",
          "name": "_id",
          "type": "uint256"
        }
      ],
      "name": "clear",
      "outputs": [
        {
          "internalType": "bool",
          "name": "",
          "type": "bool"
        }
      ],
      "stateMutability": "nonpayable",
      "type": "function"
    },
    {
      "inputs": [],
      "name": "pause",
      "outputs": [],
      "stateMutability": "nonpayable",
      "type": "function"
    },
    {
      "inputs": [],
      "name": "unpause",
      "outputs": [],
      "stateMutability": "nonpayable",
      "type": "function"
    }
  ],
  "bytecode": "0x608060405234801561001057600080fd5b5061002d61002261004d60201b60201c565b61005560201b60201c565b6000600160146101000a81548160ff02191690831515021790555061011b565b600033905090565b6000600160009054906101000a900473ffffffffffffffffffffffffffffffffffffffff16905081600160006101000a81548173ffffffffffffffffffffffffffffffffffffffff021916908373ffffffffffffffffffffffffffffffffffffffff1602179055508173ffffffffffffffffffffffffffffffffffffffff168173ffffffffffffffffffffffffffffffffffffffff167f8be0079c531659141344cd1fd0a4f28419497f9722a3daafe3b4186f6b6457e060405160405180910390a35050565b611e268061012a6000396000f3fe6080604052600436106100ec5760003560e01c80638456cb591161008a578063c0fe1af811610059578063c0fe1af8146102ae578063c20eec7b146102eb578063c34f6b0d14610328578063f2fde38b14610353576100f6565b80638456cb591461020657806389e8491f1461021d5780638da5cb5b14610246578063b35d11bf14610271576100f6565b80635c975abb116100c65780635c975abb146101665780636ca7f3ba146101915780637149d2e4146101ad578063715018a6146101ef576100f6565b806304a87e38146100fb57806336555b85146101265780633f4ba83a1461014f576100f6565b366100f657600080fd5b600080fd5b34801561010757600080fd5b5061011061037c565b60405161011d91906119d7565b60405180910390f35b34801561013257600080fd5b5061014d6004803603810190610148919061164a565b61038b565b005b34801561015b57600080fd5b50610164610399565b005b34801561017257600080fd5b5061017b61041f565b60405161018891906119f9565b60405180910390f35b6101ab60048036038101906101a6919061169e565b610436565b005b3480156101b957600080fd5b506101d460048036038101906101cf919061160e565b610442565b6040516101e696959493929190611a14565b60405180910390f35b3480156101fb57600080fd5b5061020461053d565b005b34801561021257600080fd5b5061021b6105c5565b005b34801561022957600080fd5b50610244600480360381019061023f919061169e565b61064b565b005b34801561025257600080fd5b5061025b610657565b60405161026891906119bc565b60405180910390f35b34801561027d57600080fd5b50610298600480360381019061029391906115e5565b610681565b6040516102a59190611afc565b60405180910390f35b3480156102ba57600080fd5b506102d560048036038101906102d0919061169e565b610699565b6040516102e291906119f9565b60405180910390f35b3480156102f757600080fd5b50610312600480360381019061030d919061169e565b6106ab565b60405161031f9190611afc565b60405180910390f35b34801561033457600080fd5b5061033d61076c565b60405161034a9190611afc565b60405180910390f35b34801561035f57600080fd5b5061037a600480360381019061037591906115e5565b6107b2565b005b60606103866108aa565b905090565b6103958282610a2c565b5050565b6103a1610b7b565b73ffffffffffffffffffffffffffffffffffffffff166103bf610657565b73ffffffffffffffffffffffffffffffffffffffff1614610415576040517f08c379a000000000000000000000000000000000000000000000000000000000815260040161040c90611adc565b60405180910390fd5b61041d610b83565b565b6000600160149054906101000a900460ff16905090565b61043f81610c25565b50565b6002602052816000526040600020818154811061045e57600080fd5b90600052602060002090600502016000915091505080600001805461048290611cf2565b80601f01602080910402602001604051908101604052809291908181526020018280546104ae90611cf2565b80156104fb5780601f106104d0576101008083540402835291602001916104fb565b820191906000526020600020905b8154815290600101906020018083116104de57829003601f168201915b5050505050908060010154908060020154908060030154908060040160009054906101000a900460ff16908060040160019054906101000a900460ff16905086565b610545610b7b565b73ffffffffffffffffffffffffffffffffffffffff16610563610657565b73ffffffffffffffffffffffffffffffffffffffff16146105b9576040517f08c379a00000000000000000000000000000000000000000000000000000000081526004016105b090611adc565b60405180910390fd5b6105c36000610cf1565b565b6105cd610b7b565b73ffffffffffffffffffffffffffffffffffffffff166105eb610657565b73ffffffffffffffffffffffffffffffffffffffff1614610641576040517f08c379a000000000000000000000000000000000000000000000000000000000815260040161063890611adc565b60405180910390fd5b610649610db7565b565b61065481610e59565b50565b6000600160009054906101000a900473ffffffffffffffffffffffffffffffffffffffff16905090565b60006020528060005260406000206000915090505481565b60006106a482610f24565b9050919050565b6000816106b661076c565b10156106c157600080fd5b816000803373ffffffffffffffffffffffffffffffffffffffff1673ffffffffffffffffffffffffffffffffffffffff168152602001908152602001600020600082825461070f9190611c34565b925050819055503373ffffffffffffffffffffffffffffffffffffffff166108fc839081150290604051600060405180830381858888f1935050505015801561075c573d6000803e3d6000fd5b5061076561076c565b9050919050565b60008060003373ffffffffffffffffffffffffffffffffffffffff1673ffffffffffffffffffffffffffffffffffffffff16815260200190815260200160002054905090565b6107ba610b7b565b73ffffffffffffffffffffffffffffffffffffffff166107d8610657565b73ffffffffffffffffffffffffffffffffffffffff161461082e576040517f08c379a000000000000000000000000000000000000000000000000000000000815260040161082590611adc565b60405180910390fd5b600073ffffffffffffffffffffffffffffffffffffffff168173ffffffffffffffffffffffffffffffffffffffff16141561089e576040517f08c379a000000000000000000000000000000000000000000000000000000000815260040161089590611a9c565b60405180910390fd5b6108a781610cf1565b50565b6060600260003373ffffffffffffffffffffffffffffffffffffffff1673ffffffffffffffffffffffffffffffffffffffff168152602001908152602001600020805480602002602001604051908101604052809291908181526020016000905b82821015610a2357838290600052602060002090600502016040518060c001604052908160008201805461093e90611cf2565b80601f016020809104026020016040519081016040528092919081815260200182805461096a90611cf2565b80156109b75780601f1061098c576101008083540402835291602001916109b7565b820191906000526020600020905b81548152906001019060200180831161099a57829003601f168201915b505050505081526020016001820154815260200160028201548152602001600382015481526020016004820160009054906101000a900460ff161515151581526020016004820160019054906101000a900460ff1615151515815250508152602001906001019061090b565b50505050905090565b60006040518060c0016040528084815260200142815260200160008152602001838152602001600015158152602001600115158152509050600260003373ffffffffffffffffffffffffffffffffffffffff1673ffffffffffffffffffffffffffffffffffffffff1681526020019081526020016000208190806001815401808255809150506001900390600052602060002090600502016000909190919091506000820151816000019080519060200190610ae9929190611476565b5060208201518160010155604082015181600201556060820151816003015560808201518160040160006101000a81548160ff02191690831515021790555060a08201518160040160016101000a81548160ff02191690831515021790555050507ff1d942a3aa0252ca9653f82dac1b78fedc485a12a7f7ce983e614d3914e7114560405160405180910390a1505050565b600033905090565b610b8b61041f565b610bca576040517f08c379a0000000000000000000000000000000000000000000000000000000008152600401610bc190611a7c565b60405180910390fd5b6000600160146101000a81548160ff0219169083151502179055507f5db9ee0a495bf2e6ff9c91a7834c1ba4fdd244a5e8aa4e537bd38aeae4b073aa610c0e610b7b565b604051610c1b91906119bc565b60405180910390a1565b806000610c3182610fa5565b606001511415610c4057600080fd5b610c4861041f565b15610c88576040517f08c379a0000000000000000000000000000000000000000000000000000000008152600401610c7f90611abc565b60405180910390fd5b6000610c9383610fa5565b90506000816040015114610ca657600080fd5b610caf83611178565b15610cb957600080fd5b8060a00151610cc757600080fd5b3481604001818152505060008160a0019015159081151581525050610cec83826111ad565b505050565b6000600160009054906101000a900473ffffffffffffffffffffffffffffffffffffffff16905081600160006101000a81548173ffffffffffffffffffffffffffffffffffffffff021916908373ffffffffffffffffffffffffffffffffffffffff1602179055508173ffffffffffffffffffffffffffffffffffffffff168173ffffffffffffffffffffffffffffffffffffffff167f8be0079c531659141344cd1fd0a4f28419497f9722a3daafe3b4186f6b6457e060405160405180910390a35050565b610dbf61041f565b15610dff576040517f08c379a0000000000000000000000000000000000000000000000000000000008152600401610df690611abc565b60405180910390fd5b60018060146101000a81548160ff0219169083151502179055507f62e78cea01bee320cd4e420270b5ea74000d11b0c9f74754ebdbfc544b05a258610e42610b7b565b604051610e4f91906119bc565b60405180910390a1565b80610e6381610fa5565b6080015115610e7157600080fd5b6000610e7c83610fa5565b9050610e87836112e1565b1580610e995750610e9783611178565b155b15610eba576001816080019015159081151581525050610eb983826111ad565b5b610ec3836112e1565b8015610ed157508060a00151155b15610f1f57610edf83611315565b610f1e5760018160a00190151590811515815250506001816080019015159081151581525050610f0f83826111ad565b610f1d338260400151611356565b5b5b505050565b600080610f3083610fa5565b9050610f3b836112e1565b80610f4b5750610f4a83611315565b5b15610f5a576000915050610fa0565b610f63836113ef565b15610f9a5760018160a0019015159081151581525050610f86816040015161142c565b610f9083826111ad565b6001915050610fa0565b60009150505b919050565b610fad6114fc565b81600260003373ffffffffffffffffffffffffffffffffffffffff1673ffffffffffffffffffffffffffffffffffffffff1681526020019081526020016000208054905011610ffb57600080fd5b600260003373ffffffffffffffffffffffffffffffffffffffff1673ffffffffffffffffffffffffffffffffffffffff1681526020019081526020016000208281548110611072577f4e487b7100000000000000000000000000000000000000000000000000000000600052603260045260246000fd5b90600052602060002090600502016040518060c001604052908160008201805461109b90611cf2565b80601f01602080910402602001604051908101604052809291908181526020018280546110c790611cf2565b80156111145780601f106110e957610100808354040283529160200191611114565b820191906000526020600020905b8154815290600101906020018083116110f757829003601f168201915b505050505081526020016001820154815260200160028201548152602001600382015481526020016004820160009054906101000a900460ff161515151581526020016004820160019054906101000a900460ff1615151515815250509050919050565b60008061118483610fa5565b905060008160600151141561119d5760009150506111a8565b428160600151109150505b919050565b80600260003373ffffffffffffffffffffffffffffffffffffffff1673ffffffffffffffffffffffffffffffffffffffff1681526020019081526020016000208381548110611225577f4e487b7100000000000000000000000000000000000000000000000000000000600052603260045260246000fd5b9060005260206000209060050201600082015181600001908051906020019061124f929190611476565b5060208201518160010155604082015181600201556060820151816003015560808201518160040160006101000a81548160ff02191690831515021790555060a08201518160040160016101000a81548160ff0219169083151502179055509050507ff1d942a3aa0252ca9653f82dac1b78fedc485a12a7f7ce983e614d3914e7114560405160405180910390a15050565b6000806112ed83610fa5565b9050600081604001511415611306576000915050611310565b8060a00151159150505b919050565b6000611320826112e1565b61132d5760009050611351565b61133682611178565b156113445760009050611351565b61134d826113ef565b1590505b919050565b60008060008473ffffffffffffffffffffffffffffffffffffffff1673ffffffffffffffffffffffffffffffffffffffff16815260200190815260200160002054905081816113a59190611bde565b9050806000808573ffffffffffffffffffffffffffffffffffffffff1673ffffffffffffffffffffffffffffffffffffffff16815260200190815260200160002081905550505050565b6000806113fb83610fa5565b905062278d0081606001516114109190611bde565b421115611421576001915050611427565b60009150505b919050565b3373ffffffffffffffffffffffffffffffffffffffff166108fc829081150290604051600060405180830381858888f19350505050158015611472573d6000803e3d6000fd5b5050565b82805461148290611cf2565b90600052602060002090601f0160209004810192826114a457600085556114eb565b82601f106114bd57805160ff19168380011785556114eb565b828001600101855582156114eb579182015b828111156114ea5782518255916020019190600101906114cf565b5b5090506114f89190611536565b5090565b6040518060c00160405280606081526020016000815260200160008152602001600081526020016000151581526020016000151581525090565b5b8082111561154f576000816000905550600101611537565b5090565b600061156661156184611b48565b611b17565b90508281526020810184848401111561157e57600080fd5b611589848285611cb0565b509392505050565b6000813590506115a081611dc2565b92915050565b600082601f8301126115b757600080fd5b81356115c7848260208601611553565b91505092915050565b6000813590506115df81611dd9565b92915050565b6000602082840312156115f757600080fd5b600061160584828501611591565b91505092915050565b6000806040838503121561162157600080fd5b600061162f85828601611591565b9250506020611640858286016115d0565b9150509250929050565b6000806040838503121561165d57600080fd5b600083013567ffffffffffffffff81111561167757600080fd5b611683858286016115a6565b9250506020611694858286016115d0565b9150509250929050565b6000602082840312156116b057600080fd5b60006116be848285016115d0565b91505092915050565b60006116d38383611915565b905092915050565b6116e481611c68565b82525050565b60006116f582611b88565b6116ff8185611bab565b93508360208202850161171185611b78565b8060005b8581101561174d578484038952815161172e85826116c7565b945061173983611b9e565b925060208a01995050600181019050611715565b50829750879550505050505092915050565b61176881611c7a565b82525050565b61177781611c7a565b82525050565b600061178882611b93565b6117928185611bbc565b93506117a2818560208601611cbf565b6117ab81611db1565b840191505092915050565b60006117c182611b93565b6117cb8185611bcd565b93506117db818560208601611cbf565b6117e481611db1565b840191505092915050565b60006117fc601483611bcd565b91507f5061757361626c653a206e6f74207061757365640000000000000000000000006000830152602082019050919050565b600061183c602683611bcd565b91507f4f776e61626c653a206e6577206f776e657220697320746865207a65726f206160008301527f64647265737300000000000000000000000000000000000000000000000000006020830152604082019050919050565b60006118a2601083611bcd565b91507f5061757361626c653a20706175736564000000000000000000000000000000006000830152602082019050919050565b60006118e2602083611bcd565b91507f4f776e61626c653a2063616c6c6572206973206e6f7420746865206f776e65726000830152602082019050919050565b600060c0830160008301518482036000860152611932828261177d565b9150506020830151611947602086018261199e565b50604083015161195a604086018261199e565b50606083015161196d606086018261199e565b506080830151611980608086018261175f565b5060a083015161199360a086018261175f565b508091505092915050565b6119a781611ca6565b82525050565b6119b681611ca6565b82525050565b60006020820190506119d160008301846116db565b92915050565b600060208201905081810360008301526119f181846116ea565b905092915050565b6000602082019050611a0e600083018461176e565b92915050565b600060c0820190508181036000830152611a2e81896117b6565b9050611a3d60208301886119ad565b611a4a60408301876119ad565b611a5760608301866119ad565b611a64608083018561176e565b611a7160a083018461176e565b979650505050505050565b60006020820190508181036000830152611a95816117ef565b9050919050565b60006020820190508181036000830152611ab58161182f565b9050919050565b60006020820190508181036000830152611ad581611895565b9050919050565b60006020820190508181036000830152611af5816118d5565b9050919050565b6000602082019050611b1160008301846119ad565b92915050565b6000604051905081810181811067ffffffffffffffff82111715611b3e57611b3d611d82565b5b8060405250919050565b600067ffffffffffffffff821115611b6357611b62611d82565b5b601f19601f8301169050602081019050919050565b6000819050602082019050919050565b600081519050919050565b600081519050919050565b6000602082019050919050565b600082825260208201905092915050565b600082825260208201905092915050565b600082825260208201905092915050565b6000611be982611ca6565b9150611bf483611ca6565b9250827fffffffffffffffffffffffffffffffffffffffffffffffffffffffffffffffff03821115611c2957611c28611d24565b5b828201905092915050565b6000611c3f82611ca6565b9150611c4a83611ca6565b925082821015611c5d57611c5c611d24565b5b828203905092915050565b6000611c7382611c86565b9050919050565b60008115159050919050565b600073ffffffffffffffffffffffffffffffffffffffff82169050919050565b6000819050919050565b82818337600083830152505050565b60005b83811015611cdd578082015181840152602081019050611cc2565b83811115611cec576000848401525b50505050565b60006002820490506001821680611d0a57607f821691505b60208210811415611d1e57611d1d611d53565b5b50919050565b7f4e487b7100000000000000000000000000000000000000000000000000000000600052601160045260246000fd5b7f4e487b7100000000000000000000000000000000000000000000000000000000600052602260045260246000fd5b7f4e487b7100000000000000000000000000000000000000000000000000000000600052604160045260246000fd5b6000601f19601f8301169050919050565b611dcb81611c68565b8114611dd657600080fd5b50565b611de281611ca6565b8114611ded57600080fd5b5056fea2646970667358221220ed654a5f775276e01b48e3eb92286ab161e284a142f85eb8775f6ff17112770f64736f6c63430008000033",
  "immutableReferences": {},
  "source": "// SPDX-License-Identifier: MIT\npragma solidity >=0.8.0 <0.9.0;\n//pragma experimental ABIEncoderV2; // Two level dynamic arrays support\n\nimport \"@openzeppelin/contracts/access/Ownable.sol\";\nimport \"./TaskFactory.sol\";\n\ncontract Todos is Ownable, TaskFactory{\n  \n  /*\n   * State variables\n   */\n\n  \n\n  /* \n   * Events\n   */\n  \n\n\n  /* \n   * Modifiers\n   */\n  \n\n\n  /* \n   * Functions\n   */\n  \n  // Get user's all tasks\n  function getTasks() public view returns (Task[] memory) {\n    return _getTasks();\n  }\n  \n  // Add a new task\n  function add(string memory _description, uint _dueDate) public {\n    _add(_description, _dueDate);\n  }\n\n  // Update a task TODO\n\n  // Set a task as completed\n  function setComplete(uint _id) public {\n    _setComplete(_id);\n  }\n\n  // Remove a task TODO\n\n  // Add prize to a task\n  function setPrize(uint _id) public payable {\n    _setPrize(_id);\n  }\n\n  // Clear a task\n  function clear(uint _id) public returns (bool) {\n    return _clear(_id);\n  }\n  \n\n  // Pause contract deposits\n  function pause() public onlyOwner() {\n    _pause();\n  }\n\n  // Unpause contract deposits\n  function unpause() public onlyOwner() {\n    _unpause();\n  }\n\n}\n",
  "sourcePath": "/home/ubuntu/todo-list-dapp/blockchain/contracts/Todos.sol",
  "compiler": {
    "name": "solc",
    "version": "0.8.0+commit.c7dfd78e.Emscripten.clang"
  },
  "schemaVersion": "3.4.3",
  "updatedAt": "2021-09-19T00:20:46.017Z",
  "networkType": "ethereum",
  "devdoc": {
    "kind": "dev",
    "methods": {
      "owner()": {
        "details": "Returns the address of the current owner."
      },
      "paused()": {
        "details": "Returns true if the contract is paused, and false otherwise."
      },
      "renounceOwnership()": {
        "details": "Leaves the contract without owner. It will not be possible to call `onlyOwner` functions anymore. Can only be called by the current owner. NOTE: Renouncing ownership will leave the contract without an owner, thereby removing any functionality that is only available to the owner."
      },
      "transferOwnership(address)": {
        "details": "Transfers ownership of the contract to a new account (`newOwner`). Can only be called by the current owner."
      }
    },
    "version": 1
  },
  "userdoc": {
    "kind": "user",
    "methods": {},
    "version": 1
  }
}