{
  "contractName": "Todos",
  "abi": [
    {
      "anonymous": false,
      "inputs": [
        {
          "indexed": false,
          "internalType": "address",
          "name": "userAddress",
          "type": "address"
        },
        {
          "indexed": false,
          "internalType": "uint256",
          "name": "taskID",
          "type": "uint256"
        }
      ],
      "name": "LogAdd",
      "type": "event"
    },
    {
      "anonymous": false,
      "inputs": [
        {
          "indexed": true,
          "internalType": "address",
          "name": "previousOwner",
          "type": "address"
        },
        {
          "indexed": true,
          "internalType": "address",
          "name": "newOwner",
          "type": "address"
        }
      ],
      "name": "OwnershipTransferred",
      "type": "event"
    },
    {
      "anonymous": false,
      "inputs": [
        {
          "indexed": false,
          "internalType": "address",
          "name": "account",
          "type": "address"
        }
      ],
      "name": "Paused",
      "type": "event"
    },
    {
      "anonymous": false,
      "inputs": [
        {
          "indexed": false,
          "internalType": "address",
          "name": "account",
          "type": "address"
        }
      ],
      "name": "Unpaused",
      "type": "event"
    },
    {
      "stateMutability": "payable",
      "type": "fallback",
      "payable": true
    },
    {
      "inputs": [],
      "name": "getPrize",
      "outputs": [
        {
          "internalType": "uint256",
          "name": "",
          "type": "uint256"
        }
      ],
      "stateMutability": "view",
      "type": "function",
      "constant": true
    },
    {
      "inputs": [],
      "name": "owner",
      "outputs": [
        {
          "internalType": "address",
          "name": "",
          "type": "address"
        }
      ],
      "stateMutability": "view",
      "type": "function",
      "constant": true
    },
    {
      "inputs": [],
      "name": "paused",
      "outputs": [
        {
          "internalType": "bool",
          "name": "",
          "type": "bool"
        }
      ],
      "stateMutability": "view",
      "type": "function",
      "constant": true
    },
    {
      "inputs": [
        {
          "internalType": "address",
          "name": "",
          "type": "address"
        }
      ],
      "name": "prizes",
      "outputs": [
        {
          "internalType": "uint256",
          "name": "",
          "type": "uint256"
        }
      ],
      "stateMutability": "view",
      "type": "function",
      "constant": true
    },
    {
      "inputs": [],
      "name": "renounceOwnership",
      "outputs": [],
      "stateMutability": "nonpayable",
      "type": "function"
    },
    {
      "inputs": [
        {
          "internalType": "address",
          "name": "",
          "type": "address"
        },
        {
          "internalType": "uint256",
          "name": "",
          "type": "uint256"
        }
      ],
      "name": "tasks",
      "outputs": [
        {
          "internalType": "string",
          "name": "description",
          "type": "string"
        },
        {
          "internalType": "uint256",
          "name": "createdAt",
          "type": "uint256"
        },
        {
          "internalType": "uint256",
          "name": "value",
          "type": "uint256"
        },
        {
          "internalType": "uint256",
          "name": "dueDate",
          "type": "uint256"
        },
        {
          "internalType": "bool",
          "name": "completed",
          "type": "bool"
        },
        {
          "internalType": "bool",
          "name": "cleared",
          "type": "bool"
        }
      ],
      "stateMutability": "view",
      "type": "function",
      "constant": true
    },
    {
      "inputs": [
        {
          "internalType": "address",
          "name": "newOwner",
          "type": "address"
        }
      ],
      "name": "transferOwnership",
      "outputs": [],
      "stateMutability": "nonpayable",
      "type": "function"
    },
    {
      "inputs": [
        {
          "internalType": "uint256",
          "name": "withdrawAmount",
          "type": "uint256"
        }
      ],
      "name": "withdrawPrize",
      "outputs": [
        {
          "internalType": "uint256",
          "name": "",
          "type": "uint256"
        }
      ],
      "stateMutability": "nonpayable",
      "type": "function"
    },
    {
      "stateMutability": "payable",
      "type": "receive",
      "payable": true
    },
    {
      "inputs": [
        {
          "internalType": "string",
          "name": "_description",
          "type": "string"
        },
        {
          "internalType": "uint256",
          "name": "_dueDate",
          "type": "uint256"
        }
      ],
      "name": "add",
      "outputs": [],
      "stateMutability": "nonpayable",
      "type": "function"
    },
    {
      "inputs": [
        {
          "internalType": "uint256",
          "name": "_id",
          "type": "uint256"
        },
        {
          "internalType": "string",
          "name": "_description",
          "type": "string"
        },
        {
          "internalType": "uint256",
          "name": "_dueDate",
          "type": "uint256"
        }
      ],
      "name": "update",
      "outputs": [],
      "stateMutability": "nonpayable",
      "type": "function"
    },
    {
      "inputs": [
        {
          "internalType": "uint256",
          "name": "_id",
          "type": "uint256"
        }
      ],
      "name": "remove",
      "outputs": [],
      "stateMutability": "nonpayable",
      "type": "function"
    },
    {
      "inputs": [
        {
          "internalType": "uint256",
          "name": "_id",
          "type": "uint256"
        }
      ],
      "name": "setComplete",
      "outputs": [],
      "stateMutability": "nonpayable",
      "type": "function"
    },
    {
      "inputs": [
        {
          "internalType": "uint256",
          "name": "_id",
          "type": "uint256"
        }
      ],
      "name": "setIncomplete",
      "outputs": [],
      "stateMutability": "nonpayable",
      "type": "function"
    },
    {
      "inputs": [
        {
          "internalType": "uint256",
          "name": "_id",
          "type": "uint256"
        }
      ],
      "name": "clear",
      "outputs": [
        {
          "internalType": "bool",
          "name": "",
          "type": "bool"
        }
      ],
      "stateMutability": "nonpayable",
      "type": "function"
    },
    {
      "inputs": [
        {
          "internalType": "uint256",
          "name": "_id",
          "type": "uint256"
        }
      ],
      "name": "setPrize",
      "outputs": [],
      "stateMutability": "payable",
      "type": "function",
      "payable": true
    },
    {
      "inputs": [
        {
          "internalType": "uint256",
          "name": "_id",
          "type": "uint256"
        }
      ],
      "name": "isPunishing",
      "outputs": [
        {
          "internalType": "bool",
          "name": "",
          "type": "bool"
        }
      ],
      "stateMutability": "view",
      "type": "function",
      "constant": true
    },
    {
      "inputs": [],
      "name": "getTasks",
      "outputs": [
        {
          "components": [
            {
              "internalType": "string",
              "name": "description",
              "type": "string"
            },
            {
              "internalType": "uint256",
              "name": "createdAt",
              "type": "uint256"
            },
            {
              "internalType": "uint256",
              "name": "value",
              "type": "uint256"
            },
            {
              "internalType": "uint256",
              "name": "dueDate",
              "type": "uint256"
            },
            {
              "internalType": "bool",
              "name": "completed",
              "type": "bool"
            },
            {
              "internalType": "bool",
              "name": "cleared",
              "type": "bool"
            }
          ],
          "internalType": "struct Todos.Task[]",
          "name": "",
          "type": "tuple[]"
        }
      ],
      "stateMutability": "view",
      "type": "function",
      "constant": true
    },
    {
      "inputs": [
        {
          "internalType": "uint256",
          "name": "_id",
          "type": "uint256"
        }
      ],
      "name": "getTask",
      "outputs": [
        {
          "components": [
            {
              "internalType": "string",
              "name": "description",
              "type": "string"
            },
            {
              "internalType": "uint256",
              "name": "createdAt",
              "type": "uint256"
            },
            {
              "internalType": "uint256",
              "name": "value",
              "type": "uint256"
            },
            {
              "internalType": "uint256",
              "name": "dueDate",
              "type": "uint256"
            },
            {
              "internalType": "bool",
              "name": "completed",
              "type": "bool"
            },
            {
              "internalType": "bool",
              "name": "cleared",
              "type": "bool"
            }
          ],
          "internalType": "struct Todos.Task",
          "name": "",
          "type": "tuple"
        }
      ],
      "stateMutability": "view",
      "type": "function",
      "constant": true
    },
    {
      "inputs": [],
      "name": "pause",
      "outputs": [],
      "stateMutability": "nonpayable",
      "type": "function"
    },
    {
      "inputs": [],
      "name": "unpause",
      "outputs": [],
      "stateMutability": "nonpayable",
      "type": "function"
    }
  ],
  "bytecode": "0x60806040523480156200001157600080fd5b5062000032620000266200005360201b60201c565b6200005b60201b60201c565b6000600260006101000a81548160ff0219169083151502179055506200011f565b600033905090565b60008060009054906101000a900473ffffffffffffffffffffffffffffffffffffffff169050816000806101000a81548173ffffffffffffffffffffffffffffffffffffffff021916908373ffffffffffffffffffffffffffffffffffffffff1602179055508173ffffffffffffffffffffffffffffffffffffffff168173ffffffffffffffffffffffffffffffffffffffff167f8be0079c531659141344cd1fd0a4f28419497f9722a3daafe3b4186f6b6457e060405160405180910390a35050565b61258e806200012f6000396000f3fe6080604052600436106101235760003560e01c806389e8491f116100a0578063c0fe1af811610064578063c0fe1af8146103b1578063c20eec7b146103ee578063c34f6b0d1461042b578063e7a9d40614610456578063f2fde38b1461047f5761012d565b806389e8491f146102ba5780638da5cb5b146102e35780639ec06b8e1461030e578063ad841e071461034b578063b35d11bf146103745761012d565b80635c975abb116100e75780635c975abb146102035780636ca7f3ba1461022e5780637149d2e41461024a578063715018a61461028c5780638456cb59146102a35761012d565b806304a87e38146101325780631d65e77e1461015d57806336555b851461019a5780633f4ba83a146101c35780634cc82215146101da5761012d565b3661012d57600080fd5b600080fd5b34801561013e57600080fd5b506101476104a8565b604051610154919061211d565b60405180910390f35b34801561016957600080fd5b50610184600480360381019061017f9190611cf4565b61062a565b6040516101919190612242565b60405180910390f35b3480156101a657600080fd5b506101c160048036038101906101bc9190611ca0565b6107fd565b005b3480156101cf57600080fd5b506101d8610920565b005b3480156101e657600080fd5b5061020160048036038101906101fc9190611cf4565b6109a6565b005b34801561020f57600080fd5b50610218610cdd565b604051610225919061213f565b60405180910390f35b61024860048036038101906102439190611cf4565b610cf4565b005b34801561025657600080fd5b50610271600480360381019061026c9190611c64565b610d78565b6040516102839695949392919061215a565b60405180910390f35b34801561029857600080fd5b506102a1610e73565b005b3480156102af57600080fd5b506102b8610efb565b005b3480156102c657600080fd5b506102e160048036038101906102dc9190611cf4565b610f81565b005b3480156102ef57600080fd5b506102f861104c565b6040516103059190612102565b60405180910390f35b34801561031a57600080fd5b5061033560048036038101906103309190611cf4565b611075565b604051610342919061213f565b60405180910390f35b34801561035757600080fd5b50610372600480360381019061036d9190611d1d565b6110b6565b005b34801561038057600080fd5b5061039b60048036038101906103969190611c3b565b611268565b6040516103a89190612264565b60405180910390f35b3480156103bd57600080fd5b506103d860048036038101906103d39190611cf4565b611280565b6040516103e5919061213f565b60405180910390f35b3480156103fa57600080fd5b5061041560048036038101906104109190611cf4565b611301565b6040516104229190612264565b60405180910390f35b34801561043757600080fd5b506104406113c3565b60405161044d9190612264565b60405180910390f35b34801561046257600080fd5b5061047d60048036038101906104789190611cf4565b61140a565b005b34801561048b57600080fd5b506104a660048036038101906104a19190611c3b565b611463565b005b6060600360003373ffffffffffffffffffffffffffffffffffffffff1673ffffffffffffffffffffffffffffffffffffffff168152602001908152602001600020805480602002602001604051908101604052809291908181526020016000905b8282101561062157838290600052602060002090600502016040518060c001604052908160008201805461053c9061245a565b80601f01602080910402602001604051908101604052809291908181526020018280546105689061245a565b80156105b55780601f1061058a576101008083540402835291602001916105b5565b820191906000526020600020905b81548152906001019060200180831161059857829003601f168201915b505050505081526020016001820154815260200160028201548152602001600382015481526020016004820160009054906101000a900460ff161515151581526020016004820160019054906101000a900460ff16151515158152505081526020019060010190610509565b50505050905090565b6106326119ff565b81600360003373ffffffffffffffffffffffffffffffffffffffff1673ffffffffffffffffffffffffffffffffffffffff168152602001908152602001600020805490501161068057600080fd5b600360003373ffffffffffffffffffffffffffffffffffffffff1673ffffffffffffffffffffffffffffffffffffffff16815260200190815260200160002082815481106106f7577f4e487b7100000000000000000000000000000000000000000000000000000000600052603260045260246000fd5b90600052602060002090600502016040518060c00160405290816000820180546107209061245a565b80601f016020809104026020016040519081016040528092919081815260200182805461074c9061245a565b80156107995780601f1061076e57610100808354040283529160200191610799565b820191906000526020600020905b81548152906001019060200180831161077c57829003601f168201915b505050505081526020016001820154815260200160028201548152602001600382015481526020016004820160009054906101000a900460ff161515151581526020016004820160019054906101000a900460ff1615151515815250509050919050565b60006040518060c0016040528084815260200142815260200160008152602001838152602001600015158152602001600115158152509050600360003373ffffffffffffffffffffffffffffffffffffffff1673ffffffffffffffffffffffffffffffffffffffff16815260200190815260200160002081908060018154018082558091505060019003906000526020600020906005020160009091909190915060008201518160000190805190602001906108ba929190611a39565b5060208201518160010155604082015181600201556060820151816003015560808201518160040160006101000a81548160ff02191690831515021790555060a08201518160040160016101000a81548160ff0219169083151502179055505050505050565b61092861155b565b73ffffffffffffffffffffffffffffffffffffffff1661094661104c565b73ffffffffffffffffffffffffffffffffffffffff161461099c576040517f08c379a000000000000000000000000000000000000000000000000000000000815260040161099390612222565b60405180910390fd5b6109a4611563565b565b806109b081611605565b156109ba57600080fd5b600360003373ffffffffffffffffffffffffffffffffffffffff1673ffffffffffffffffffffffffffffffffffffffff168152602001908152602001600020805490508210610a0857600080fd5b600360003373ffffffffffffffffffffffffffffffffffffffff1673ffffffffffffffffffffffffffffffffffffffff1681526020019081526020016000206001600360003373ffffffffffffffffffffffffffffffffffffffff1673ffffffffffffffffffffffffffffffffffffffff16815260200190815260200160002080549050610a96919061239c565b81548110610acd577f4e487b7100000000000000000000000000000000000000000000000000000000600052603260045260246000fd5b9060005260206000209060050201600360003373ffffffffffffffffffffffffffffffffffffffff1673ffffffffffffffffffffffffffffffffffffffff1681526020019081526020016000208381548110610b52577f4e487b7100000000000000000000000000000000000000000000000000000000600052603260045260246000fd5b90600052602060002090600502016000820181600001908054610b749061245a565b610b7f929190611abf565b506001820154816001015560028201548160020155600382015481600301556004820160009054906101000a900460ff168160040160006101000a81548160ff0219169083151502179055506004820160019054906101000a900460ff168160040160016101000a81548160ff021916908315150217905550905050600360003373ffffffffffffffffffffffffffffffffffffffff1673ffffffffffffffffffffffffffffffffffffffff168152602001908152602001600020805480610c70577f4e487b7100000000000000000000000000000000000000000000000000000000600052603160045260246000fd5b600190038181906000526020600020906005020160008082016000610c959190611b4c565b6001820160009055600282016000905560038201600090556004820160006101000a81549060ff02191690556004820160016101000a81549060ff0219169055505090555050565b6000600260009054906101000a900460ff16905090565b806000610d008261062a565b606001511415610d0f57600080fd5b6000610d1a8361062a565b90506000816040015114610d2d57600080fd5b610d3683611639565b15610d4057600080fd5b8060a00151610d4e57600080fd5b3481604001818152505060008160a0019015159081151581525050610d73838261166e565b505050565b60036020528160005260406000208181548110610d9457600080fd5b906000526020600020906005020160009150915050806000018054610db89061245a565b80601f0160208091040260200160405190810160405280929190818152602001828054610de49061245a565b8015610e315780601f10610e0657610100808354040283529160200191610e31565b820191906000526020600020905b815481529060010190602001808311610e1457829003601f168201915b5050505050908060010154908060020154908060030154908060040160009054906101000a900460ff16908060040160019054906101000a900460ff16905086565b610e7b61155b565b73ffffffffffffffffffffffffffffffffffffffff16610e9961104c565b73ffffffffffffffffffffffffffffffffffffffff1614610eef576040517f08c379a0000000000000000000000000000000000000000000000000000000008152600401610ee690612222565b60405180910390fd5b610ef96000611776565b565b610f0361155b565b73ffffffffffffffffffffffffffffffffffffffff16610f2161104c565b73ffffffffffffffffffffffffffffffffffffffff1614610f77576040517f08c379a0000000000000000000000000000000000000000000000000000000008152600401610f6e90612222565b60405180910390fd5b610f7f61183a565b565b80610f8b8161062a565b6080015115610f9957600080fd5b6000610fa48361062a565b9050610faf83611605565b1580610fc15750610fbf83611639565b155b15610fe2576001816080019015159081151581525050610fe1838261166e565b5b610feb83611605565b8015610ff957508060a00151155b156110475761100783611075565b6110465760018160a00190151590811515815250506001816080019015159081151581525050611037838261166e565b6110453382604001516118dd565b5b5b505050565b60008060009054906101000a900473ffffffffffffffffffffffffffffffffffffffff16905090565b600061108082611605565b61108d57600090506110b1565b61109682611639565b156110a457600090506110b1565b6110ad82611978565b1590505b919050565b826110c081611605565b156110ca57600080fd5b6000600360003373ffffffffffffffffffffffffffffffffffffffff1673ffffffffffffffffffffffffffffffffffffffff1681526020019081526020016000208581548110611143577f4e487b7100000000000000000000000000000000000000000000000000000000600052603260045260246000fd5b90600052602060002090600502016040518060c001604052908160008201805461116c9061245a565b80601f01602080910402602001604051908101604052809291908181526020018280546111989061245a565b80156111e55780601f106111ba576101008083540402835291602001916111e5565b820191906000526020600020905b8154815290600101906020018083116111c857829003601f168201915b505050505081526020016001820154815260200160028201548152602001600382015481526020016004820160009054906101000a900460ff161515151581526020016004820160019054906101000a900460ff161515151581525050905083816000018190525082816060018181525050611261858261166e565b5050505050565b60016020528060005260406000206000915090505481565b60008061128c8361062a565b905061129783611605565b806112a757506112a683611075565b5b156112b65760009150506112fc565b6112bf83611978565b156112f65760018160a00190151590811515815250506112e281604001516119b5565b6112ec838261166e565b60019150506112fc565b60009150505b919050565b60008161130c6113c3565b101561131757600080fd5b81600160003373ffffffffffffffffffffffffffffffffffffffff1673ffffffffffffffffffffffffffffffffffffffff1681526020019081526020016000206000828254611366919061239c565b925050819055503373ffffffffffffffffffffffffffffffffffffffff166108fc839081150290604051600060405180830381858888f193505050501580156113b3573d6000803e3d6000fd5b506113bc6113c3565b9050919050565b6000600160003373ffffffffffffffffffffffffffffffffffffffff1673ffffffffffffffffffffffffffffffffffffffff16815260200190815260200160002054905090565b806114148161062a565b6080015161142157600080fd5b8161142b81611605565b1561143557600080fd5b60006114408461062a565b9050600081608001901515908115158152505061145d848261166e565b50505050565b61146b61155b565b73ffffffffffffffffffffffffffffffffffffffff1661148961104c565b73ffffffffffffffffffffffffffffffffffffffff16146114df576040517f08c379a00000000000000000000000000000000000000000000000000000000081526004016114d690612222565b60405180910390fd5b600073ffffffffffffffffffffffffffffffffffffffff168173ffffffffffffffffffffffffffffffffffffffff16141561154f576040517f08c379a0000000000000000000000000000000000000000000000000000000008152600401611546906121e2565b60405180910390fd5b61155881611776565b50565b600033905090565b61156b610cdd565b6115aa576040517f08c379a00000000000000000000000000000000000000000000000000000000081526004016115a1906121c2565b60405180910390fd5b6000600260006101000a81548160ff0219169083151502179055507f5db9ee0a495bf2e6ff9c91a7834c1ba4fdd244a5e8aa4e537bd38aeae4b073aa6115ee61155b565b6040516115fb9190612102565b60405180910390a1565b6000806116118361062a565b905060008160400151141561162a576000915050611634565b8060a00151159150505b919050565b6000806116458361062a565b905060008160600151141561165e576000915050611669565b428160600151109150505b919050565b80600360003373ffffffffffffffffffffffffffffffffffffffff1673ffffffffffffffffffffffffffffffffffffffff16815260200190815260200160002083815481106116e6577f4e487b7100000000000000000000000000000000000000000000000000000000600052603260045260246000fd5b90600052602060002090600502016000820151816000019080519060200190611710929190611a39565b5060208201518160010155604082015181600201556060820151816003015560808201518160040160006101000a81548160ff02191690831515021790555060a08201518160040160016101000a81548160ff0219169083151502179055509050505050565b60008060009054906101000a900473ffffffffffffffffffffffffffffffffffffffff169050816000806101000a81548173ffffffffffffffffffffffffffffffffffffffff021916908373ffffffffffffffffffffffffffffffffffffffff1602179055508173ffffffffffffffffffffffffffffffffffffffff168173ffffffffffffffffffffffffffffffffffffffff167f8be0079c531659141344cd1fd0a4f28419497f9722a3daafe3b4186f6b6457e060405160405180910390a35050565b611842610cdd565b15611882576040517f08c379a000000000000000000000000000000000000000000000000000000000815260040161187990612202565b60405180910390fd5b6001600260006101000a81548160ff0219169083151502179055507f62e78cea01bee320cd4e420270b5ea74000d11b0c9f74754ebdbfc544b05a2586118c661155b565b6040516118d39190612102565b60405180910390a1565b6000600160008473ffffffffffffffffffffffffffffffffffffffff1673ffffffffffffffffffffffffffffffffffffffff168152602001908152602001600020549050818161192d9190612346565b905080600160008573ffffffffffffffffffffffffffffffffffffffff1673ffffffffffffffffffffffffffffffffffffffff16815260200190815260200160002081905550505050565b6000806119848361062a565b905062278d0081606001516119999190612346565b4211156119aa5760019150506119b0565b60009150505b919050565b3373ffffffffffffffffffffffffffffffffffffffff166108fc829081150290604051600060405180830381858888f193505050501580156119fb573d6000803e3d6000fd5b5050565b6040518060c00160405280606081526020016000815260200160008152602001600081526020016000151581526020016000151581525090565b828054611a459061245a565b90600052602060002090601f016020900481019282611a675760008555611aae565b82601f10611a8057805160ff1916838001178555611aae565b82800160010185558215611aae579182015b82811115611aad578251825591602001919060010190611a92565b5b509050611abb9190611b8c565b5090565b828054611acb9061245a565b90600052602060002090601f016020900481019282611aed5760008555611b3b565b82601f10611afe5780548555611b3b565b82800160010185558215611b3b57600052602060002091601f016020900482015b82811115611b3a578254825591600101919060010190611b1f565b5b509050611b489190611b8c565b5090565b508054611b589061245a565b6000825580601f10611b6a5750611b89565b601f016020900490600052602060002090810190611b889190611b8c565b5b50565b5b80821115611ba5576000816000905550600101611b8d565b5090565b6000611bbc611bb7846122b0565b61227f565b905082815260208101848484011115611bd457600080fd5b611bdf848285612418565b509392505050565b600081359050611bf68161252a565b92915050565b600082601f830112611c0d57600080fd5b8135611c1d848260208601611ba9565b91505092915050565b600081359050611c3581612541565b92915050565b600060208284031215611c4d57600080fd5b6000611c5b84828501611be7565b91505092915050565b60008060408385031215611c7757600080fd5b6000611c8585828601611be7565b9250506020611c9685828601611c26565b9150509250929050565b60008060408385031215611cb357600080fd5b600083013567ffffffffffffffff811115611ccd57600080fd5b611cd985828601611bfc565b9250506020611cea85828601611c26565b9150509250929050565b600060208284031215611d0657600080fd5b6000611d1484828501611c26565b91505092915050565b600080600060608486031215611d3257600080fd5b6000611d4086828701611c26565b935050602084013567ffffffffffffffff811115611d5d57600080fd5b611d6986828701611bfc565b9250506040611d7a86828701611c26565b9150509250925092565b6000611d908383611fd2565b905092915050565b611da1816123d0565b82525050565b6000611db2826122f0565b611dbc8185612313565b935083602082028501611dce856122e0565b8060005b85811015611e0a5784840389528151611deb8582611d84565b9450611df683612306565b925060208a01995050600181019050611dd2565b50829750879550505050505092915050565b611e25816123e2565b82525050565b611e34816123e2565b82525050565b6000611e45826122fb565b611e4f8185612324565b9350611e5f818560208601612427565b611e6881612519565b840191505092915050565b6000611e7e826122fb565b611e888185612335565b9350611e98818560208601612427565b611ea181612519565b840191505092915050565b6000611eb9601483612335565b91507f5061757361626c653a206e6f74207061757365640000000000000000000000006000830152602082019050919050565b6000611ef9602683612335565b91507f4f776e61626c653a206e6577206f776e657220697320746865207a65726f206160008301527f64647265737300000000000000000000000000000000000000000000000000006020830152604082019050919050565b6000611f5f601083612335565b91507f5061757361626c653a20706175736564000000000000000000000000000000006000830152602082019050919050565b6000611f9f602083612335565b91507f4f776e61626c653a2063616c6c6572206973206e6f7420746865206f776e65726000830152602082019050919050565b600060c0830160008301518482036000860152611fef8282611e3a565b915050602083015161200460208601826120e4565b50604083015161201760408601826120e4565b50606083015161202a60608601826120e4565b50608083015161203d6080860182611e1c565b5060a083015161205060a0860182611e1c565b508091505092915050565b600060c08301600083015184820360008601526120788282611e3a565b915050602083015161208d60208601826120e4565b5060408301516120a060408601826120e4565b5060608301516120b360608601826120e4565b5060808301516120c66080860182611e1c565b5060a08301516120d960a0860182611e1c565b508091505092915050565b6120ed8161240e565b82525050565b6120fc8161240e565b82525050565b60006020820190506121176000830184611d98565b92915050565b600060208201905081810360008301526121378184611da7565b905092915050565b60006020820190506121546000830184611e2b565b92915050565b600060c08201905081810360008301526121748189611e73565b905061218360208301886120f3565b61219060408301876120f3565b61219d60608301866120f3565b6121aa6080830185611e2b565b6121b760a0830184611e2b565b979650505050505050565b600060208201905081810360008301526121db81611eac565b9050919050565b600060208201905081810360008301526121fb81611eec565b9050919050565b6000602082019050818103600083015261221b81611f52565b9050919050565b6000602082019050818103600083015261223b81611f92565b9050919050565b6000602082019050818103600083015261225c818461205b565b905092915050565b600060208201905061227960008301846120f3565b92915050565b6000604051905081810181811067ffffffffffffffff821117156122a6576122a56124ea565b5b8060405250919050565b600067ffffffffffffffff8211156122cb576122ca6124ea565b5b601f19601f8301169050602081019050919050565b6000819050602082019050919050565b600081519050919050565b600081519050919050565b6000602082019050919050565b600082825260208201905092915050565b600082825260208201905092915050565b600082825260208201905092915050565b60006123518261240e565b915061235c8361240e565b9250827fffffffffffffffffffffffffffffffffffffffffffffffffffffffffffffffff038211156123915761239061248c565b5b828201905092915050565b60006123a78261240e565b91506123b28361240e565b9250828210156123c5576123c461248c565b5b828203905092915050565b60006123db826123ee565b9050919050565b60008115159050919050565b600073ffffffffffffffffffffffffffffffffffffffff82169050919050565b6000819050919050565b82818337600083830152505050565b60005b8381101561244557808201518184015260208101905061242a565b83811115612454576000848401525b50505050565b6000600282049050600182168061247257607f821691505b60208210811415612486576124856124bb565b5b50919050565b7f4e487b7100000000000000000000000000000000000000000000000000000000600052601160045260246000fd5b7f4e487b7100000000000000000000000000000000000000000000000000000000600052602260045260246000fd5b7f4e487b7100000000000000000000000000000000000000000000000000000000600052604160045260246000fd5b6000601f19601f8301169050919050565b612533816123d0565b811461253e57600080fd5b50565b61254a8161240e565b811461255557600080fd5b5056fea2646970667358221220ae6ff02ce239f077fbd20580050b94537878428772a4bb814d98736a75f49a1564736f6c63430008000033",
  "immutableReferences": {},
  "source": "// SPDX-License-Identifier: MIT\npragma solidity >=0.8.0 <0.9.0;\n//pragma experimental ABIEncoderV2; // Two level dynamic arrays support\n\nimport \"@openzeppelin/contracts/access/Ownable.sol\";\nimport \"@openzeppelin/contracts/security/Pausable.sol\";\nimport \"./Financable.sol\";\n\ncontract Todos is Ownable, Financable, Pausable{\n  /*\n   * Constant variables\n   */\n  \n  // Punishment period in seconds\n  uint constant PUNISHMENT_TIME = 30 days;\n\n  /*\n   * State variables\n   */\n\n  struct Task {\n    string description;\n    uint createdAt;\n    uint value;\n    uint dueDate;\n    bool completed;\n    bool cleared;\n  }\n\n  // Tasks\n  mapping (address => Task[]) public tasks;\n\n  /* \n   * Events\n   */\n\n  // Task added event\n  event LogAdd (address userAddress, uint taskID); // TODO\n\n  /* \n   * Modifiers\n   */\n\n  modifier validDueDate (uint _date) {\n    require(_date > block.timestamp);\n    _;\n  }\n\n  // If task has not any prize locked in it\n  modifier notPrized (uint _id) {\n    require(!hasPrize(_id));\n    _;\n  }\n\n  modifier completed (uint _id) {\n    require(getTask(_id).completed);\n    _;\n  }\n\n  modifier incomplete (uint _id) {\n    require(!getTask(_id).completed);\n    _;\n  }\n\n  modifier dueIsSet (uint _id) {\n    require(getTask(_id).dueDate != 0);\n    _;\n  }\n\n\n\n  /* \n   * Functions\n   */\n\n  // Add task\n  function add(string memory _description, uint _dueDate) public {\n    Task memory task = Task({\n      description: _description,\n      createdAt: block.timestamp,\n      value: 0,\n      dueDate: _dueDate,\n      completed: false,\n      cleared: true\n    });\n    tasks[msg.sender].push(task);\n  }\n\n\n  // Update task\n  function update(uint _id, string memory _description, uint _dueDate)\n  public notPrized(_id) {\n    Task memory task = tasks[msg.sender][_id];\n    task.description = _description;\n    task.dueDate = _dueDate;\n    replace(_id, task);\n  }\n\n  // Remove task\n  function remove(uint _id) public notPrized(_id) {\n    require(_id < tasks[msg.sender].length);\n\n    tasks[msg.sender][_id] = tasks[msg.sender][tasks[msg.sender].length - 1];\n    tasks[msg.sender].pop();\n  }\n  \n\n  // Set complete\n  function setComplete(uint _id) public incomplete(_id) {\n    Task memory task = getTask(_id);\n    if (!hasPrize(_id) || !isExpired(_id)) {\n      task.completed = true;\n      replace(_id, task);\n    }\n    if (hasPrize(_id) && !task.cleared) {\n      if (!isPunishing(_id)) {\n        task.cleared = true;\n        task.completed = true;\n        replace(_id, task);\n        addPrize(msg.sender, task.value);\n      }\n    }\n  }\n\n  // Set incomplete\n  function setIncomplete(uint _id) public completed(_id) notPrized(_id) {\n    Task memory task = getTask(_id);\n    task.completed = false;\n    replace(_id, task);\n  }\n\n  // Has prize locked in it\n  function hasPrize(uint _id) internal view returns (bool) {\n    Task memory task = getTask(_id);\n    if (task.value == 0)\n      return false;\n    return !task.cleared;\n  }\n\n  // Clear a task\n  function clear(uint _id) public returns (bool) {\n    Task memory task = getTask(_id);\n    if(hasPrize(_id) || isPunishing(_id)) {\n      return false;\n    }\n    if(isPunishmentOver(_id)) {\n      task.cleared = true;\n      payUser(task.value);\n      replace(_id, task);\n      return true;\n    }\n    return false;\n  }\n\n  // Set prize\n  function setPrize(uint _id) public payable dueIsSet(_id) {\n    Task memory task = getTask(_id);\n    require(task.value == 0);\n    require(!isExpired(_id));\n    require(task.cleared);\n\n    task.value = msg.value;\n    task.cleared = false;\n\n    replace(_id, task);\n  }\n\n  // Is in punishment period\n  function isPunishing(uint _id) public view returns (bool) {\n    if (!hasPrize(_id)) {\n      return false;\n    }\n    if (!!isExpired(_id)) {\n      return false;\n    }\n    return !isPunishmentOver(_id);\n  }\n\n  // Is punishment period over\n  function isPunishmentOver(uint _id) private view returns (bool){\n    Task memory task = getTask(_id);\n    if (block.timestamp > task.dueDate + PUNISHMENT_TIME) {\n      return true;\n    }\n    return false;\n  }\n\n  // Is task overdue\n  function isExpired(uint _id) internal view returns (bool) {\n    Task memory task = getTask(_id);\n    if (task.dueDate == 0) {\n      return false;\n    }\n    return (task.dueDate < block.timestamp);\n  }\n\n  // Get current user tasks\n  function getTasks() public view returns(Task[] memory) {\n    return tasks[msg.sender];\n  }\n\n  // Get task\n  function getTask(uint _id) public view returns(Task memory) {\n    require(tasks[msg.sender].length>_id);\n    return tasks[msg.sender][_id];\n  }\n\n\n  // Replace task\n  function replace(uint _id, Task memory _task) internal {\n    tasks[msg.sender][_id] = _task;\n  }\n\n  // Pause and Unpause contract\n  function pause() public onlyOwner() {\n    _pause();\n  }\n  function unpause() public onlyOwner() {\n    _unpause();\n  }\n\n}\n",
  "sourcePath": "/home/ubuntu/todo-list-dapp/blockchain/contracts/Todos.sol",
  "compiler": {
    "name": "solc",
    "version": "0.8.0+commit.c7dfd78e.Emscripten.clang"
  },
  "schemaVersion": "3.4.3",
  "updatedAt": "2021-09-17T22:29:38.710Z",
  "networkType": "ethereum",
  "devdoc": {
    "kind": "dev",
    "methods": {
      "owner()": {
        "details": "Returns the address of the current owner."
      },
      "paused()": {
        "details": "Returns true if the contract is paused, and false otherwise."
      },
      "renounceOwnership()": {
        "details": "Leaves the contract without owner. It will not be possible to call `onlyOwner` functions anymore. Can only be called by the current owner. NOTE: Renouncing ownership will leave the contract without an owner, thereby removing any functionality that is only available to the owner."
      },
      "transferOwnership(address)": {
        "details": "Transfers ownership of the contract to a new account (`newOwner`). Can only be called by the current owner."
      }
    },
    "version": 1
  },
  "userdoc": {
    "kind": "user",
    "methods": {},
    "version": 1
  }
}