{
  "contractName": "Todos",
  "abi": [
    {
      "anonymous": false,
      "inputs": [],
      "name": "LogTasksUpdated",
      "type": "event"
    },
    {
      "anonymous": false,
      "inputs": [
        {
          "indexed": true,
          "internalType": "address",
          "name": "previousOwner",
          "type": "address"
        },
        {
          "indexed": true,
          "internalType": "address",
          "name": "newOwner",
          "type": "address"
        }
      ],
      "name": "OwnershipTransferred",
      "type": "event"
    },
    {
      "anonymous": false,
      "inputs": [
        {
          "indexed": false,
          "internalType": "address",
          "name": "account",
          "type": "address"
        }
      ],
      "name": "Paused",
      "type": "event"
    },
    {
      "anonymous": false,
      "inputs": [
        {
          "indexed": false,
          "internalType": "address",
          "name": "account",
          "type": "address"
        }
      ],
      "name": "Unpaused",
      "type": "event"
    },
    {
      "stateMutability": "payable",
      "type": "fallback",
      "payable": true
    },
    {
      "inputs": [],
      "name": "PUNISHMENT_TIME",
      "outputs": [
        {
          "internalType": "uint256",
          "name": "",
          "type": "uint256"
        }
      ],
      "stateMutability": "view",
      "type": "function",
      "constant": true
    },
    {
      "inputs": [],
      "name": "getPrize",
      "outputs": [
        {
          "internalType": "uint256",
          "name": "",
          "type": "uint256"
        }
      ],
      "stateMutability": "view",
      "type": "function",
      "constant": true
    },
    {
      "inputs": [],
      "name": "owner",
      "outputs": [
        {
          "internalType": "address",
          "name": "",
          "type": "address"
        }
      ],
      "stateMutability": "view",
      "type": "function",
      "constant": true
    },
    {
      "inputs": [],
      "name": "paused",
      "outputs": [
        {
          "internalType": "bool",
          "name": "",
          "type": "bool"
        }
      ],
      "stateMutability": "view",
      "type": "function",
      "constant": true
    },
    {
      "inputs": [
        {
          "internalType": "address",
          "name": "",
          "type": "address"
        }
      ],
      "name": "prizes",
      "outputs": [
        {
          "internalType": "uint256",
          "name": "",
          "type": "uint256"
        }
      ],
      "stateMutability": "view",
      "type": "function",
      "constant": true
    },
    {
      "inputs": [],
      "name": "renounceOwnership",
      "outputs": [],
      "stateMutability": "nonpayable",
      "type": "function"
    },
    {
      "inputs": [
        {
          "internalType": "address",
          "name": "",
          "type": "address"
        },
        {
          "internalType": "uint256",
          "name": "",
          "type": "uint256"
        }
      ],
      "name": "tasks",
      "outputs": [
        {
          "internalType": "string",
          "name": "description",
          "type": "string"
        },
        {
          "internalType": "uint256",
          "name": "createdAt",
          "type": "uint256"
        },
        {
          "internalType": "uint256",
          "name": "value",
          "type": "uint256"
        },
        {
          "internalType": "uint256",
          "name": "dueDate",
          "type": "uint256"
        },
        {
          "internalType": "bool",
          "name": "completed",
          "type": "bool"
        },
        {
          "internalType": "bool",
          "name": "cleared",
          "type": "bool"
        }
      ],
      "stateMutability": "view",
      "type": "function",
      "constant": true
    },
    {
      "inputs": [
        {
          "internalType": "address",
          "name": "newOwner",
          "type": "address"
        }
      ],
      "name": "transferOwnership",
      "outputs": [],
      "stateMutability": "nonpayable",
      "type": "function"
    },
    {
      "inputs": [
        {
          "internalType": "uint256",
          "name": "withdrawAmount",
          "type": "uint256"
        }
      ],
      "name": "withdrawPrize",
      "outputs": [
        {
          "internalType": "uint256",
          "name": "",
          "type": "uint256"
        }
      ],
      "stateMutability": "nonpayable",
      "type": "function"
    },
    {
      "stateMutability": "payable",
      "type": "receive",
      "payable": true
    },
    {
      "inputs": [],
      "name": "getTasks",
      "outputs": [
        {
          "components": [
            {
              "internalType": "string",
              "name": "description",
              "type": "string"
            },
            {
              "internalType": "uint256",
              "name": "createdAt",
              "type": "uint256"
            },
            {
              "internalType": "uint256",
              "name": "value",
              "type": "uint256"
            },
            {
              "internalType": "uint256",
              "name": "dueDate",
              "type": "uint256"
            },
            {
              "internalType": "bool",
              "name": "completed",
              "type": "bool"
            },
            {
              "internalType": "bool",
              "name": "cleared",
              "type": "bool"
            }
          ],
          "internalType": "struct TaskFactory.Task[]",
          "name": "",
          "type": "tuple[]"
        }
      ],
      "stateMutability": "view",
      "type": "function",
      "constant": true
    },
    {
      "inputs": [
        {
          "internalType": "string",
          "name": "_description",
          "type": "string"
        },
        {
          "internalType": "uint256",
          "name": "_dueDate",
          "type": "uint256"
        }
      ],
      "name": "add",
      "outputs": [],
      "stateMutability": "nonpayable",
      "type": "function"
    },
    {
      "inputs": [
        {
          "internalType": "uint256",
          "name": "_id",
          "type": "uint256"
        }
      ],
      "name": "setComplete",
      "outputs": [],
      "stateMutability": "nonpayable",
      "type": "function"
    },
    {
      "inputs": [
        {
          "internalType": "uint256",
          "name": "_id",
          "type": "uint256"
        }
      ],
      "name": "remove",
      "outputs": [],
      "stateMutability": "nonpayable",
      "type": "function"
    },
    {
      "inputs": [
        {
          "internalType": "uint256",
          "name": "_id",
          "type": "uint256"
        }
      ],
      "name": "setPrize",
      "outputs": [],
      "stateMutability": "payable",
      "type": "function",
      "payable": true
    },
    {
      "inputs": [
        {
          "internalType": "uint256",
          "name": "_id",
          "type": "uint256"
        }
      ],
      "name": "clear",
      "outputs": [],
      "stateMutability": "nonpayable",
      "type": "function"
    },
    {
      "inputs": [],
      "name": "pause",
      "outputs": [],
      "stateMutability": "nonpayable",
      "type": "function"
    },
    {
      "inputs": [],
      "name": "unpause",
      "outputs": [],
      "stateMutability": "nonpayable",
      "type": "function"
    }
  ],
  "bytecode": "0x60806040523480156200001157600080fd5b5062000032620000266200005360201b60201c565b6200005b60201b60201c565b6000600160146101000a81548160ff02191690831515021790555062000121565b600033905090565b6000600160009054906101000a900473ffffffffffffffffffffffffffffffffffffffff16905081600160006101000a81548173ffffffffffffffffffffffffffffffffffffffff021916908373ffffffffffffffffffffffffffffffffffffffff1602179055508173ffffffffffffffffffffffffffffffffffffffff168173ffffffffffffffffffffffffffffffffffffffff167f8be0079c531659141344cd1fd0a4f28419497f9722a3daafe3b4186f6b6457e060405160405180910390a35050565b6125a980620001316000396000f3fe6080604052600436106101025760003560e01c80638456cb5911610095578063b35d11bf11610064578063b35d11bf146102db578063c0fe1af814610318578063c20eec7b14610341578063c34f6b0d1461037e578063f2fde38b146103a95761010c565b80638456cb591461024557806389e8491f1461025c5780638ced8132146102855780638da5cb5b146102b05761010c565b80635c975abb116100d15780635c975abb146101a55780636ca7f3ba146101d05780637149d2e4146101ec578063715018a61461022e5761010c565b806304a87e381461011157806336555b851461013c5780633f4ba83a146101655780634cc822151461017c5761010c565b3661010c57600080fd5b600080fd5b34801561011d57600080fd5b506101266103d2565b60405161013391906120ba565b60405180910390f35b34801561014857600080fd5b50610163600480360381019061015e9190611bed565b6103e1565b005b34801561017157600080fd5b5061017a6103ef565b005b34801561018857600080fd5b506101a3600480360381019061019e9190611c41565b610475565b005b3480156101b157600080fd5b506101ba610481565b6040516101c791906120dc565b60405180910390f35b6101ea60048036038101906101e59190611c41565b610498565b005b3480156101f857600080fd5b50610213600480360381019061020e9190611bb1565b6104a4565b604051610225969594939291906120f7565b60405180910390f35b34801561023a57600080fd5b5061024361059f565b005b34801561025157600080fd5b5061025a610627565b005b34801561026857600080fd5b50610283600480360381019061027e9190611c41565b6106ad565b005b34801561029157600080fd5b5061029a6106b9565b6040516102a7919061227f565b60405180910390f35b3480156102bc57600080fd5b506102c56106be565b6040516102d2919061209f565b60405180910390f35b3480156102e757600080fd5b5061030260048036038101906102fd9190611b88565b6106e8565b60405161030f919061227f565b60405180910390f35b34801561032457600080fd5b5061033f600480360381019061033a9190611c41565b610700565b005b34801561034d57600080fd5b5061036860048036038101906103639190611c41565b61070c565b604051610375919061227f565b60405180910390f35b34801561038a57600080fd5b506103936107cd565b6040516103a0919061227f565b60405180910390f35b3480156103b557600080fd5b506103d060048036038101906103cb9190611b88565b610813565b005b60606103dc61090b565b905090565b6103eb8282610a8d565b5050565b6103f7610bf5565b73ffffffffffffffffffffffffffffffffffffffff166104156106be565b73ffffffffffffffffffffffffffffffffffffffff161461046b576040517f08c379a00000000000000000000000000000000000000000000000000000000081526004016104629061221f565b60405180910390fd5b610473610bfd565b565b61047e81610c9f565b50565b6000600160149054906101000a900460ff16905090565b6104a181611002565b50565b600260205281600052604060002081815481106104c057600080fd5b9060005260206000209060050201600091509150508060000180546104e490612475565b80601f016020809104026020016040519081016040528092919081815260200182805461051090612475565b801561055d5780601f106105325761010080835404028352916020019161055d565b820191906000526020600020905b81548152906001019060200180831161054057829003601f168201915b5050505050908060010154908060020154908060030154908060040160009054906101000a900460ff16908060040160019054906101000a900460ff16905086565b6105a7610bf5565b73ffffffffffffffffffffffffffffffffffffffff166105c56106be565b73ffffffffffffffffffffffffffffffffffffffff161461061b576040517f08c379a00000000000000000000000000000000000000000000000000000000081526004016106129061221f565b60405180910390fd5b61062560006110f5565b565b61062f610bf5565b73ffffffffffffffffffffffffffffffffffffffff1661064d6106be565b73ffffffffffffffffffffffffffffffffffffffff16146106a3576040517f08c379a000000000000000000000000000000000000000000000000000000000815260040161069a9061221f565b60405180910390fd5b6106ab6111bb565b565b6106b68161125d565b50565b603c81565b6000600160009054906101000a900473ffffffffffffffffffffffffffffffffffffffff16905090565b60006020528060005260406000206000915090505481565b6107098161136c565b50565b6000816107176107cd565b101561072257600080fd5b816000803373ffffffffffffffffffffffffffffffffffffffff1673ffffffffffffffffffffffffffffffffffffffff168152602001908152602001600020600082825461077091906123b7565b925050819055503373ffffffffffffffffffffffffffffffffffffffff166108fc839081150290604051600060405180830381858888f193505050501580156107bd573d6000803e3d6000fd5b506107c66107cd565b9050919050565b60008060003373ffffffffffffffffffffffffffffffffffffffff1673ffffffffffffffffffffffffffffffffffffffff16815260200190815260200160002054905090565b61081b610bf5565b73ffffffffffffffffffffffffffffffffffffffff166108396106be565b73ffffffffffffffffffffffffffffffffffffffff161461088f576040517f08c379a00000000000000000000000000000000000000000000000000000000081526004016108869061221f565b60405180910390fd5b600073ffffffffffffffffffffffffffffffffffffffff168173ffffffffffffffffffffffffffffffffffffffff1614156108ff576040517f08c379a00000000000000000000000000000000000000000000000000000000081526004016108f6906121bf565b60405180910390fd5b610908816110f5565b50565b6060600260003373ffffffffffffffffffffffffffffffffffffffff1673ffffffffffffffffffffffffffffffffffffffff168152602001908152602001600020805480602002602001604051908101604052809291908181526020016000905b82821015610a8457838290600052602060002090600502016040518060c001604052908160008201805461099f90612475565b80601f01602080910402602001604051908101604052809291908181526020018280546109cb90612475565b8015610a185780601f106109ed57610100808354040283529160200191610a18565b820191906000526020600020905b8154815290600101906020018083116109fb57829003601f168201915b505050505081526020016001820154815260200160028201548152602001600382015481526020016004820160009054906101000a900460ff161515151581526020016004820160019054906101000a900460ff1615151515815250508152602001906001019061096c565b50505050905090565b806000811480610a9c57504281115b610aa557600080fd5b60006040518060c0016040528085815260200142815260200160008152602001848152602001600015158152602001600115158152509050600260003373ffffffffffffffffffffffffffffffffffffffff1673ffffffffffffffffffffffffffffffffffffffff1681526020019081526020016000208190806001815401808255809150506001900390600052602060002090600502016000909190919091506000820151816000019080519060200190610b6292919061194c565b5060208201518160010155604082015181600201556060820151816003015560808201518160040160006101000a81548160ff02191690831515021790555060a08201518160040160016101000a81548160ff02191690831515021790555050507ff1d942a3aa0252ca9653f82dac1b78fedc485a12a7f7ce983e614d3914e7114560405160405180910390a150505050565b600033905090565b610c05610481565b610c44576040517f08c379a0000000000000000000000000000000000000000000000000000000008152600401610c3b9061219f565b60405180910390fd5b6000600160146101000a81548160ff0219169083151502179055507f5db9ee0a495bf2e6ff9c91a7834c1ba4fdd244a5e8aa4e537bd38aeae4b073aa610c88610bf5565b604051610c95919061209f565b60405180910390a1565b80610ca98161147e565b15610cb357600080fd5b600260003373ffffffffffffffffffffffffffffffffffffffff1673ffffffffffffffffffffffffffffffffffffffff168152602001908152602001600020805490508210610d0157600080fd5b600260003373ffffffffffffffffffffffffffffffffffffffff1673ffffffffffffffffffffffffffffffffffffffff1681526020019081526020016000206001600260003373ffffffffffffffffffffffffffffffffffffffff1673ffffffffffffffffffffffffffffffffffffffff16815260200190815260200160002080549050610d8f91906123b7565b81548110610dc6577f4e487b7100000000000000000000000000000000000000000000000000000000600052603260045260246000fd5b9060005260206000209060050201600260003373ffffffffffffffffffffffffffffffffffffffff1673ffffffffffffffffffffffffffffffffffffffff1681526020019081526020016000208381548110610e4b577f4e487b7100000000000000000000000000000000000000000000000000000000600052603260045260246000fd5b90600052602060002090600502016000820181600001908054610e6d90612475565b610e789291906119d2565b506001820154816001015560028201548160020155600382015481600301556004820160009054906101000a900460ff168160040160006101000a81548160ff0219169083151502179055506004820160019054906101000a900460ff168160040160016101000a81548160ff021916908315150217905550905050600260003373ffffffffffffffffffffffffffffffffffffffff1673ffffffffffffffffffffffffffffffffffffffff168152602001908152602001600020805480610f69577f4e487b7100000000000000000000000000000000000000000000000000000000600052603160045260246000fd5b600190038181906000526020600020906005020160008082016000610f8e9190611a5f565b6001820160009055600282016000905560038201600090556004820160006101000a81549060ff02191690556004820160016101000a81549060ff0219169055505090557ff1d942a3aa0252ca9653f82dac1b78fedc485a12a7f7ce983e614d3914e7114560405160405180910390a15050565b80600061100e826114b2565b60600151141561101d57600080fd5b611025610481565b15611065576040517f08c379a000000000000000000000000000000000000000000000000000000000815260040161105c906121ff565b60405180910390fd5b8161106f816114b2565b608001511561107d57600080fd5b6000611088846114b2565b9050600081604001511461109b57600080fd5b6110a484611685565b156110ae57600080fd5b8060a001516110bc57600080fd5b60003414156110ca57600080fd5b3481604001818152505060008160a00190151590811515815250506110ef84826116ba565b50505050565b6000600160009054906101000a900473ffffffffffffffffffffffffffffffffffffffff16905081600160006101000a81548173ffffffffffffffffffffffffffffffffffffffff021916908373ffffffffffffffffffffffffffffffffffffffff1602179055508173ffffffffffffffffffffffffffffffffffffffff168173ffffffffffffffffffffffffffffffffffffffff167f8be0079c531659141344cd1fd0a4f28419497f9722a3daafe3b4186f6b6457e060405160405180910390a35050565b6111c3610481565b15611203576040517f08c379a00000000000000000000000000000000000000000000000000000000081526004016111fa906121ff565b60405180910390fd5b60018060146101000a81548160ff0219169083151502179055507f62e78cea01bee320cd4e420270b5ea74000d11b0c9f74754ebdbfc544b05a258611246610bf5565b604051611253919061209f565b60405180910390a1565b80611267816114b2565b608001511561127557600080fd5b61127e82611685565b156112be576040517f08c379a00000000000000000000000000000000000000000000000000000000081526004016112b59061225f565b60405180910390fd5b6112c7826117ee565b15611307576040517f08c379a00000000000000000000000000000000000000000000000000000000081526004016112fe906121df565b60405180910390fd5b6000611312836114b2565b905060018160800190151590811515815250508060a0015161135c5760018160a001901515908115158152505061134983826116ba565b61135733826040015161182e565b611367565b61136683826116ba565b5b505050565b6000611377826114b2565b90506113828261147e565b6113c1576040517f08c379a00000000000000000000000000000000000000000000000000000000081526004016113b89061223f565b60405180910390fd5b6113ca826117ee565b1561140a576040517f08c379a00000000000000000000000000000000000000000000000000000000081526004016114019061215f565b60405180910390fd5b611413826118c7565b611452576040517f08c379a00000000000000000000000000000000000000000000000000000000081526004016114499061217f565b60405180910390fd5b60018160a00190151590811515815250506114708160400151611902565b61147a82826116ba565b5050565b60008061148a836114b2565b90506000816040015114156114a35760009150506114ad565b8060a00151159150505b919050565b6114ba611a9f565b81600260003373ffffffffffffffffffffffffffffffffffffffff1673ffffffffffffffffffffffffffffffffffffffff168152602001908152602001600020805490501161150857600080fd5b600260003373ffffffffffffffffffffffffffffffffffffffff1673ffffffffffffffffffffffffffffffffffffffff168152602001908152602001600020828154811061157f577f4e487b7100000000000000000000000000000000000000000000000000000000600052603260045260246000fd5b90600052602060002090600502016040518060c00160405290816000820180546115a890612475565b80601f01602080910402602001604051908101604052809291908181526020018280546115d490612475565b80156116215780601f106115f657610100808354040283529160200191611621565b820191906000526020600020905b81548152906001019060200180831161160457829003601f168201915b505050505081526020016001820154815260200160028201548152602001600382015481526020016004820160009054906101000a900460ff161515151581526020016004820160019054906101000a900460ff1615151515815250509050919050565b600080611691836114b2565b90506000816060015114156116aa5760009150506116b5565b428160600151109150505b919050565b80600260003373ffffffffffffffffffffffffffffffffffffffff1673ffffffffffffffffffffffffffffffffffffffff1681526020019081526020016000208381548110611732577f4e487b7100000000000000000000000000000000000000000000000000000000600052603260045260246000fd5b9060005260206000209060050201600082015181600001908051906020019061175c92919061194c565b5060208201518160010155604082015181600201556060820151816003015560808201518160040160006101000a81548160ff02191690831515021790555060a08201518160040160016101000a81548160ff0219169083151502179055509050507ff1d942a3aa0252ca9653f82dac1b78fedc485a12a7f7ce983e614d3914e7114560405160405180910390a15050565b60006117f98261147e565b6118065760009050611829565b61180f82611685565b61181c5760009050611829565b611825826118c7565b1590505b919050565b60008060008473ffffffffffffffffffffffffffffffffffffffff1673ffffffffffffffffffffffffffffffffffffffff168152602001908152602001600020549050818161187d9190612361565b9050806000808573ffffffffffffffffffffffffffffffffffffffff1673ffffffffffffffffffffffffffffffffffffffff16815260200190815260200160002081905550505050565b6000806118d3836114b2565b9050603c81606001516118e69190612361565b4211156118f75760019150506118fd565b60009150505b919050565b3373ffffffffffffffffffffffffffffffffffffffff166108fc829081150290604051600060405180830381858888f19350505050158015611948573d6000803e3d6000fd5b5050565b82805461195890612475565b90600052602060002090601f01602090048101928261197a57600085556119c1565b82601f1061199357805160ff19168380011785556119c1565b828001600101855582156119c1579182015b828111156119c05782518255916020019190600101906119a5565b5b5090506119ce9190611ad9565b5090565b8280546119de90612475565b90600052602060002090601f016020900481019282611a005760008555611a4e565b82601f10611a115780548555611a4e565b82800160010185558215611a4e57600052602060002091601f016020900482015b82811115611a4d578254825591600101919060010190611a32565b5b509050611a5b9190611ad9565b5090565b508054611a6b90612475565b6000825580601f10611a7d5750611a9c565b601f016020900490600052602060002090810190611a9b9190611ad9565b5b50565b6040518060c00160405280606081526020016000815260200160008152602001600081526020016000151581526020016000151581525090565b5b80821115611af2576000816000905550600101611ada565b5090565b6000611b09611b04846122cb565b61229a565b905082815260208101848484011115611b2157600080fd5b611b2c848285612433565b509392505050565b600081359050611b4381612545565b92915050565b600082601f830112611b5a57600080fd5b8135611b6a848260208601611af6565b91505092915050565b600081359050611b828161255c565b92915050565b600060208284031215611b9a57600080fd5b6000611ba884828501611b34565b91505092915050565b60008060408385031215611bc457600080fd5b6000611bd285828601611b34565b9250506020611be385828601611b73565b9150509250929050565b60008060408385031215611c0057600080fd5b600083013567ffffffffffffffff811115611c1a57600080fd5b611c2685828601611b49565b9250506020611c3785828601611b73565b9150509250929050565b600060208284031215611c5357600080fd5b6000611c6184828501611b73565b91505092915050565b6000611c768383611ff8565b905092915050565b611c87816123eb565b82525050565b6000611c988261230b565b611ca2818561232e565b935083602082028501611cb4856122fb565b8060005b85811015611cf05784840389528151611cd18582611c6a565b9450611cdc83612321565b925060208a01995050600181019050611cb8565b50829750879550505050505092915050565b611d0b816123fd565b82525050565b611d1a816123fd565b82525050565b6000611d2b82612316565b611d35818561233f565b9350611d45818560208601612442565b611d4e81612534565b840191505092915050565b6000611d6482612316565b611d6e8185612350565b9350611d7e818560208601612442565b611d8781612534565b840191505092915050565b6000611d9f601983612350565b91507f5461736b20697320756e6465722070756e6973686d656e7421000000000000006000830152602082019050919050565b6000611ddf601683612350565b91507f50756e6973686d656e74206973206e6f74206f766572000000000000000000006000830152602082019050919050565b6000611e1f601483612350565b91507f5061757361626c653a206e6f74207061757365640000000000000000000000006000830152602082019050919050565b6000611e5f602683612350565b91507f4f776e61626c653a206e6577206f776e657220697320746865207a65726f206160008301527f64647265737300000000000000000000000000000000000000000000000000006020830152604082019050919050565b6000611ec5601883612350565b91507f7461736b20697320756e6465722070756e6973686d656e7400000000000000006000830152602082019050919050565b6000611f05601083612350565b91507f5061757361626c653a20706175736564000000000000000000000000000000006000830152602082019050919050565b6000611f45602083612350565b91507f4f776e61626c653a2063616c6c6572206973206e6f7420746865206f776e65726000830152602082019050919050565b6000611f85601383612350565b91507f446f6e277420686176652061207072697a6521000000000000000000000000006000830152602082019050919050565b6000611fc5601383612350565b91507f64756520646174652069732065787069726564000000000000000000000000006000830152602082019050919050565b600060c08301600083015184820360008601526120158282611d20565b915050602083015161202a6020860182612081565b50604083015161203d6040860182612081565b5060608301516120506060860182612081565b5060808301516120636080860182611d02565b5060a083015161207660a0860182611d02565b508091505092915050565b61208a81612429565b82525050565b61209981612429565b82525050565b60006020820190506120b46000830184611c7e565b92915050565b600060208201905081810360008301526120d48184611c8d565b905092915050565b60006020820190506120f16000830184611d11565b92915050565b600060c08201905081810360008301526121118189611d59565b90506121206020830188612090565b61212d6040830187612090565b61213a6060830186612090565b6121476080830185611d11565b61215460a0830184611d11565b979650505050505050565b6000602082019050818103600083015261217881611d92565b9050919050565b6000602082019050818103600083015261219881611dd2565b9050919050565b600060208201905081810360008301526121b881611e12565b9050919050565b600060208201905081810360008301526121d881611e52565b9050919050565b600060208201905081810360008301526121f881611eb8565b9050919050565b6000602082019050818103600083015261221881611ef8565b9050919050565b6000602082019050818103600083015261223881611f38565b9050919050565b6000602082019050818103600083015261225881611f78565b9050919050565b6000602082019050818103600083015261227881611fb8565b9050919050565b60006020820190506122946000830184612090565b92915050565b6000604051905081810181811067ffffffffffffffff821117156122c1576122c0612505565b5b8060405250919050565b600067ffffffffffffffff8211156122e6576122e5612505565b5b601f19601f8301169050602081019050919050565b6000819050602082019050919050565b600081519050919050565b600081519050919050565b6000602082019050919050565b600082825260208201905092915050565b600082825260208201905092915050565b600082825260208201905092915050565b600061236c82612429565b915061237783612429565b9250827fffffffffffffffffffffffffffffffffffffffffffffffffffffffffffffffff038211156123ac576123ab6124a7565b5b828201905092915050565b60006123c282612429565b91506123cd83612429565b9250828210156123e0576123df6124a7565b5b828203905092915050565b60006123f682612409565b9050919050565b60008115159050919050565b600073ffffffffffffffffffffffffffffffffffffffff82169050919050565b6000819050919050565b82818337600083830152505050565b60005b83811015612460578082015181840152602081019050612445565b8381111561246f576000848401525b50505050565b6000600282049050600182168061248d57607f821691505b602082108114156124a1576124a06124d6565b5b50919050565b7f4e487b7100000000000000000000000000000000000000000000000000000000600052601160045260246000fd5b7f4e487b7100000000000000000000000000000000000000000000000000000000600052602260045260246000fd5b7f4e487b7100000000000000000000000000000000000000000000000000000000600052604160045260246000fd5b6000601f19601f8301169050919050565b61254e816123eb565b811461255957600080fd5b50565b61256581612429565b811461257057600080fd5b5056fea2646970667358221220f5342c3b40e23551aa995f17d9249ce36032bca6a8632071893452e0554b9b0364736f6c63430008000033",
  "immutableReferences": {},
  "source": "// SPDX-License-Identifier: MIT\npragma solidity >=0.8.0 <0.9.0;\n//pragma experimental ABIEncoderV2; // Two level dynamic arrays support\n\nimport \"@openzeppelin/contracts/access/Ownable.sol\";\nimport \"./TaskFactory.sol\";\n\ncontract Todos is Ownable, TaskFactory{\n\n  // Get user's all tasks\n  function getTasks() public view returns (Task[] memory) {\n    return _getTasks();\n  }\n  \n  // Add a new task\n  function add(string memory _description, uint _dueDate) public {\n    _add(_description, _dueDate);\n  }\n\n  // Update a task TODO\n\n  // Set a task as completed\n  function setComplete(uint _id) public {\n    _setComplete(_id);\n  }\n\n  // Remove a task\n  function remove(uint _id) public {\n    _remove(_id);\n  }\n\n  // Add prize to a task\n  function setPrize(uint _id) public payable {\n    _setPrize(_id);\n  }\n\n  // Clear a task\n  function clear(uint _id) public {\n    _clear(_id);\n  }\n  \n\n  // Pause contract deposits\n  function pause() public onlyOwner() {\n    _pause();\n  }\n\n  // Unpause contract deposits\n  function unpause() public onlyOwner() {\n    _unpause();\n  }\n\n}\n",
  "sourcePath": "/home/ubuntu/todo-list-dapp/blockchain/contracts/Todos.sol",
  "compiler": {
    "name": "solc",
    "version": "0.8.0+commit.c7dfd78e.Emscripten.clang"
  },
  "schemaVersion": "3.4.3",
  "updatedAt": "2021-09-26T22:41:23.968Z",
  "networkType": "ethereum",
  "devdoc": {
    "kind": "dev",
    "methods": {
      "owner()": {
        "details": "Returns the address of the current owner."
      },
      "paused()": {
        "details": "Returns true if the contract is paused, and false otherwise."
      },
      "renounceOwnership()": {
        "details": "Leaves the contract without owner. It will not be possible to call `onlyOwner` functions anymore. Can only be called by the current owner. NOTE: Renouncing ownership will leave the contract without an owner, thereby removing any functionality that is only available to the owner."
      },
      "transferOwnership(address)": {
        "details": "Transfers ownership of the contract to a new account (`newOwner`). Can only be called by the current owner."
      }
    },
    "version": 1
  },
  "userdoc": {
    "kind": "user",
    "methods": {},
    "version": 1
  }
}