{
  "contractName": "Todos",
  "abi": [
    {
      "anonymous": false,
      "inputs": [
        {
          "indexed": false,
          "internalType": "address",
          "name": "userAddress",
          "type": "address"
        },
        {
          "indexed": false,
          "internalType": "uint256",
          "name": "taskID",
          "type": "uint256"
        }
      ],
      "name": "LogAdd",
      "type": "event"
    },
    {
      "anonymous": false,
      "inputs": [
        {
          "indexed": true,
          "internalType": "address",
          "name": "previousOwner",
          "type": "address"
        },
        {
          "indexed": true,
          "internalType": "address",
          "name": "newOwner",
          "type": "address"
        }
      ],
      "name": "OwnershipTransferred",
      "type": "event"
    },
    {
      "anonymous": false,
      "inputs": [
        {
          "indexed": false,
          "internalType": "address",
          "name": "account",
          "type": "address"
        }
      ],
      "name": "Paused",
      "type": "event"
    },
    {
      "anonymous": false,
      "inputs": [
        {
          "indexed": false,
          "internalType": "address",
          "name": "account",
          "type": "address"
        }
      ],
      "name": "Unpaused",
      "type": "event"
    },
    {
      "stateMutability": "payable",
      "type": "fallback",
      "payable": true
    },
    {
      "inputs": [
        {
          "internalType": "uint256",
          "name": "_id",
          "type": "uint256"
        }
      ],
      "name": "clear",
      "outputs": [
        {
          "internalType": "bool",
          "name": "",
          "type": "bool"
        }
      ],
      "stateMutability": "nonpayable",
      "type": "function"
    },
    {
      "inputs": [],
      "name": "getPrize",
      "outputs": [
        {
          "internalType": "uint256",
          "name": "",
          "type": "uint256"
        }
      ],
      "stateMutability": "view",
      "type": "function",
      "constant": true
    },
    {
      "inputs": [
        {
          "internalType": "uint256",
          "name": "_id",
          "type": "uint256"
        }
      ],
      "name": "getTask",
      "outputs": [
        {
          "components": [
            {
              "internalType": "string",
              "name": "description",
              "type": "string"
            },
            {
              "internalType": "uint256",
              "name": "createdAt",
              "type": "uint256"
            },
            {
              "internalType": "uint256",
              "name": "value",
              "type": "uint256"
            },
            {
              "internalType": "uint256",
              "name": "dueDate",
              "type": "uint256"
            },
            {
              "internalType": "bool",
              "name": "completed",
              "type": "bool"
            },
            {
              "internalType": "bool",
              "name": "cleared",
              "type": "bool"
            }
          ],
          "internalType": "struct TaskFactory.Task",
          "name": "",
          "type": "tuple"
        }
      ],
      "stateMutability": "view",
      "type": "function",
      "constant": true
    },
    {
      "inputs": [],
      "name": "getTasks",
      "outputs": [
        {
          "components": [
            {
              "internalType": "string",
              "name": "description",
              "type": "string"
            },
            {
              "internalType": "uint256",
              "name": "createdAt",
              "type": "uint256"
            },
            {
              "internalType": "uint256",
              "name": "value",
              "type": "uint256"
            },
            {
              "internalType": "uint256",
              "name": "dueDate",
              "type": "uint256"
            },
            {
              "internalType": "bool",
              "name": "completed",
              "type": "bool"
            },
            {
              "internalType": "bool",
              "name": "cleared",
              "type": "bool"
            }
          ],
          "internalType": "struct TaskFactory.Task[]",
          "name": "",
          "type": "tuple[]"
        }
      ],
      "stateMutability": "view",
      "type": "function",
      "constant": true
    },
    {
      "inputs": [
        {
          "internalType": "uint256",
          "name": "_id",
          "type": "uint256"
        }
      ],
      "name": "isPunishing",
      "outputs": [
        {
          "internalType": "bool",
          "name": "",
          "type": "bool"
        }
      ],
      "stateMutability": "view",
      "type": "function",
      "constant": true
    },
    {
      "inputs": [],
      "name": "owner",
      "outputs": [
        {
          "internalType": "address",
          "name": "",
          "type": "address"
        }
      ],
      "stateMutability": "view",
      "type": "function",
      "constant": true
    },
    {
      "inputs": [],
      "name": "paused",
      "outputs": [
        {
          "internalType": "bool",
          "name": "",
          "type": "bool"
        }
      ],
      "stateMutability": "view",
      "type": "function",
      "constant": true
    },
    {
      "inputs": [
        {
          "internalType": "address",
          "name": "",
          "type": "address"
        }
      ],
      "name": "prizes",
      "outputs": [
        {
          "internalType": "uint256",
          "name": "",
          "type": "uint256"
        }
      ],
      "stateMutability": "view",
      "type": "function",
      "constant": true
    },
    {
      "inputs": [
        {
          "internalType": "uint256",
          "name": "_id",
          "type": "uint256"
        }
      ],
      "name": "remove",
      "outputs": [],
      "stateMutability": "nonpayable",
      "type": "function"
    },
    {
      "inputs": [],
      "name": "renounceOwnership",
      "outputs": [],
      "stateMutability": "nonpayable",
      "type": "function"
    },
    {
      "inputs": [
        {
          "internalType": "uint256",
          "name": "_id",
          "type": "uint256"
        }
      ],
      "name": "setComplete",
      "outputs": [],
      "stateMutability": "nonpayable",
      "type": "function"
    },
    {
      "inputs": [
        {
          "internalType": "uint256",
          "name": "_id",
          "type": "uint256"
        }
      ],
      "name": "setIncomplete",
      "outputs": [],
      "stateMutability": "nonpayable",
      "type": "function"
    },
    {
      "inputs": [
        {
          "internalType": "uint256",
          "name": "_id",
          "type": "uint256"
        }
      ],
      "name": "setPrize",
      "outputs": [],
      "stateMutability": "payable",
      "type": "function",
      "payable": true
    },
    {
      "inputs": [
        {
          "internalType": "address",
          "name": "",
          "type": "address"
        },
        {
          "internalType": "uint256",
          "name": "",
          "type": "uint256"
        }
      ],
      "name": "tasks",
      "outputs": [
        {
          "internalType": "string",
          "name": "description",
          "type": "string"
        },
        {
          "internalType": "uint256",
          "name": "createdAt",
          "type": "uint256"
        },
        {
          "internalType": "uint256",
          "name": "value",
          "type": "uint256"
        },
        {
          "internalType": "uint256",
          "name": "dueDate",
          "type": "uint256"
        },
        {
          "internalType": "bool",
          "name": "completed",
          "type": "bool"
        },
        {
          "internalType": "bool",
          "name": "cleared",
          "type": "bool"
        }
      ],
      "stateMutability": "view",
      "type": "function",
      "constant": true
    },
    {
      "inputs": [
        {
          "internalType": "address",
          "name": "newOwner",
          "type": "address"
        }
      ],
      "name": "transferOwnership",
      "outputs": [],
      "stateMutability": "nonpayable",
      "type": "function"
    },
    {
      "inputs": [
        {
          "internalType": "uint256",
          "name": "_id",
          "type": "uint256"
        },
        {
          "internalType": "string",
          "name": "_description",
          "type": "string"
        },
        {
          "internalType": "uint256",
          "name": "_dueDate",
          "type": "uint256"
        }
      ],
      "name": "update",
      "outputs": [],
      "stateMutability": "nonpayable",
      "type": "function"
    },
    {
      "inputs": [
        {
          "internalType": "uint256",
          "name": "withdrawAmount",
          "type": "uint256"
        }
      ],
      "name": "withdrawPrize",
      "outputs": [
        {
          "internalType": "uint256",
          "name": "",
          "type": "uint256"
        }
      ],
      "stateMutability": "nonpayable",
      "type": "function"
    },
    {
      "stateMutability": "payable",
      "type": "receive",
      "payable": true
    },
    {
      "inputs": [
        {
          "internalType": "string",
          "name": "_description",
          "type": "string"
        },
        {
          "internalType": "uint256",
          "name": "_dueDate",
          "type": "uint256"
        }
      ],
      "name": "add",
      "outputs": [],
      "stateMutability": "nonpayable",
      "type": "function"
    },
    {
      "inputs": [],
      "name": "pause",
      "outputs": [],
      "stateMutability": "nonpayable",
      "type": "function"
    },
    {
      "inputs": [],
      "name": "unpause",
      "outputs": [],
      "stateMutability": "nonpayable",
      "type": "function"
    }
  ],
  "bytecode": "0x60806040523480156200001157600080fd5b5062000032620000266200005360201b60201c565b6200005b60201b60201c565b6000600160146101000a81548160ff02191690831515021790555062000121565b600033905090565b6000600160009054906101000a900473ffffffffffffffffffffffffffffffffffffffff16905081600160006101000a81548173ffffffffffffffffffffffffffffffffffffffff021916908373ffffffffffffffffffffffffffffffffffffffff1602179055508173ffffffffffffffffffffffffffffffffffffffff168173ffffffffffffffffffffffffffffffffffffffff167f8be0079c531659141344cd1fd0a4f28419497f9722a3daafe3b4186f6b6457e060405160405180910390a35050565b6125e280620001316000396000f3fe6080604052600436106101235760003560e01c806389e8491f116100a0578063c0fe1af811610064578063c0fe1af8146103b1578063c20eec7b146103ee578063c34f6b0d1461042b578063e7a9d40614610456578063f2fde38b1461047f5761012d565b806389e8491f146102ba5780638da5cb5b146102e35780639ec06b8e1461030e578063ad841e071461034b578063b35d11bf146103745761012d565b80635c975abb116100e75780635c975abb146102035780636ca7f3ba1461022e5780637149d2e41461024a578063715018a61461028c5780638456cb59146102a35761012d565b806304a87e38146101325780631d65e77e1461015d57806336555b851461019a5780633f4ba83a146101c35780634cc82215146101da5761012d565b3661012d57600080fd5b600080fd5b34801561013e57600080fd5b506101476104a8565b6040516101549190612171565b60405180910390f35b34801561016957600080fd5b50610184600480360381019061017f9190611d48565b61062a565b6040516101919190612296565b60405180910390f35b3480156101a657600080fd5b506101c160048036038101906101bc9190611cf4565b6107fd565b005b3480156101cf57600080fd5b506101d861080b565b005b3480156101e657600080fd5b5061020160048036038101906101fc9190611d48565b610891565b005b34801561020f57600080fd5b50610218610bc8565b6040516102259190612193565b60405180910390f35b61024860048036038101906102439190611d48565b610bdf565b005b34801561025657600080fd5b50610271600480360381019061026c9190611cb8565b610cab565b604051610283969594939291906121ae565b60405180910390f35b34801561029857600080fd5b506102a1610da6565b005b3480156102af57600080fd5b506102b8610e2e565b005b3480156102c657600080fd5b506102e160048036038101906102dc9190611d48565b610eb4565b005b3480156102ef57600080fd5b506102f8610f7f565b6040516103059190612156565b60405180910390f35b34801561031a57600080fd5b5061033560048036038101906103309190611d48565b610fa9565b6040516103429190612193565b60405180910390f35b34801561035757600080fd5b50610372600480360381019061036d9190611d71565b610fea565b005b34801561038057600080fd5b5061039b60048036038101906103969190611c8f565b61119c565b6040516103a891906122b8565b60405180910390f35b3480156103bd57600080fd5b506103d860048036038101906103d39190611d48565b6111b4565b6040516103e59190612193565b60405180910390f35b3480156103fa57600080fd5b5061041560048036038101906104109190611d48565b611235565b60405161042291906122b8565b60405180910390f35b34801561043757600080fd5b506104406112f6565b60405161044d91906122b8565b60405180910390f35b34801561046257600080fd5b5061047d60048036038101906104789190611d48565b61133c565b005b34801561048b57600080fd5b506104a660048036038101906104a19190611c8f565b611395565b005b6060600260003373ffffffffffffffffffffffffffffffffffffffff1673ffffffffffffffffffffffffffffffffffffffff168152602001908152602001600020805480602002602001604051908101604052809291908181526020016000905b8282101561062157838290600052602060002090600502016040518060c001604052908160008201805461053c906124ae565b80601f0160208091040260200160405190810160405280929190818152602001828054610568906124ae565b80156105b55780601f1061058a576101008083540402835291602001916105b5565b820191906000526020600020905b81548152906001019060200180831161059857829003601f168201915b505050505081526020016001820154815260200160028201548152602001600382015481526020016004820160009054906101000a900460ff161515151581526020016004820160019054906101000a900460ff16151515158152505081526020019060010190610509565b50505050905090565b610632611a53565b81600260003373ffffffffffffffffffffffffffffffffffffffff1673ffffffffffffffffffffffffffffffffffffffff168152602001908152602001600020805490501161068057600080fd5b600260003373ffffffffffffffffffffffffffffffffffffffff1673ffffffffffffffffffffffffffffffffffffffff16815260200190815260200160002082815481106106f7577f4e487b7100000000000000000000000000000000000000000000000000000000600052603260045260246000fd5b90600052602060002090600502016040518060c0016040529081600082018054610720906124ae565b80601f016020809104026020016040519081016040528092919081815260200182805461074c906124ae565b80156107995780601f1061076e57610100808354040283529160200191610799565b820191906000526020600020905b81548152906001019060200180831161077c57829003601f168201915b505050505081526020016001820154815260200160028201548152602001600382015481526020016004820160009054906101000a900460ff161515151581526020016004820160019054906101000a900460ff1615151515815250509050919050565b610807828261148d565b5050565b6108136115b0565b73ffffffffffffffffffffffffffffffffffffffff16610831610f7f565b73ffffffffffffffffffffffffffffffffffffffff1614610887576040517f08c379a000000000000000000000000000000000000000000000000000000000815260040161087e90612276565b60405180910390fd5b61088f6115b8565b565b8061089b8161165a565b156108a557600080fd5b600260003373ffffffffffffffffffffffffffffffffffffffff1673ffffffffffffffffffffffffffffffffffffffff1681526020019081526020016000208054905082106108f357600080fd5b600260003373ffffffffffffffffffffffffffffffffffffffff1673ffffffffffffffffffffffffffffffffffffffff1681526020019081526020016000206001600260003373ffffffffffffffffffffffffffffffffffffffff1673ffffffffffffffffffffffffffffffffffffffff1681526020019081526020016000208054905061098191906123f0565b815481106109b8577f4e487b7100000000000000000000000000000000000000000000000000000000600052603260045260246000fd5b9060005260206000209060050201600260003373ffffffffffffffffffffffffffffffffffffffff1673ffffffffffffffffffffffffffffffffffffffff1681526020019081526020016000208381548110610a3d577f4e487b7100000000000000000000000000000000000000000000000000000000600052603260045260246000fd5b90600052602060002090600502016000820181600001908054610a5f906124ae565b610a6a929190611a8d565b506001820154816001015560028201548160020155600382015481600301556004820160009054906101000a900460ff168160040160006101000a81548160ff0219169083151502179055506004820160019054906101000a900460ff168160040160016101000a81548160ff021916908315150217905550905050600260003373ffffffffffffffffffffffffffffffffffffffff1673ffffffffffffffffffffffffffffffffffffffff168152602001908152602001600020805480610b5b577f4e487b7100000000000000000000000000000000000000000000000000000000600052603160045260246000fd5b600190038181906000526020600020906005020160008082016000610b809190611b1a565b6001820160009055600282016000905560038201600090556004820160006101000a81549060ff02191690556004820160016101000a81549060ff0219169055505090555050565b6000600160149054906101000a900460ff16905090565b806000610beb8261062a565b606001511415610bfa57600080fd5b610c02610bc8565b15610c42576040517f08c379a0000000000000000000000000000000000000000000000000000000008152600401610c3990612256565b60405180910390fd5b6000610c4d8361062a565b90506000816040015114610c6057600080fd5b610c698361168e565b15610c7357600080fd5b8060a00151610c8157600080fd5b3481604001818152505060008160a0019015159081151581525050610ca683826116c3565b505050565b60026020528160005260406000208181548110610cc757600080fd5b906000526020600020906005020160009150915050806000018054610ceb906124ae565b80601f0160208091040260200160405190810160405280929190818152602001828054610d17906124ae565b8015610d645780601f10610d3957610100808354040283529160200191610d64565b820191906000526020600020905b815481529060010190602001808311610d4757829003601f168201915b5050505050908060010154908060020154908060030154908060040160009054906101000a900460ff16908060040160019054906101000a900460ff16905086565b610dae6115b0565b73ffffffffffffffffffffffffffffffffffffffff16610dcc610f7f565b73ffffffffffffffffffffffffffffffffffffffff1614610e22576040517f08c379a0000000000000000000000000000000000000000000000000000000008152600401610e1990612276565b60405180910390fd5b610e2c60006117cb565b565b610e366115b0565b73ffffffffffffffffffffffffffffffffffffffff16610e54610f7f565b73ffffffffffffffffffffffffffffffffffffffff1614610eaa576040517f08c379a0000000000000000000000000000000000000000000000000000000008152600401610ea190612276565b60405180910390fd5b610eb2611891565b565b80610ebe8161062a565b6080015115610ecc57600080fd5b6000610ed78361062a565b9050610ee28361165a565b1580610ef45750610ef28361168e565b155b15610f15576001816080019015159081151581525050610f1483826116c3565b5b610f1e8361165a565b8015610f2c57508060a00151155b15610f7a57610f3a83610fa9565b610f795760018160a00190151590811515815250506001816080019015159081151581525050610f6a83826116c3565b610f78338260400151611933565b5b5b505050565b6000600160009054906101000a900473ffffffffffffffffffffffffffffffffffffffff16905090565b6000610fb48261165a565b610fc15760009050610fe5565b610fca8261168e565b15610fd85760009050610fe5565b610fe1826119cc565b1590505b919050565b82610ff48161165a565b15610ffe57600080fd5b6000600260003373ffffffffffffffffffffffffffffffffffffffff1673ffffffffffffffffffffffffffffffffffffffff1681526020019081526020016000208581548110611077577f4e487b7100000000000000000000000000000000000000000000000000000000600052603260045260246000fd5b90600052602060002090600502016040518060c00160405290816000820180546110a0906124ae565b80601f01602080910402602001604051908101604052809291908181526020018280546110cc906124ae565b80156111195780601f106110ee57610100808354040283529160200191611119565b820191906000526020600020905b8154815290600101906020018083116110fc57829003601f168201915b505050505081526020016001820154815260200160028201548152602001600382015481526020016004820160009054906101000a900460ff161515151581526020016004820160019054906101000a900460ff16151515158152505090508381600001819052508281606001818152505061119585826116c3565b5050505050565b60006020528060005260406000206000915090505481565b6000806111c08361062a565b90506111cb8361165a565b806111db57506111da83610fa9565b5b156111ea576000915050611230565b6111f3836119cc565b1561122a5760018160a00190151590811515815250506112168160400151611a09565b61122083826116c3565b6001915050611230565b60009150505b919050565b6000816112406112f6565b101561124b57600080fd5b816000803373ffffffffffffffffffffffffffffffffffffffff1673ffffffffffffffffffffffffffffffffffffffff168152602001908152602001600020600082825461129991906123f0565b925050819055503373ffffffffffffffffffffffffffffffffffffffff166108fc839081150290604051600060405180830381858888f193505050501580156112e6573d6000803e3d6000fd5b506112ef6112f6565b9050919050565b60008060003373ffffffffffffffffffffffffffffffffffffffff1673ffffffffffffffffffffffffffffffffffffffff16815260200190815260200160002054905090565b806113468161062a565b6080015161135357600080fd5b8161135d8161165a565b1561136757600080fd5b60006113728461062a565b9050600081608001901515908115158152505061138f84826116c3565b50505050565b61139d6115b0565b73ffffffffffffffffffffffffffffffffffffffff166113bb610f7f565b73ffffffffffffffffffffffffffffffffffffffff1614611411576040517f08c379a000000000000000000000000000000000000000000000000000000000815260040161140890612276565b60405180910390fd5b600073ffffffffffffffffffffffffffffffffffffffff168173ffffffffffffffffffffffffffffffffffffffff161415611481576040517f08c379a000000000000000000000000000000000000000000000000000000000815260040161147890612236565b60405180910390fd5b61148a816117cb565b50565b60006040518060c0016040528084815260200142815260200160008152602001838152602001600015158152602001600115158152509050600260003373ffffffffffffffffffffffffffffffffffffffff1673ffffffffffffffffffffffffffffffffffffffff168152602001908152602001600020819080600181540180825580915050600190039060005260206000209060050201600090919091909150600082015181600001908051906020019061154a929190611b5a565b5060208201518160010155604082015181600201556060820151816003015560808201518160040160006101000a81548160ff02191690831515021790555060a08201518160040160016101000a81548160ff0219169083151502179055505050505050565b600033905090565b6115c0610bc8565b6115ff576040517f08c379a00000000000000000000000000000000000000000000000000000000081526004016115f690612216565b60405180910390fd5b6000600160146101000a81548160ff0219169083151502179055507f5db9ee0a495bf2e6ff9c91a7834c1ba4fdd244a5e8aa4e537bd38aeae4b073aa6116436115b0565b6040516116509190612156565b60405180910390a1565b6000806116668361062a565b905060008160400151141561167f576000915050611689565b8060a00151159150505b919050565b60008061169a8361062a565b90506000816060015114156116b35760009150506116be565b428160600151109150505b919050565b80600260003373ffffffffffffffffffffffffffffffffffffffff1673ffffffffffffffffffffffffffffffffffffffff168152602001908152602001600020838154811061173b577f4e487b7100000000000000000000000000000000000000000000000000000000600052603260045260246000fd5b90600052602060002090600502016000820151816000019080519060200190611765929190611b5a565b5060208201518160010155604082015181600201556060820151816003015560808201518160040160006101000a81548160ff02191690831515021790555060a08201518160040160016101000a81548160ff0219169083151502179055509050505050565b6000600160009054906101000a900473ffffffffffffffffffffffffffffffffffffffff16905081600160006101000a81548173ffffffffffffffffffffffffffffffffffffffff021916908373ffffffffffffffffffffffffffffffffffffffff1602179055508173ffffffffffffffffffffffffffffffffffffffff168173ffffffffffffffffffffffffffffffffffffffff167f8be0079c531659141344cd1fd0a4f28419497f9722a3daafe3b4186f6b6457e060405160405180910390a35050565b611899610bc8565b156118d9576040517f08c379a00000000000000000000000000000000000000000000000000000000081526004016118d090612256565b60405180910390fd5b60018060146101000a81548160ff0219169083151502179055507f62e78cea01bee320cd4e420270b5ea74000d11b0c9f74754ebdbfc544b05a25861191c6115b0565b6040516119299190612156565b60405180910390a1565b60008060008473ffffffffffffffffffffffffffffffffffffffff1673ffffffffffffffffffffffffffffffffffffffff1681526020019081526020016000205490508181611982919061239a565b9050806000808573ffffffffffffffffffffffffffffffffffffffff1673ffffffffffffffffffffffffffffffffffffffff16815260200190815260200160002081905550505050565b6000806119d88361062a565b905062278d0081606001516119ed919061239a565b4211156119fe576001915050611a04565b60009150505b919050565b3373ffffffffffffffffffffffffffffffffffffffff166108fc829081150290604051600060405180830381858888f19350505050158015611a4f573d6000803e3d6000fd5b5050565b6040518060c00160405280606081526020016000815260200160008152602001600081526020016000151581526020016000151581525090565b828054611a99906124ae565b90600052602060002090601f016020900481019282611abb5760008555611b09565b82601f10611acc5780548555611b09565b82800160010185558215611b0957600052602060002091601f016020900482015b82811115611b08578254825591600101919060010190611aed565b5b509050611b169190611be0565b5090565b508054611b26906124ae565b6000825580601f10611b385750611b57565b601f016020900490600052602060002090810190611b569190611be0565b5b50565b828054611b66906124ae565b90600052602060002090601f016020900481019282611b885760008555611bcf565b82601f10611ba157805160ff1916838001178555611bcf565b82800160010185558215611bcf579182015b82811115611bce578251825591602001919060010190611bb3565b5b509050611bdc9190611be0565b5090565b5b80821115611bf9576000816000905550600101611be1565b5090565b6000611c10611c0b84612304565b6122d3565b905082815260208101848484011115611c2857600080fd5b611c3384828561246c565b509392505050565b600081359050611c4a8161257e565b92915050565b600082601f830112611c6157600080fd5b8135611c71848260208601611bfd565b91505092915050565b600081359050611c8981612595565b92915050565b600060208284031215611ca157600080fd5b6000611caf84828501611c3b565b91505092915050565b60008060408385031215611ccb57600080fd5b6000611cd985828601611c3b565b9250506020611cea85828601611c7a565b9150509250929050565b60008060408385031215611d0757600080fd5b600083013567ffffffffffffffff811115611d2157600080fd5b611d2d85828601611c50565b9250506020611d3e85828601611c7a565b9150509250929050565b600060208284031215611d5a57600080fd5b6000611d6884828501611c7a565b91505092915050565b600080600060608486031215611d8657600080fd5b6000611d9486828701611c7a565b935050602084013567ffffffffffffffff811115611db157600080fd5b611dbd86828701611c50565b9250506040611dce86828701611c7a565b9150509250925092565b6000611de48383612026565b905092915050565b611df581612424565b82525050565b6000611e0682612344565b611e108185612367565b935083602082028501611e2285612334565b8060005b85811015611e5e5784840389528151611e3f8582611dd8565b9450611e4a8361235a565b925060208a01995050600181019050611e26565b50829750879550505050505092915050565b611e7981612436565b82525050565b611e8881612436565b82525050565b6000611e998261234f565b611ea38185612378565b9350611eb381856020860161247b565b611ebc8161256d565b840191505092915050565b6000611ed28261234f565b611edc8185612389565b9350611eec81856020860161247b565b611ef58161256d565b840191505092915050565b6000611f0d601483612389565b91507f5061757361626c653a206e6f74207061757365640000000000000000000000006000830152602082019050919050565b6000611f4d602683612389565b91507f4f776e61626c653a206e6577206f776e657220697320746865207a65726f206160008301527f64647265737300000000000000000000000000000000000000000000000000006020830152604082019050919050565b6000611fb3601083612389565b91507f5061757361626c653a20706175736564000000000000000000000000000000006000830152602082019050919050565b6000611ff3602083612389565b91507f4f776e61626c653a2063616c6c6572206973206e6f7420746865206f776e65726000830152602082019050919050565b600060c08301600083015184820360008601526120438282611e8e565b91505060208301516120586020860182612138565b50604083015161206b6040860182612138565b50606083015161207e6060860182612138565b5060808301516120916080860182611e70565b5060a08301516120a460a0860182611e70565b508091505092915050565b600060c08301600083015184820360008601526120cc8282611e8e565b91505060208301516120e16020860182612138565b5060408301516120f46040860182612138565b5060608301516121076060860182612138565b50608083015161211a6080860182611e70565b5060a083015161212d60a0860182611e70565b508091505092915050565b61214181612462565b82525050565b61215081612462565b82525050565b600060208201905061216b6000830184611dec565b92915050565b6000602082019050818103600083015261218b8184611dfb565b905092915050565b60006020820190506121a86000830184611e7f565b92915050565b600060c08201905081810360008301526121c88189611ec7565b90506121d76020830188612147565b6121e46040830187612147565b6121f16060830186612147565b6121fe6080830185611e7f565b61220b60a0830184611e7f565b979650505050505050565b6000602082019050818103600083015261222f81611f00565b9050919050565b6000602082019050818103600083015261224f81611f40565b9050919050565b6000602082019050818103600083015261226f81611fa6565b9050919050565b6000602082019050818103600083015261228f81611fe6565b9050919050565b600060208201905081810360008301526122b081846120af565b905092915050565b60006020820190506122cd6000830184612147565b92915050565b6000604051905081810181811067ffffffffffffffff821117156122fa576122f961253e565b5b8060405250919050565b600067ffffffffffffffff82111561231f5761231e61253e565b5b601f19601f8301169050602081019050919050565b6000819050602082019050919050565b600081519050919050565b600081519050919050565b6000602082019050919050565b600082825260208201905092915050565b600082825260208201905092915050565b600082825260208201905092915050565b60006123a582612462565b91506123b083612462565b9250827fffffffffffffffffffffffffffffffffffffffffffffffffffffffffffffffff038211156123e5576123e46124e0565b5b828201905092915050565b60006123fb82612462565b915061240683612462565b925082821015612419576124186124e0565b5b828203905092915050565b600061242f82612442565b9050919050565b60008115159050919050565b600073ffffffffffffffffffffffffffffffffffffffff82169050919050565b6000819050919050565b82818337600083830152505050565b60005b8381101561249957808201518184015260208101905061247e565b838111156124a8576000848401525b50505050565b600060028204905060018216806124c657607f821691505b602082108114156124da576124d961250f565b5b50919050565b7f4e487b7100000000000000000000000000000000000000000000000000000000600052601160045260246000fd5b7f4e487b7100000000000000000000000000000000000000000000000000000000600052602260045260246000fd5b7f4e487b7100000000000000000000000000000000000000000000000000000000600052604160045260246000fd5b6000601f19601f8301169050919050565b61258781612424565b811461259257600080fd5b50565b61259e81612462565b81146125a957600080fd5b5056fea26469706673582212204fd4d6d8ce1531e752b31339206d6c2c7e6eda6a5197ab189b53ec488d9e9c6564736f6c63430008000033",
  "immutableReferences": {},
  "source": "// SPDX-License-Identifier: MIT\npragma solidity >=0.8.0 <0.9.0;\n//pragma experimental ABIEncoderV2; // Two level dynamic arrays support\n\nimport \"@openzeppelin/contracts/access/Ownable.sol\";\nimport \"./TaskFactory.sol\";\n\ncontract Todos is Ownable, TaskFactory{\n  \n  /*\n   * State variables\n   */\n\n  \n\n  /* \n   * Events\n   */\n  \n\n\n  /* \n   * Modifiers\n   */\n  \n\n\n  /* \n   * Functions\n   */\n  \n  // Add a new task\n  function add(string memory _description, uint _dueDate) public {\n    _add(_description, _dueDate);\n  }\n\n  // Update a task information\n  // function update(type name) public {\n    \n  // }\n\n  // Set a task as completed\n  // function setComplete(_id) public {\n\n  // }\n\n  // Add prize to a task\n  \n\n  // Pause contract deposits\n  function pause() public onlyOwner() {\n    _pause();\n  }\n\n  // Unpause contract deposits\n  function unpause() public onlyOwner() {\n    _unpause();\n  }\n\n}\n",
  "sourcePath": "/home/ubuntu/todo-list-dapp/blockchain/contracts/Todos.sol",
  "compiler": {
    "name": "solc",
    "version": "0.8.0+commit.c7dfd78e.Emscripten.clang"
  },
  "schemaVersion": "3.4.3",
  "updatedAt": "2021-09-18T14:27:50.954Z",
  "networkType": "ethereum",
  "devdoc": {
    "kind": "dev",
    "methods": {
      "owner()": {
        "details": "Returns the address of the current owner."
      },
      "paused()": {
        "details": "Returns true if the contract is paused, and false otherwise."
      },
      "renounceOwnership()": {
        "details": "Leaves the contract without owner. It will not be possible to call `onlyOwner` functions anymore. Can only be called by the current owner. NOTE: Renouncing ownership will leave the contract without an owner, thereby removing any functionality that is only available to the owner."
      },
      "transferOwnership(address)": {
        "details": "Transfers ownership of the contract to a new account (`newOwner`). Can only be called by the current owner."
      }
    },
    "version": 1
  },
  "userdoc": {
    "kind": "user",
    "methods": {},
    "version": 1
  }
}