{
  "contractName": "Todos",
  "abi": [
    {
      "anonymous": false,
      "inputs": [
        {
          "indexed": false,
          "internalType": "address",
          "name": "userAddress",
          "type": "address"
        },
        {
          "indexed": false,
          "internalType": "uint256",
          "name": "taskID",
          "type": "uint256"
        }
      ],
      "name": "LogAdd",
      "type": "event"
    },
    {
      "anonymous": false,
      "inputs": [
        {
          "indexed": true,
          "internalType": "address",
          "name": "previousOwner",
          "type": "address"
        },
        {
          "indexed": true,
          "internalType": "address",
          "name": "newOwner",
          "type": "address"
        }
      ],
      "name": "OwnershipTransferred",
      "type": "event"
    },
    {
      "stateMutability": "payable",
      "type": "fallback"
    },
    {
      "inputs": [],
      "name": "getPrize",
      "outputs": [
        {
          "internalType": "uint256",
          "name": "",
          "type": "uint256"
        }
      ],
      "stateMutability": "view",
      "type": "function"
    },
    {
      "inputs": [],
      "name": "owner",
      "outputs": [
        {
          "internalType": "address",
          "name": "",
          "type": "address"
        }
      ],
      "stateMutability": "view",
      "type": "function"
    },
    {
      "inputs": [
        {
          "internalType": "address",
          "name": "",
          "type": "address"
        }
      ],
      "name": "prizes",
      "outputs": [
        {
          "internalType": "uint256",
          "name": "",
          "type": "uint256"
        }
      ],
      "stateMutability": "view",
      "type": "function"
    },
    {
      "inputs": [],
      "name": "renounceOwnership",
      "outputs": [],
      "stateMutability": "nonpayable",
      "type": "function"
    },
    {
      "inputs": [
        {
          "internalType": "address",
          "name": "",
          "type": "address"
        },
        {
          "internalType": "uint256",
          "name": "",
          "type": "uint256"
        }
      ],
      "name": "tasks",
      "outputs": [
        {
          "internalType": "string",
          "name": "description",
          "type": "string"
        },
        {
          "internalType": "uint256",
          "name": "createdAt",
          "type": "uint256"
        },
        {
          "internalType": "uint256",
          "name": "value",
          "type": "uint256"
        },
        {
          "internalType": "uint256",
          "name": "dueDate",
          "type": "uint256"
        },
        {
          "internalType": "bool",
          "name": "completed",
          "type": "bool"
        },
        {
          "internalType": "bool",
          "name": "cleared",
          "type": "bool"
        }
      ],
      "stateMutability": "view",
      "type": "function"
    },
    {
      "inputs": [
        {
          "internalType": "address",
          "name": "newOwner",
          "type": "address"
        }
      ],
      "name": "transferOwnership",
      "outputs": [],
      "stateMutability": "nonpayable",
      "type": "function"
    },
    {
      "inputs": [
        {
          "internalType": "uint256",
          "name": "withdrawAmount",
          "type": "uint256"
        }
      ],
      "name": "withdrawPrize",
      "outputs": [
        {
          "internalType": "uint256",
          "name": "",
          "type": "uint256"
        }
      ],
      "stateMutability": "nonpayable",
      "type": "function"
    },
    {
      "stateMutability": "payable",
      "type": "receive"
    },
    {
      "inputs": [
        {
          "internalType": "string",
          "name": "_description",
          "type": "string"
        },
        {
          "internalType": "uint256",
          "name": "_dueDate",
          "type": "uint256"
        }
      ],
      "name": "add",
      "outputs": [],
      "stateMutability": "nonpayable",
      "type": "function"
    },
    {
      "inputs": [
        {
          "internalType": "uint256",
          "name": "_id",
          "type": "uint256"
        },
        {
          "internalType": "string",
          "name": "_description",
          "type": "string"
        },
        {
          "internalType": "uint256",
          "name": "_dueDate",
          "type": "uint256"
        }
      ],
      "name": "update",
      "outputs": [],
      "stateMutability": "nonpayable",
      "type": "function"
    },
    {
      "inputs": [
        {
          "internalType": "uint256",
          "name": "_id",
          "type": "uint256"
        }
      ],
      "name": "remove",
      "outputs": [],
      "stateMutability": "nonpayable",
      "type": "function"
    },
    {
      "inputs": [
        {
          "internalType": "uint256",
          "name": "_id",
          "type": "uint256"
        }
      ],
      "name": "setComplete",
      "outputs": [],
      "stateMutability": "nonpayable",
      "type": "function"
    },
    {
      "inputs": [
        {
          "internalType": "uint256",
          "name": "_id",
          "type": "uint256"
        }
      ],
      "name": "setIncomplete",
      "outputs": [],
      "stateMutability": "nonpayable",
      "type": "function"
    },
    {
      "inputs": [
        {
          "internalType": "uint256",
          "name": "_id",
          "type": "uint256"
        }
      ],
      "name": "clear",
      "outputs": [
        {
          "internalType": "bool",
          "name": "",
          "type": "bool"
        }
      ],
      "stateMutability": "nonpayable",
      "type": "function"
    },
    {
      "inputs": [
        {
          "internalType": "uint256",
          "name": "_id",
          "type": "uint256"
        }
      ],
      "name": "setPrize",
      "outputs": [],
      "stateMutability": "payable",
      "type": "function"
    },
    {
      "inputs": [
        {
          "internalType": "uint256",
          "name": "_id",
          "type": "uint256"
        }
      ],
      "name": "isPunishing",
      "outputs": [
        {
          "internalType": "bool",
          "name": "",
          "type": "bool"
        }
      ],
      "stateMutability": "view",
      "type": "function"
    },
    {
      "inputs": [],
      "name": "getTasks",
      "outputs": [
        {
          "components": [
            {
              "internalType": "string",
              "name": "description",
              "type": "string"
            },
            {
              "internalType": "uint256",
              "name": "createdAt",
              "type": "uint256"
            },
            {
              "internalType": "uint256",
              "name": "value",
              "type": "uint256"
            },
            {
              "internalType": "uint256",
              "name": "dueDate",
              "type": "uint256"
            },
            {
              "internalType": "bool",
              "name": "completed",
              "type": "bool"
            },
            {
              "internalType": "bool",
              "name": "cleared",
              "type": "bool"
            }
          ],
          "internalType": "struct Todos.Task[]",
          "name": "",
          "type": "tuple[]"
        }
      ],
      "stateMutability": "view",
      "type": "function"
    },
    {
      "inputs": [
        {
          "internalType": "uint256",
          "name": "_id",
          "type": "uint256"
        }
      ],
      "name": "getTask",
      "outputs": [
        {
          "components": [
            {
              "internalType": "string",
              "name": "description",
              "type": "string"
            },
            {
              "internalType": "uint256",
              "name": "createdAt",
              "type": "uint256"
            },
            {
              "internalType": "uint256",
              "name": "value",
              "type": "uint256"
            },
            {
              "internalType": "uint256",
              "name": "dueDate",
              "type": "uint256"
            },
            {
              "internalType": "bool",
              "name": "completed",
              "type": "bool"
            },
            {
              "internalType": "bool",
              "name": "cleared",
              "type": "bool"
            }
          ],
          "internalType": "struct Todos.Task",
          "name": "",
          "type": "tuple"
        }
      ],
      "stateMutability": "view",
      "type": "function"
    }
  ],
  "bytecode": "0x608060405234801561001057600080fd5b5061002d61002261003260201b60201c565b61003a60201b60201c565b6100fe565b600033905090565b60008060009054906101000a900473ffffffffffffffffffffffffffffffffffffffff169050816000806101000a81548173ffffffffffffffffffffffffffffffffffffffff021916908373ffffffffffffffffffffffffffffffffffffffff1602179055508173ffffffffffffffffffffffffffffffffffffffff168173ffffffffffffffffffffffffffffffffffffffff167f8be0079c531659141344cd1fd0a4f28419497f9722a3daafe3b4186f6b6457e060405160405180910390a35050565b6121ec806200010e6000396000f3fe6080604052600436106101025760003560e01c80638da5cb5b11610095578063c0fe1af811610064578063c0fe1af814610337578063c20eec7b14610374578063c34f6b0d146103b1578063e7a9d406146103dc578063f2fde38b146104055761010c565b80638da5cb5b146102695780639ec06b8e14610294578063ad841e07146102d1578063b35d11bf146102fa5761010c565b80636ca7f3ba116100d15780636ca7f3ba146101cb5780637149d2e4146101e7578063715018a61461022957806389e8491f146102405761010c565b806304a87e38146101115780631d65e77e1461013c57806336555b85146101795780634cc82215146101a25761010c565b3661010c57600080fd5b600080fd5b34801561011d57600080fd5b5061012661042e565b6040516101339190611dbb565b60405180910390f35b34801561014857600080fd5b50610163600480360381019061015e9190611a12565b6105b0565b6040516101709190611ea0565b60405180910390f35b34801561018557600080fd5b506101a0600480360381019061019b91906119be565b610783565b005b3480156101ae57600080fd5b506101c960048036038101906101c49190611a12565b6108a6565b005b6101e560048036038101906101e09190611a12565b610bdd565b005b3480156101f357600080fd5b5061020e60048036038101906102099190611982565b610c61565b60405161022096959493929190611df8565b60405180910390f35b34801561023557600080fd5b5061023e610d5c565b005b34801561024c57600080fd5b5061026760048036038101906102629190611a12565b610de4565b005b34801561027557600080fd5b5061027e610eaf565b60405161028b9190611da0565b60405180910390f35b3480156102a057600080fd5b506102bb60048036038101906102b69190611a12565b610ed8565b6040516102c89190611ddd565b60405180910390f35b3480156102dd57600080fd5b506102f860048036038101906102f39190611a3b565b610f19565b005b34801561030657600080fd5b50610321600480360381019061031c9190611959565b6110cb565b60405161032e9190611ec2565b60405180910390f35b34801561034357600080fd5b5061035e60048036038101906103599190611a12565b6110e3565b60405161036b9190611ddd565b60405180910390f35b34801561038057600080fd5b5061039b60048036038101906103969190611a12565b611164565b6040516103a89190611ec2565b60405180910390f35b3480156103bd57600080fd5b506103c6611226565b6040516103d39190611ec2565b60405180910390f35b3480156103e857600080fd5b5061040360048036038101906103fe9190611a12565b61126d565b005b34801561041157600080fd5b5061042c60048036038101906104279190611959565b6112c6565b005b6060600260003373ffffffffffffffffffffffffffffffffffffffff1673ffffffffffffffffffffffffffffffffffffffff168152602001908152602001600020805480602002602001604051908101604052809291908181526020016000905b828210156105a757838290600052602060002090600502016040518060c00160405290816000820180546104c2906120b8565b80601f01602080910402602001604051908101604052809291908181526020018280546104ee906120b8565b801561053b5780601f106105105761010080835404028352916020019161053b565b820191906000526020600020905b81548152906001019060200180831161051e57829003601f168201915b505050505081526020016001820154815260200160028201548152602001600382015481526020016004820160009054906101000a900460ff161515151581526020016004820160019054906101000a900460ff1615151515815250508152602001906001019061048f565b50505050905090565b6105b861171d565b81600260003373ffffffffffffffffffffffffffffffffffffffff1673ffffffffffffffffffffffffffffffffffffffff168152602001908152602001600020805490501161060657600080fd5b600260003373ffffffffffffffffffffffffffffffffffffffff1673ffffffffffffffffffffffffffffffffffffffff168152602001908152602001600020828154811061067d577f4e487b7100000000000000000000000000000000000000000000000000000000600052603260045260246000fd5b90600052602060002090600502016040518060c00160405290816000820180546106a6906120b8565b80601f01602080910402602001604051908101604052809291908181526020018280546106d2906120b8565b801561071f5780601f106106f45761010080835404028352916020019161071f565b820191906000526020600020905b81548152906001019060200180831161070257829003601f168201915b505050505081526020016001820154815260200160028201548152602001600382015481526020016004820160009054906101000a900460ff161515151581526020016004820160019054906101000a900460ff1615151515815250509050919050565b60006040518060c0016040528084815260200142815260200160008152602001838152602001600015158152602001600115158152509050600260003373ffffffffffffffffffffffffffffffffffffffff1673ffffffffffffffffffffffffffffffffffffffff1681526020019081526020016000208190806001815401808255809150506001900390600052602060002090600502016000909190919091506000820151816000019080519060200190610840929190611757565b5060208201518160010155604082015181600201556060820151816003015560808201518160040160006101000a81548160ff02191690831515021790555060a08201518160040160016101000a81548160ff0219169083151502179055505050505050565b806108b0816113be565b156108ba57600080fd5b600260003373ffffffffffffffffffffffffffffffffffffffff1673ffffffffffffffffffffffffffffffffffffffff16815260200190815260200160002080549050821061090857600080fd5b600260003373ffffffffffffffffffffffffffffffffffffffff1673ffffffffffffffffffffffffffffffffffffffff1681526020019081526020016000206001600260003373ffffffffffffffffffffffffffffffffffffffff1673ffffffffffffffffffffffffffffffffffffffff168152602001908152602001600020805490506109969190611ffa565b815481106109cd577f4e487b7100000000000000000000000000000000000000000000000000000000600052603260045260246000fd5b9060005260206000209060050201600260003373ffffffffffffffffffffffffffffffffffffffff1673ffffffffffffffffffffffffffffffffffffffff1681526020019081526020016000208381548110610a52577f4e487b7100000000000000000000000000000000000000000000000000000000600052603260045260246000fd5b90600052602060002090600502016000820181600001908054610a74906120b8565b610a7f9291906117dd565b506001820154816001015560028201548160020155600382015481600301556004820160009054906101000a900460ff168160040160006101000a81548160ff0219169083151502179055506004820160019054906101000a900460ff168160040160016101000a81548160ff021916908315150217905550905050600260003373ffffffffffffffffffffffffffffffffffffffff1673ffffffffffffffffffffffffffffffffffffffff168152602001908152602001600020805480610b70577f4e487b7100000000000000000000000000000000000000000000000000000000600052603160045260246000fd5b600190038181906000526020600020906005020160008082016000610b95919061186a565b6001820160009055600282016000905560038201600090556004820160006101000a81549060ff02191690556004820160016101000a81549060ff0219169055505090555050565b806000610be9826105b0565b606001511415610bf857600080fd5b6000610c03836105b0565b90506000816040015114610c1657600080fd5b610c1f836113f2565b15610c2957600080fd5b8060a00151610c3757600080fd5b3481604001818152505060008160a0019015159081151581525050610c5c8382611427565b505050565b60026020528160005260406000208181548110610c7d57600080fd5b906000526020600020906005020160009150915050806000018054610ca1906120b8565b80601f0160208091040260200160405190810160405280929190818152602001828054610ccd906120b8565b8015610d1a5780601f10610cef57610100808354040283529160200191610d1a565b820191906000526020600020905b815481529060010190602001808311610cfd57829003601f168201915b5050505050908060010154908060020154908060030154908060040160009054906101000a900460ff16908060040160019054906101000a900460ff16905086565b610d6461152f565b73ffffffffffffffffffffffffffffffffffffffff16610d82610eaf565b73ffffffffffffffffffffffffffffffffffffffff1614610dd8576040517f08c379a0000000000000000000000000000000000000000000000000000000008152600401610dcf90611e80565b60405180910390fd5b610de26000611537565b565b80610dee816105b0565b6080015115610dfc57600080fd5b6000610e07836105b0565b9050610e12836113be565b1580610e245750610e22836113f2565b155b15610e45576001816080019015159081151581525050610e448382611427565b5b610e4e836113be565b8015610e5c57508060a00151155b15610eaa57610e6a83610ed8565b610ea95760018160a00190151590811515815250506001816080019015159081151581525050610e9a8382611427565b610ea83382604001516115fb565b5b5b505050565b60008060009054906101000a900473ffffffffffffffffffffffffffffffffffffffff16905090565b6000610ee3826113be565b610ef05760009050610f14565b610ef9826113f2565b15610f075760009050610f14565b610f1082611696565b1590505b919050565b82610f23816113be565b15610f2d57600080fd5b6000600260003373ffffffffffffffffffffffffffffffffffffffff1673ffffffffffffffffffffffffffffffffffffffff1681526020019081526020016000208581548110610fa6577f4e487b7100000000000000000000000000000000000000000000000000000000600052603260045260246000fd5b90600052602060002090600502016040518060c0016040529081600082018054610fcf906120b8565b80601f0160208091040260200160405190810160405280929190818152602001828054610ffb906120b8565b80156110485780601f1061101d57610100808354040283529160200191611048565b820191906000526020600020905b81548152906001019060200180831161102b57829003601f168201915b505050505081526020016001820154815260200160028201548152602001600382015481526020016004820160009054906101000a900460ff161515151581526020016004820160019054906101000a900460ff1615151515815250509050838160000181905250828160600181815250506110c48582611427565b5050505050565b60016020528060005260406000206000915090505481565b6000806110ef836105b0565b90506110fa836113be565b8061110a575061110983610ed8565b5b1561111957600091505061115f565b61112283611696565b156111595760018160a001901515908115158152505061114581604001516116d3565b61114f8382611427565b600191505061115f565b60009150505b919050565b60008161116f611226565b101561117a57600080fd5b81600160003373ffffffffffffffffffffffffffffffffffffffff1673ffffffffffffffffffffffffffffffffffffffff16815260200190815260200160002060008282546111c99190611ffa565b925050819055503373ffffffffffffffffffffffffffffffffffffffff166108fc839081150290604051600060405180830381858888f19350505050158015611216573d6000803e3d6000fd5b5061121f611226565b9050919050565b6000600160003373ffffffffffffffffffffffffffffffffffffffff1673ffffffffffffffffffffffffffffffffffffffff16815260200190815260200160002054905090565b80611277816105b0565b6080015161128457600080fd5b8161128e816113be565b1561129857600080fd5b60006112a3846105b0565b905060008160800190151590811515815250506112c08482611427565b50505050565b6112ce61152f565b73ffffffffffffffffffffffffffffffffffffffff166112ec610eaf565b73ffffffffffffffffffffffffffffffffffffffff1614611342576040517f08c379a000000000000000000000000000000000000000000000000000000000815260040161133990611e80565b60405180910390fd5b600073ffffffffffffffffffffffffffffffffffffffff168173ffffffffffffffffffffffffffffffffffffffff1614156113b2576040517f08c379a00000000000000000000000000000000000000000000000000000000081526004016113a990611e60565b60405180910390fd5b6113bb81611537565b50565b6000806113ca836105b0565b90506000816040015114156113e35760009150506113ed565b8060a00151159150505b919050565b6000806113fe836105b0565b9050600081606001511415611417576000915050611422565b428160600151109150505b919050565b80600260003373ffffffffffffffffffffffffffffffffffffffff1673ffffffffffffffffffffffffffffffffffffffff168152602001908152602001600020838154811061149f577f4e487b7100000000000000000000000000000000000000000000000000000000600052603260045260246000fd5b906000526020600020906005020160008201518160000190805190602001906114c9929190611757565b5060208201518160010155604082015181600201556060820151816003015560808201518160040160006101000a81548160ff02191690831515021790555060a08201518160040160016101000a81548160ff0219169083151502179055509050505050565b600033905090565b60008060009054906101000a900473ffffffffffffffffffffffffffffffffffffffff169050816000806101000a81548173ffffffffffffffffffffffffffffffffffffffff021916908373ffffffffffffffffffffffffffffffffffffffff1602179055508173ffffffffffffffffffffffffffffffffffffffff168173ffffffffffffffffffffffffffffffffffffffff167f8be0079c531659141344cd1fd0a4f28419497f9722a3daafe3b4186f6b6457e060405160405180910390a35050565b6000600160008473ffffffffffffffffffffffffffffffffffffffff1673ffffffffffffffffffffffffffffffffffffffff168152602001908152602001600020549050818161164b9190611fa4565b905080600160008573ffffffffffffffffffffffffffffffffffffffff1673ffffffffffffffffffffffffffffffffffffffff16815260200190815260200160002081905550505050565b6000806116a2836105b0565b905062278d0081606001516116b79190611fa4565b4211156116c85760019150506116ce565b60009150505b919050565b3373ffffffffffffffffffffffffffffffffffffffff166108fc829081150290604051600060405180830381858888f19350505050158015611719573d6000803e3d6000fd5b5050565b6040518060c00160405280606081526020016000815260200160008152602001600081526020016000151581526020016000151581525090565b828054611763906120b8565b90600052602060002090601f01602090048101928261178557600085556117cc565b82601f1061179e57805160ff19168380011785556117cc565b828001600101855582156117cc579182015b828111156117cb5782518255916020019190600101906117b0565b5b5090506117d991906118aa565b5090565b8280546117e9906120b8565b90600052602060002090601f01602090048101928261180b5760008555611859565b82601f1061181c5780548555611859565b8280016001018555821561185957600052602060002091601f016020900482015b8281111561185857825482559160010191906001019061183d565b5b50905061186691906118aa565b5090565b508054611876906120b8565b6000825580601f1061188857506118a7565b601f0160209004906000526020600020908101906118a691906118aa565b5b50565b5b808211156118c35760008160009055506001016118ab565b5090565b60006118da6118d584611f0e565b611edd565b9050828152602081018484840111156118f257600080fd5b6118fd848285612076565b509392505050565b60008135905061191481612188565b92915050565b600082601f83011261192b57600080fd5b813561193b8482602086016118c7565b91505092915050565b6000813590506119538161219f565b92915050565b60006020828403121561196b57600080fd5b600061197984828501611905565b91505092915050565b6000806040838503121561199557600080fd5b60006119a385828601611905565b92505060206119b485828601611944565b9150509250929050565b600080604083850312156119d157600080fd5b600083013567ffffffffffffffff8111156119eb57600080fd5b6119f78582860161191a565b9250506020611a0885828601611944565b9150509250929050565b600060208284031215611a2457600080fd5b6000611a3284828501611944565b91505092915050565b600080600060608486031215611a5057600080fd5b6000611a5e86828701611944565b935050602084013567ffffffffffffffff811115611a7b57600080fd5b611a878682870161191a565b9250506040611a9886828701611944565b9150509250925092565b6000611aae8383611c70565b905092915050565b611abf8161202e565b82525050565b6000611ad082611f4e565b611ada8185611f71565b935083602082028501611aec85611f3e565b8060005b85811015611b285784840389528151611b098582611aa2565b9450611b1483611f64565b925060208a01995050600181019050611af0565b50829750879550505050505092915050565b611b4381612040565b82525050565b611b5281612040565b82525050565b6000611b6382611f59565b611b6d8185611f82565b9350611b7d818560208601612085565b611b8681612177565b840191505092915050565b6000611b9c82611f59565b611ba68185611f93565b9350611bb6818560208601612085565b611bbf81612177565b840191505092915050565b6000611bd7602683611f93565b91507f4f776e61626c653a206e6577206f776e657220697320746865207a65726f206160008301527f64647265737300000000000000000000000000000000000000000000000000006020830152604082019050919050565b6000611c3d602083611f93565b91507f4f776e61626c653a2063616c6c6572206973206e6f7420746865206f776e65726000830152602082019050919050565b600060c0830160008301518482036000860152611c8d8282611b58565b9150506020830151611ca26020860182611d82565b506040830151611cb56040860182611d82565b506060830151611cc86060860182611d82565b506080830151611cdb6080860182611b3a565b5060a0830151611cee60a0860182611b3a565b508091505092915050565b600060c0830160008301518482036000860152611d168282611b58565b9150506020830151611d2b6020860182611d82565b506040830151611d3e6040860182611d82565b506060830151611d516060860182611d82565b506080830151611d646080860182611b3a565b5060a0830151611d7760a0860182611b3a565b508091505092915050565b611d8b8161206c565b82525050565b611d9a8161206c565b82525050565b6000602082019050611db56000830184611ab6565b92915050565b60006020820190508181036000830152611dd58184611ac5565b905092915050565b6000602082019050611df26000830184611b49565b92915050565b600060c0820190508181036000830152611e128189611b91565b9050611e216020830188611d91565b611e2e6040830187611d91565b611e3b6060830186611d91565b611e486080830185611b49565b611e5560a0830184611b49565b979650505050505050565b60006020820190508181036000830152611e7981611bca565b9050919050565b60006020820190508181036000830152611e9981611c30565b9050919050565b60006020820190508181036000830152611eba8184611cf9565b905092915050565b6000602082019050611ed76000830184611d91565b92915050565b6000604051905081810181811067ffffffffffffffff82111715611f0457611f03612148565b5b8060405250919050565b600067ffffffffffffffff821115611f2957611f28612148565b5b601f19601f8301169050602081019050919050565b6000819050602082019050919050565b600081519050919050565b600081519050919050565b6000602082019050919050565b600082825260208201905092915050565b600082825260208201905092915050565b600082825260208201905092915050565b6000611faf8261206c565b9150611fba8361206c565b9250827fffffffffffffffffffffffffffffffffffffffffffffffffffffffffffffffff03821115611fef57611fee6120ea565b5b828201905092915050565b60006120058261206c565b91506120108361206c565b925082821015612023576120226120ea565b5b828203905092915050565b60006120398261204c565b9050919050565b60008115159050919050565b600073ffffffffffffffffffffffffffffffffffffffff82169050919050565b6000819050919050565b82818337600083830152505050565b60005b838110156120a3578082015181840152602081019050612088565b838111156120b2576000848401525b50505050565b600060028204905060018216806120d057607f821691505b602082108114156120e4576120e3612119565b5b50919050565b7f4e487b7100000000000000000000000000000000000000000000000000000000600052601160045260246000fd5b7f4e487b7100000000000000000000000000000000000000000000000000000000600052602260045260246000fd5b7f4e487b7100000000000000000000000000000000000000000000000000000000600052604160045260246000fd5b6000601f19601f8301169050919050565b6121918161202e565b811461219c57600080fd5b50565b6121a88161206c565b81146121b357600080fd5b5056fea2646970667358221220d172f677f0e77e788c2ee537013a72c1a404fa4a5fed6a238b6fe892e3b54f7a64736f6c63430008000033",
  "immutableReferences": {},
  "source": "// SPDX-License-Identifier: MIT\npragma solidity >=0.8.0 <0.9.0;\n//pragma experimental ABIEncoderV2; // Two level dynamic arrays support\n\nimport \"@openzeppelin/contracts/access/Ownable.sol\";\nimport \"./Financable.sol\";\n\ncontract Todos is Ownable, Financable{\n  /*\n   * Constant variables\n   */\n  \n  // Punishment period in seconds\n  uint constant PUNISHMENT_TIME = 30 days;\n\n  /*\n   * State variables\n   */\n\n  struct Task {\n    string description;\n    uint createdAt;\n    uint value;\n    uint dueDate;\n    bool completed;\n    bool cleared;\n  }\n\n  // Tasks\n  mapping (address => Task[]) public tasks;\n\n  /* \n   * Events\n   */\n\n  // Task added event\n  event LogAdd (address userAddress, uint taskID); // TODO\n\n  /* \n   * Modifiers\n   */\n\n  modifier validDueDate (uint _date) {\n    require(_date > block.timestamp);\n    _;\n  }\n\n  // If task has not any prize locked in it\n  modifier notPrized (uint _id) {\n    require(!hasPrize(_id));\n    _;\n  }\n\n  modifier completed (uint _id) {\n    require(getTask(_id).completed);\n    _;\n  }\n\n  modifier incomplete (uint _id) {\n    require(!getTask(_id).completed);\n    _;\n  }\n\n  modifier dueIsSet (uint _id) {\n    require(getTask(_id).dueDate != 0);\n    _;\n  }\n\n\n\n  /* \n   * Functions\n   */\n\n  // Add task\n  function add(string memory _description, uint _dueDate) public {\n    Task memory task = Task({\n      description: _description,\n      createdAt: block.timestamp,\n      value: 0,\n      dueDate: _dueDate,\n      completed: false,\n      cleared: true\n    });\n    tasks[msg.sender].push(task);\n  }\n\n\n  // Update task\n  function update(uint _id, string memory _description, uint _dueDate)\n  public notPrized(_id) {\n    Task memory task = tasks[msg.sender][_id];\n    task.description = _description;\n    task.dueDate = _dueDate;\n    replace(_id, task);\n  }\n\n  // Remove task\n  function remove(uint _id) public notPrized(_id) {\n    require(_id < tasks[msg.sender].length);\n\n    tasks[msg.sender][_id] = tasks[msg.sender][tasks[msg.sender].length - 1];\n    tasks[msg.sender].pop();\n  }\n  \n\n  // Set complete\n  function setComplete(uint _id) public incomplete(_id) {\n    Task memory task = getTask(_id);\n    if (!hasPrize(_id) || !isExpired(_id)) {\n      task.completed = true;\n      replace(_id, task);\n    }\n    if (hasPrize(_id) && !task.cleared) {\n      if (!isPunishing(_id)) {\n        task.cleared = true;\n        task.completed = true;\n        replace(_id, task);\n        addPrize(msg.sender, task.value);\n      }\n    }\n  }\n\n  // Set incomplete\n  function setIncomplete(uint _id) public completed(_id) notPrized(_id) {\n    Task memory task = getTask(_id);\n    task.completed = false;\n    replace(_id, task);\n  }\n\n  // Has prize locked in it\n  function hasPrize(uint _id) internal view returns (bool) {\n    Task memory task = getTask(_id);\n    if (task.value == 0)\n      return false;\n    return !task.cleared;\n  }\n\n  // Clear a task\n  function clear(uint _id) public returns (bool) {\n    Task memory task = getTask(_id);\n    if(hasPrize(_id) || isPunishing(_id)) {\n      return false;\n    }\n    if(isPunishmentOver(_id)) {\n      task.cleared = true;\n      payUser(task.value);\n      replace(_id, task);\n      return true;\n    }\n    return false;\n  }\n\n  // Set prize\n  function setPrize(uint _id) public payable dueIsSet(_id) {\n    Task memory task = getTask(_id);\n    require(task.value == 0);\n    require(!isExpired(_id));\n    require(task.cleared);\n\n    task.value = msg.value;\n    task.cleared = false;\n\n    replace(_id, task);\n  }\n\n  // Is in punishment period\n  function isPunishing(uint _id) public view returns (bool) {\n    if (!hasPrize(_id)) {\n      return false;\n    }\n    if (!!isExpired(_id)) {\n      return false;\n    }\n    return !isPunishmentOver(_id);\n  }\n\n  // Is punishment period over\n  function isPunishmentOver(uint _id) private view returns (bool){\n    Task memory task = getTask(_id);\n    if (block.timestamp > task.dueDate + PUNISHMENT_TIME) {\n      return true;\n    }\n    return false;\n  }\n\n  // Is task overdue\n  function isExpired(uint _id) internal view returns (bool) {\n    Task memory task = getTask(_id);\n    if (task.dueDate == 0) {\n      return false;\n    }\n    return (task.dueDate < block.timestamp);\n  }\n\n  // Get current user tasks\n  function getTasks() public view returns(Task[] memory) {\n    return tasks[msg.sender];\n  }\n\n  // Get task\n  function getTask(uint _id) public view returns(Task memory) {\n    require(tasks[msg.sender].length>_id);\n    return tasks[msg.sender][_id];\n  }\n\n\n  // Replace task\n  function replace(uint _id, Task memory _task) internal {\n    tasks[msg.sender][_id] = _task;\n  }\n\n}\n",
  "sourcePath": "/home/ubuntu/todo-list-dapp/blockchain/contracts/Todos.sol",
  "compiler": {
    "name": "solc",
    "version": "0.8.0+commit.c7dfd78e.Emscripten.clang"
  },
  "schemaVersion": "3.4.3",
  "updatedAt": "2021-09-17T11:17:12.075Z",
  "devdoc": {
    "kind": "dev",
    "methods": {
      "owner()": {
        "details": "Returns the address of the current owner."
      },
      "renounceOwnership()": {
        "details": "Leaves the contract without owner. It will not be possible to call `onlyOwner` functions anymore. Can only be called by the current owner. NOTE: Renouncing ownership will leave the contract without an owner, thereby removing any functionality that is only available to the owner."
      },
      "transferOwnership(address)": {
        "details": "Transfers ownership of the contract to a new account (`newOwner`). Can only be called by the current owner."
      }
    },
    "version": 1
  },
  "userdoc": {
    "kind": "user",
    "methods": {},
    "version": 1
  }
}