{
  "contractName": "Todos",
  "abi": [
    {
      "anonymous": false,
      "inputs": [],
      "name": "LogTasksUpdated",
      "type": "event"
    },
    {
      "anonymous": false,
      "inputs": [
        {
          "indexed": true,
          "internalType": "address",
          "name": "previousOwner",
          "type": "address"
        },
        {
          "indexed": true,
          "internalType": "address",
          "name": "newOwner",
          "type": "address"
        }
      ],
      "name": "OwnershipTransferred",
      "type": "event"
    },
    {
      "anonymous": false,
      "inputs": [
        {
          "indexed": false,
          "internalType": "address",
          "name": "account",
          "type": "address"
        }
      ],
      "name": "Paused",
      "type": "event"
    },
    {
      "anonymous": false,
      "inputs": [
        {
          "indexed": false,
          "internalType": "address",
          "name": "account",
          "type": "address"
        }
      ],
      "name": "Unpaused",
      "type": "event"
    },
    {
      "stateMutability": "payable",
      "type": "fallback",
      "payable": true
    },
    {
      "inputs": [],
      "name": "PUNISHMENT_TIME",
      "outputs": [
        {
          "internalType": "uint256",
          "name": "",
          "type": "uint256"
        }
      ],
      "stateMutability": "view",
      "type": "function",
      "constant": true
    },
    {
      "inputs": [],
      "name": "getPrize",
      "outputs": [
        {
          "internalType": "uint256",
          "name": "",
          "type": "uint256"
        }
      ],
      "stateMutability": "view",
      "type": "function",
      "constant": true
    },
    {
      "inputs": [],
      "name": "owner",
      "outputs": [
        {
          "internalType": "address",
          "name": "",
          "type": "address"
        }
      ],
      "stateMutability": "view",
      "type": "function",
      "constant": true
    },
    {
      "inputs": [],
      "name": "paused",
      "outputs": [
        {
          "internalType": "bool",
          "name": "",
          "type": "bool"
        }
      ],
      "stateMutability": "view",
      "type": "function",
      "constant": true
    },
    {
      "inputs": [
        {
          "internalType": "address",
          "name": "",
          "type": "address"
        }
      ],
      "name": "prizes",
      "outputs": [
        {
          "internalType": "uint256",
          "name": "",
          "type": "uint256"
        }
      ],
      "stateMutability": "view",
      "type": "function",
      "constant": true
    },
    {
      "inputs": [],
      "name": "renounceOwnership",
      "outputs": [],
      "stateMutability": "nonpayable",
      "type": "function"
    },
    {
      "inputs": [
        {
          "internalType": "address",
          "name": "",
          "type": "address"
        },
        {
          "internalType": "uint256",
          "name": "",
          "type": "uint256"
        }
      ],
      "name": "tasks",
      "outputs": [
        {
          "internalType": "string",
          "name": "description",
          "type": "string"
        },
        {
          "internalType": "uint256",
          "name": "createdAt",
          "type": "uint256"
        },
        {
          "internalType": "uint256",
          "name": "value",
          "type": "uint256"
        },
        {
          "internalType": "uint256",
          "name": "dueDate",
          "type": "uint256"
        },
        {
          "internalType": "bool",
          "name": "completed",
          "type": "bool"
        },
        {
          "internalType": "bool",
          "name": "cleared",
          "type": "bool"
        }
      ],
      "stateMutability": "view",
      "type": "function",
      "constant": true
    },
    {
      "inputs": [
        {
          "internalType": "address",
          "name": "newOwner",
          "type": "address"
        }
      ],
      "name": "transferOwnership",
      "outputs": [],
      "stateMutability": "nonpayable",
      "type": "function"
    },
    {
      "inputs": [
        {
          "internalType": "uint256",
          "name": "withdrawAmount",
          "type": "uint256"
        }
      ],
      "name": "withdrawPrize",
      "outputs": [
        {
          "internalType": "uint256",
          "name": "",
          "type": "uint256"
        }
      ],
      "stateMutability": "nonpayable",
      "type": "function"
    },
    {
      "stateMutability": "payable",
      "type": "receive",
      "payable": true
    },
    {
      "inputs": [],
      "name": "getTasks",
      "outputs": [
        {
          "components": [
            {
              "internalType": "string",
              "name": "description",
              "type": "string"
            },
            {
              "internalType": "uint256",
              "name": "createdAt",
              "type": "uint256"
            },
            {
              "internalType": "uint256",
              "name": "value",
              "type": "uint256"
            },
            {
              "internalType": "uint256",
              "name": "dueDate",
              "type": "uint256"
            },
            {
              "internalType": "bool",
              "name": "completed",
              "type": "bool"
            },
            {
              "internalType": "bool",
              "name": "cleared",
              "type": "bool"
            }
          ],
          "internalType": "struct TaskFactory.Task[]",
          "name": "",
          "type": "tuple[]"
        }
      ],
      "stateMutability": "view",
      "type": "function",
      "constant": true
    },
    {
      "inputs": [
        {
          "internalType": "string",
          "name": "_description",
          "type": "string"
        },
        {
          "internalType": "uint256",
          "name": "_dueDate",
          "type": "uint256"
        }
      ],
      "name": "add",
      "outputs": [],
      "stateMutability": "nonpayable",
      "type": "function"
    },
    {
      "inputs": [
        {
          "internalType": "uint256",
          "name": "_id",
          "type": "uint256"
        }
      ],
      "name": "setComplete",
      "outputs": [],
      "stateMutability": "nonpayable",
      "type": "function"
    },
    {
      "inputs": [
        {
          "internalType": "uint256",
          "name": "_id",
          "type": "uint256"
        }
      ],
      "name": "setPrize",
      "outputs": [],
      "stateMutability": "payable",
      "type": "function",
      "payable": true
    },
    {
      "inputs": [
        {
          "internalType": "uint256",
          "name": "_id",
          "type": "uint256"
        }
      ],
      "name": "clear",
      "outputs": [],
      "stateMutability": "nonpayable",
      "type": "function"
    },
    {
      "inputs": [],
      "name": "pause",
      "outputs": [],
      "stateMutability": "nonpayable",
      "type": "function"
    },
    {
      "inputs": [],
      "name": "unpause",
      "outputs": [],
      "stateMutability": "nonpayable",
      "type": "function"
    }
  ],
  "bytecode": "0x608060405234801561001057600080fd5b5061002d61002261004d60201b60201c565b61005560201b60201c565b6000600160146101000a81548160ff02191690831515021790555061011b565b600033905090565b6000600160009054906101000a900473ffffffffffffffffffffffffffffffffffffffff16905081600160006101000a81548173ffffffffffffffffffffffffffffffffffffffff021916908373ffffffffffffffffffffffffffffffffffffffff1602179055508173ffffffffffffffffffffffffffffffffffffffff168173ffffffffffffffffffffffffffffffffffffffff167f8be0079c531659141344cd1fd0a4f28419497f9722a3daafe3b4186f6b6457e060405160405180910390a35050565b612139806200012b6000396000f3fe6080604052600436106100f75760003560e01c806389e8491f1161008a578063c0fe1af811610059578063c0fe1af8146102e4578063c20eec7b1461030d578063c34f6b0d1461034a578063f2fde38b1461037557610101565b806389e8491f146102285780638ced8132146102515780638da5cb5b1461027c578063b35d11bf146102a757610101565b80636ca7f3ba116100c65780636ca7f3ba1461019c5780637149d2e4146101b8578063715018a6146101fa5780638456cb591461021157610101565b806304a87e381461010657806336555b85146101315780633f4ba83a1461015a5780635c975abb1461017157610101565b3661010157600080fd5b600080fd5b34801561011257600080fd5b5061011b61039e565b6040516101289190611c4a565b60405180910390f35b34801561013d57600080fd5b506101586004803603810190610153919061177d565b6103ad565b005b34801561016657600080fd5b5061016f6103bb565b005b34801561017d57600080fd5b50610186610441565b6040516101939190611c6c565b60405180910390f35b6101b660048036038101906101b191906117d1565b610458565b005b3480156101c457600080fd5b506101df60048036038101906101da9190611741565b610464565b6040516101f196959493929190611c87565b60405180910390f35b34801561020657600080fd5b5061020f61055f565b005b34801561021d57600080fd5b506102266105e7565b005b34801561023457600080fd5b5061024f600480360381019061024a91906117d1565b61066d565b005b34801561025d57600080fd5b50610266610679565b6040516102739190611e0f565b60405180910390f35b34801561028857600080fd5b5061029161067e565b60405161029e9190611c2f565b60405180910390f35b3480156102b357600080fd5b506102ce60048036038101906102c99190611718565b6106a8565b6040516102db9190611e0f565b60405180910390f35b3480156102f057600080fd5b5061030b600480360381019061030691906117d1565b6106c0565b005b34801561031957600080fd5b50610334600480360381019061032f91906117d1565b6106cc565b6040516103419190611e0f565b60405180910390f35b34801561035657600080fd5b5061035f61078d565b60405161036c9190611e0f565b60405180910390f35b34801561038157600080fd5b5061039c60048036038101906103979190611718565b6107d3565b005b60606103a86108cb565b905090565b6103b78282610a4d565b5050565b6103c3610bb5565b73ffffffffffffffffffffffffffffffffffffffff166103e161067e565b73ffffffffffffffffffffffffffffffffffffffff1614610437576040517f08c379a000000000000000000000000000000000000000000000000000000000815260040161042e90611daf565b60405180910390fd5b61043f610bbd565b565b6000600160149054906101000a900460ff16905090565b61046181610c5f565b50565b6002602052816000526040600020818154811061048057600080fd5b9060005260206000209060050201600091509150508060000180546104a490612005565b80601f01602080910402602001604051908101604052809291908181526020018280546104d090612005565b801561051d5780601f106104f25761010080835404028352916020019161051d565b820191906000526020600020905b81548152906001019060200180831161050057829003601f168201915b5050505050908060010154908060020154908060030154908060040160009054906101000a900460ff16908060040160019054906101000a900460ff16905086565b610567610bb5565b73ffffffffffffffffffffffffffffffffffffffff1661058561067e565b73ffffffffffffffffffffffffffffffffffffffff16146105db576040517f08c379a00000000000000000000000000000000000000000000000000000000081526004016105d290611daf565b60405180910390fd5b6105e56000610d52565b565b6105ef610bb5565b73ffffffffffffffffffffffffffffffffffffffff1661060d61067e565b73ffffffffffffffffffffffffffffffffffffffff1614610663576040517f08c379a000000000000000000000000000000000000000000000000000000000815260040161065a90611daf565b60405180910390fd5b61066b610e18565b565b61067681610eba565b50565b603c81565b6000600160009054906101000a900473ffffffffffffffffffffffffffffffffffffffff16905090565b60006020528060005260406000206000915090505481565b6106c981610fc9565b50565b6000816106d761078d565b10156106e257600080fd5b816000803373ffffffffffffffffffffffffffffffffffffffff1673ffffffffffffffffffffffffffffffffffffffff16815260200190815260200160002060008282546107309190611f47565b925050819055503373ffffffffffffffffffffffffffffffffffffffff166108fc839081150290604051600060405180830381858888f1935050505015801561077d573d6000803e3d6000fd5b5061078661078d565b9050919050565b60008060003373ffffffffffffffffffffffffffffffffffffffff1673ffffffffffffffffffffffffffffffffffffffff16815260200190815260200160002054905090565b6107db610bb5565b73ffffffffffffffffffffffffffffffffffffffff166107f961067e565b73ffffffffffffffffffffffffffffffffffffffff161461084f576040517f08c379a000000000000000000000000000000000000000000000000000000000815260040161084690611daf565b60405180910390fd5b600073ffffffffffffffffffffffffffffffffffffffff168173ffffffffffffffffffffffffffffffffffffffff1614156108bf576040517f08c379a00000000000000000000000000000000000000000000000000000000081526004016108b690611d4f565b60405180910390fd5b6108c881610d52565b50565b6060600260003373ffffffffffffffffffffffffffffffffffffffff1673ffffffffffffffffffffffffffffffffffffffff168152602001908152602001600020805480602002602001604051908101604052809291908181526020016000905b82821015610a4457838290600052602060002090600502016040518060c001604052908160008201805461095f90612005565b80601f016020809104026020016040519081016040528092919081815260200182805461098b90612005565b80156109d85780601f106109ad576101008083540402835291602001916109d8565b820191906000526020600020905b8154815290600101906020018083116109bb57829003601f168201915b505050505081526020016001820154815260200160028201548152602001600382015481526020016004820160009054906101000a900460ff161515151581526020016004820160019054906101000a900460ff1615151515815250508152602001906001019061092c565b50505050905090565b806000811480610a5c57504281115b610a6557600080fd5b60006040518060c0016040528085815260200142815260200160008152602001848152602001600015158152602001600115158152509050600260003373ffffffffffffffffffffffffffffffffffffffff1673ffffffffffffffffffffffffffffffffffffffff1681526020019081526020016000208190806001815401808255809150506001900390600052602060002090600502016000909190919091506000820151816000019080519060200190610b229291906115a9565b5060208201518160010155604082015181600201556060820151816003015560808201518160040160006101000a81548160ff02191690831515021790555060a08201518160040160016101000a81548160ff02191690831515021790555050507ff1d942a3aa0252ca9653f82dac1b78fedc485a12a7f7ce983e614d3914e7114560405160405180910390a150505050565b600033905090565b610bc5610441565b610c04576040517f08c379a0000000000000000000000000000000000000000000000000000000008152600401610bfb90611d2f565b60405180910390fd5b6000600160146101000a81548160ff0219169083151502179055507f5db9ee0a495bf2e6ff9c91a7834c1ba4fdd244a5e8aa4e537bd38aeae4b073aa610c48610bb5565b604051610c559190611c2f565b60405180910390a1565b806000610c6b826110db565b606001511415610c7a57600080fd5b610c82610441565b15610cc2576040517f08c379a0000000000000000000000000000000000000000000000000000000008152600401610cb990611d8f565b60405180910390fd5b81610ccc816110db565b6080015115610cda57600080fd5b6000610ce5846110db565b90506000816040015114610cf857600080fd5b610d01846112ae565b15610d0b57600080fd5b8060a00151610d1957600080fd5b6000341415610d2757600080fd5b3481604001818152505060008160a0019015159081151581525050610d4c84826112e3565b50505050565b6000600160009054906101000a900473ffffffffffffffffffffffffffffffffffffffff16905081600160006101000a81548173ffffffffffffffffffffffffffffffffffffffff021916908373ffffffffffffffffffffffffffffffffffffffff1602179055508173ffffffffffffffffffffffffffffffffffffffff168173ffffffffffffffffffffffffffffffffffffffff167f8be0079c531659141344cd1fd0a4f28419497f9722a3daafe3b4186f6b6457e060405160405180910390a35050565b610e20610441565b15610e60576040517f08c379a0000000000000000000000000000000000000000000000000000000008152600401610e5790611d8f565b60405180910390fd5b60018060146101000a81548160ff0219169083151502179055507f62e78cea01bee320cd4e420270b5ea74000d11b0c9f74754ebdbfc544b05a258610ea3610bb5565b604051610eb09190611c2f565b60405180910390a1565b80610ec4816110db565b6080015115610ed257600080fd5b610edb826112ae565b15610f1b576040517f08c379a0000000000000000000000000000000000000000000000000000000008152600401610f1290611def565b60405180910390fd5b610f2482611417565b15610f64576040517f08c379a0000000000000000000000000000000000000000000000000000000008152600401610f5b90611d6f565b60405180910390fd5b6000610f6f836110db565b905060018160800190151590811515815250508060a00151610fb95760018160a0019015159081151581525050610fa683826112e3565b610fb4338260400151611457565b610fc4565b610fc383826112e3565b5b505050565b6000610fd4826110db565b9050610fdf826114f0565b61101e576040517f08c379a000000000000000000000000000000000000000000000000000000000815260040161101590611dcf565b60405180910390fd5b61102782611417565b15611067576040517f08c379a000000000000000000000000000000000000000000000000000000000815260040161105e90611cef565b60405180910390fd5b61107082611524565b6110af576040517f08c379a00000000000000000000000000000000000000000000000000000000081526004016110a690611d0f565b60405180910390fd5b60018160a00190151590811515815250506110cd816040015161155f565b6110d782826112e3565b5050565b6110e361162f565b81600260003373ffffffffffffffffffffffffffffffffffffffff1673ffffffffffffffffffffffffffffffffffffffff168152602001908152602001600020805490501161113157600080fd5b600260003373ffffffffffffffffffffffffffffffffffffffff1673ffffffffffffffffffffffffffffffffffffffff16815260200190815260200160002082815481106111a8577f4e487b7100000000000000000000000000000000000000000000000000000000600052603260045260246000fd5b90600052602060002090600502016040518060c00160405290816000820180546111d190612005565b80601f01602080910402602001604051908101604052809291908181526020018280546111fd90612005565b801561124a5780601f1061121f5761010080835404028352916020019161124a565b820191906000526020600020905b81548152906001019060200180831161122d57829003601f168201915b505050505081526020016001820154815260200160028201548152602001600382015481526020016004820160009054906101000a900460ff161515151581526020016004820160019054906101000a900460ff1615151515815250509050919050565b6000806112ba836110db565b90506000816060015114156112d35760009150506112de565b428160600151109150505b919050565b80600260003373ffffffffffffffffffffffffffffffffffffffff1673ffffffffffffffffffffffffffffffffffffffff168152602001908152602001600020838154811061135b577f4e487b7100000000000000000000000000000000000000000000000000000000600052603260045260246000fd5b906000526020600020906005020160008201518160000190805190602001906113859291906115a9565b5060208201518160010155604082015181600201556060820151816003015560808201518160040160006101000a81548160ff02191690831515021790555060a08201518160040160016101000a81548160ff0219169083151502179055509050507ff1d942a3aa0252ca9653f82dac1b78fedc485a12a7f7ce983e614d3914e7114560405160405180910390a15050565b6000611422826114f0565b61142f5760009050611452565b611438826112ae565b6114455760009050611452565b61144e82611524565b1590505b919050565b60008060008473ffffffffffffffffffffffffffffffffffffffff1673ffffffffffffffffffffffffffffffffffffffff16815260200190815260200160002054905081816114a69190611ef1565b9050806000808573ffffffffffffffffffffffffffffffffffffffff1673ffffffffffffffffffffffffffffffffffffffff16815260200190815260200160002081905550505050565b6000806114fc836110db565b905060008160400151141561151557600091505061151f565b8060a00151159150505b919050565b600080611530836110db565b9050603c81606001516115439190611ef1565b42111561155457600191505061155a565b60009150505b919050565b3373ffffffffffffffffffffffffffffffffffffffff166108fc829081150290604051600060405180830381858888f193505050501580156115a5573d6000803e3d6000fd5b5050565b8280546115b590612005565b90600052602060002090601f0160209004810192826115d7576000855561161e565b82601f106115f057805160ff191683800117855561161e565b8280016001018555821561161e579182015b8281111561161d578251825591602001919060010190611602565b5b50905061162b9190611669565b5090565b6040518060c00160405280606081526020016000815260200160008152602001600081526020016000151581526020016000151581525090565b5b8082111561168257600081600090555060010161166a565b5090565b600061169961169484611e5b565b611e2a565b9050828152602081018484840111156116b157600080fd5b6116bc848285611fc3565b509392505050565b6000813590506116d3816120d5565b92915050565b600082601f8301126116ea57600080fd5b81356116fa848260208601611686565b91505092915050565b600081359050611712816120ec565b92915050565b60006020828403121561172a57600080fd5b6000611738848285016116c4565b91505092915050565b6000806040838503121561175457600080fd5b6000611762858286016116c4565b925050602061177385828601611703565b9150509250929050565b6000806040838503121561179057600080fd5b600083013567ffffffffffffffff8111156117aa57600080fd5b6117b6858286016116d9565b92505060206117c785828601611703565b9150509250929050565b6000602082840312156117e357600080fd5b60006117f184828501611703565b91505092915050565b60006118068383611b88565b905092915050565b61181781611f7b565b82525050565b600061182882611e9b565b6118328185611ebe565b93508360208202850161184485611e8b565b8060005b85811015611880578484038952815161186185826117fa565b945061186c83611eb1565b925060208a01995050600181019050611848565b50829750879550505050505092915050565b61189b81611f8d565b82525050565b6118aa81611f8d565b82525050565b60006118bb82611ea6565b6118c58185611ecf565b93506118d5818560208601611fd2565b6118de816120c4565b840191505092915050565b60006118f482611ea6565b6118fe8185611ee0565b935061190e818560208601611fd2565b611917816120c4565b840191505092915050565b600061192f601983611ee0565b91507f5461736b20697320756e6465722070756e6973686d656e7421000000000000006000830152602082019050919050565b600061196f601683611ee0565b91507f50756e6973686d656e74206973206e6f74206f766572000000000000000000006000830152602082019050919050565b60006119af601483611ee0565b91507f5061757361626c653a206e6f74207061757365640000000000000000000000006000830152602082019050919050565b60006119ef602683611ee0565b91507f4f776e61626c653a206e6577206f776e657220697320746865207a65726f206160008301527f64647265737300000000000000000000000000000000000000000000000000006020830152604082019050919050565b6000611a55601883611ee0565b91507f7461736b20697320756e6465722070756e6973686d656e7400000000000000006000830152602082019050919050565b6000611a95601083611ee0565b91507f5061757361626c653a20706175736564000000000000000000000000000000006000830152602082019050919050565b6000611ad5602083611ee0565b91507f4f776e61626c653a2063616c6c6572206973206e6f7420746865206f776e65726000830152602082019050919050565b6000611b15601383611ee0565b91507f446f6e277420686176652061207072697a6521000000000000000000000000006000830152602082019050919050565b6000611b55601383611ee0565b91507f64756520646174652069732065787069726564000000000000000000000000006000830152602082019050919050565b600060c0830160008301518482036000860152611ba582826118b0565b9150506020830151611bba6020860182611c11565b506040830151611bcd6040860182611c11565b506060830151611be06060860182611c11565b506080830151611bf36080860182611892565b5060a0830151611c0660a0860182611892565b508091505092915050565b611c1a81611fb9565b82525050565b611c2981611fb9565b82525050565b6000602082019050611c44600083018461180e565b92915050565b60006020820190508181036000830152611c64818461181d565b905092915050565b6000602082019050611c8160008301846118a1565b92915050565b600060c0820190508181036000830152611ca181896118e9565b9050611cb06020830188611c20565b611cbd6040830187611c20565b611cca6060830186611c20565b611cd760808301856118a1565b611ce460a08301846118a1565b979650505050505050565b60006020820190508181036000830152611d0881611922565b9050919050565b60006020820190508181036000830152611d2881611962565b9050919050565b60006020820190508181036000830152611d48816119a2565b9050919050565b60006020820190508181036000830152611d68816119e2565b9050919050565b60006020820190508181036000830152611d8881611a48565b9050919050565b60006020820190508181036000830152611da881611a88565b9050919050565b60006020820190508181036000830152611dc881611ac8565b9050919050565b60006020820190508181036000830152611de881611b08565b9050919050565b60006020820190508181036000830152611e0881611b48565b9050919050565b6000602082019050611e246000830184611c20565b92915050565b6000604051905081810181811067ffffffffffffffff82111715611e5157611e50612095565b5b8060405250919050565b600067ffffffffffffffff821115611e7657611e75612095565b5b601f19601f8301169050602081019050919050565b6000819050602082019050919050565b600081519050919050565b600081519050919050565b6000602082019050919050565b600082825260208201905092915050565b600082825260208201905092915050565b600082825260208201905092915050565b6000611efc82611fb9565b9150611f0783611fb9565b9250827fffffffffffffffffffffffffffffffffffffffffffffffffffffffffffffffff03821115611f3c57611f3b612037565b5b828201905092915050565b6000611f5282611fb9565b9150611f5d83611fb9565b925082821015611f7057611f6f612037565b5b828203905092915050565b6000611f8682611f99565b9050919050565b60008115159050919050565b600073ffffffffffffffffffffffffffffffffffffffff82169050919050565b6000819050919050565b82818337600083830152505050565b60005b83811015611ff0578082015181840152602081019050611fd5565b83811115611fff576000848401525b50505050565b6000600282049050600182168061201d57607f821691505b6020821081141561203157612030612066565b5b50919050565b7f4e487b7100000000000000000000000000000000000000000000000000000000600052601160045260246000fd5b7f4e487b7100000000000000000000000000000000000000000000000000000000600052602260045260246000fd5b7f4e487b7100000000000000000000000000000000000000000000000000000000600052604160045260246000fd5b6000601f19601f8301169050919050565b6120de81611f7b565b81146120e957600080fd5b50565b6120f581611fb9565b811461210057600080fd5b5056fea2646970667358221220f41a69e0b348c38b294c81da4ea25ebacd5f421ef91998a4db14268bed76153964736f6c63430008000033",
  "immutableReferences": {},
  "source": "// SPDX-License-Identifier: MIT\npragma solidity >=0.8.0 <0.9.0;\n//pragma experimental ABIEncoderV2; // Two level dynamic arrays support\n\nimport \"@openzeppelin/contracts/access/Ownable.sol\";\nimport \"./TaskFactory.sol\";\n\ncontract Todos is Ownable, TaskFactory{\n  \n  /*\n   * State variables\n   */\n\n  \n\n  /* \n   * Events\n   */\n  \n\n\n  /* \n   * Modifiers\n   */\n  \n\n\n  /* \n   * Functions\n   */\n  \n  // Get user's all tasks\n  function getTasks() public view returns (Task[] memory) {\n    return _getTasks();\n  }\n  \n  // Add a new task\n  function add(string memory _description, uint _dueDate) public {\n    _add(_description, _dueDate);\n  }\n\n  // Update a task TODO\n\n  // Set a task as completed\n  function setComplete(uint _id) public {\n    _setComplete(_id);\n  }\n\n  // Remove a task TODO\n\n  // Add prize to a task\n  function setPrize(uint _id) public payable {\n    _setPrize(_id);\n  }\n\n  // Clear a task\n  function clear(uint _id) public {\n    _clear(_id);\n  }\n  \n\n  // Pause contract deposits\n  function pause() public onlyOwner() {\n    _pause();\n  }\n\n  // Unpause contract deposits\n  function unpause() public onlyOwner() {\n    _unpause();\n  }\n\n}\n",
  "sourcePath": "/home/ubuntu/todo-list-dapp/blockchain/contracts/Todos.sol",
  "compiler": {
    "name": "solc",
    "version": "0.8.0+commit.c7dfd78e.Emscripten.clang"
  },
  "schemaVersion": "3.4.3",
  "updatedAt": "2021-09-26T21:22:02.522Z",
  "networkType": "ethereum",
  "devdoc": {
    "kind": "dev",
    "methods": {
      "owner()": {
        "details": "Returns the address of the current owner."
      },
      "paused()": {
        "details": "Returns true if the contract is paused, and false otherwise."
      },
      "renounceOwnership()": {
        "details": "Leaves the contract without owner. It will not be possible to call `onlyOwner` functions anymore. Can only be called by the current owner. NOTE: Renouncing ownership will leave the contract without an owner, thereby removing any functionality that is only available to the owner."
      },
      "transferOwnership(address)": {
        "details": "Transfers ownership of the contract to a new account (`newOwner`). Can only be called by the current owner."
      }
    },
    "version": 1
  },
  "userdoc": {
    "kind": "user",
    "methods": {},
    "version": 1
  }
}