{
  "contractName": "Todos",
  "abi": [
    {
      "anonymous": false,
      "inputs": [],
      "name": "LogTasksUpdated",
      "type": "event"
    },
    {
      "anonymous": false,
      "inputs": [
        {
          "indexed": true,
          "internalType": "address",
          "name": "previousOwner",
          "type": "address"
        },
        {
          "indexed": true,
          "internalType": "address",
          "name": "newOwner",
          "type": "address"
        }
      ],
      "name": "OwnershipTransferred",
      "type": "event"
    },
    {
      "anonymous": false,
      "inputs": [
        {
          "indexed": false,
          "internalType": "address",
          "name": "account",
          "type": "address"
        }
      ],
      "name": "Paused",
      "type": "event"
    },
    {
      "anonymous": false,
      "inputs": [
        {
          "indexed": false,
          "internalType": "address",
          "name": "account",
          "type": "address"
        }
      ],
      "name": "Unpaused",
      "type": "event"
    },
    {
      "stateMutability": "payable",
      "type": "fallback",
      "payable": true
    },
    {
      "inputs": [],
      "name": "PUNISHMENT_TIME",
      "outputs": [
        {
          "internalType": "uint256",
          "name": "",
          "type": "uint256"
        }
      ],
      "stateMutability": "view",
      "type": "function",
      "constant": true
    },
    {
      "inputs": [],
      "name": "getPrize",
      "outputs": [
        {
          "internalType": "uint256",
          "name": "",
          "type": "uint256"
        }
      ],
      "stateMutability": "view",
      "type": "function",
      "constant": true
    },
    {
      "inputs": [],
      "name": "owner",
      "outputs": [
        {
          "internalType": "address",
          "name": "",
          "type": "address"
        }
      ],
      "stateMutability": "view",
      "type": "function",
      "constant": true
    },
    {
      "inputs": [],
      "name": "paused",
      "outputs": [
        {
          "internalType": "bool",
          "name": "",
          "type": "bool"
        }
      ],
      "stateMutability": "view",
      "type": "function",
      "constant": true
    },
    {
      "inputs": [
        {
          "internalType": "address",
          "name": "",
          "type": "address"
        }
      ],
      "name": "prizes",
      "outputs": [
        {
          "internalType": "uint256",
          "name": "",
          "type": "uint256"
        }
      ],
      "stateMutability": "view",
      "type": "function",
      "constant": true
    },
    {
      "inputs": [],
      "name": "renounceOwnership",
      "outputs": [],
      "stateMutability": "nonpayable",
      "type": "function"
    },
    {
      "inputs": [
        {
          "internalType": "address",
          "name": "",
          "type": "address"
        },
        {
          "internalType": "uint256",
          "name": "",
          "type": "uint256"
        }
      ],
      "name": "tasks",
      "outputs": [
        {
          "internalType": "string",
          "name": "description",
          "type": "string"
        },
        {
          "internalType": "uint256",
          "name": "createdAt",
          "type": "uint256"
        },
        {
          "internalType": "uint256",
          "name": "value",
          "type": "uint256"
        },
        {
          "internalType": "uint256",
          "name": "dueDate",
          "type": "uint256"
        },
        {
          "internalType": "bool",
          "name": "completed",
          "type": "bool"
        },
        {
          "internalType": "bool",
          "name": "cleared",
          "type": "bool"
        }
      ],
      "stateMutability": "view",
      "type": "function",
      "constant": true
    },
    {
      "inputs": [
        {
          "internalType": "address",
          "name": "newOwner",
          "type": "address"
        }
      ],
      "name": "transferOwnership",
      "outputs": [],
      "stateMutability": "nonpayable",
      "type": "function"
    },
    {
      "inputs": [
        {
          "internalType": "uint256",
          "name": "withdrawAmount",
          "type": "uint256"
        }
      ],
      "name": "withdrawPrize",
      "outputs": [
        {
          "internalType": "uint256",
          "name": "",
          "type": "uint256"
        }
      ],
      "stateMutability": "nonpayable",
      "type": "function"
    },
    {
      "stateMutability": "payable",
      "type": "receive",
      "payable": true
    },
    {
      "inputs": [],
      "name": "getTasks",
      "outputs": [
        {
          "components": [
            {
              "internalType": "string",
              "name": "description",
              "type": "string"
            },
            {
              "internalType": "uint256",
              "name": "createdAt",
              "type": "uint256"
            },
            {
              "internalType": "uint256",
              "name": "value",
              "type": "uint256"
            },
            {
              "internalType": "uint256",
              "name": "dueDate",
              "type": "uint256"
            },
            {
              "internalType": "bool",
              "name": "completed",
              "type": "bool"
            },
            {
              "internalType": "bool",
              "name": "cleared",
              "type": "bool"
            }
          ],
          "internalType": "struct TaskFactory.Task[]",
          "name": "",
          "type": "tuple[]"
        }
      ],
      "stateMutability": "view",
      "type": "function",
      "constant": true
    },
    {
      "inputs": [
        {
          "internalType": "string",
          "name": "_description",
          "type": "string"
        },
        {
          "internalType": "uint256",
          "name": "_dueDate",
          "type": "uint256"
        }
      ],
      "name": "add",
      "outputs": [],
      "stateMutability": "nonpayable",
      "type": "function"
    },
    {
      "inputs": [
        {
          "internalType": "uint256",
          "name": "_id",
          "type": "uint256"
        }
      ],
      "name": "setComplete",
      "outputs": [],
      "stateMutability": "nonpayable",
      "type": "function"
    },
    {
      "inputs": [
        {
          "internalType": "uint256",
          "name": "_id",
          "type": "uint256"
        }
      ],
      "name": "remove",
      "outputs": [],
      "stateMutability": "nonpayable",
      "type": "function"
    },
    {
      "inputs": [
        {
          "internalType": "uint256",
          "name": "_id",
          "type": "uint256"
        }
      ],
      "name": "setPrize",
      "outputs": [],
      "stateMutability": "payable",
      "type": "function",
      "payable": true
    },
    {
      "inputs": [
        {
          "internalType": "uint256",
          "name": "_id",
          "type": "uint256"
        }
      ],
      "name": "clear",
      "outputs": [],
      "stateMutability": "nonpayable",
      "type": "function"
    },
    {
      "inputs": [],
      "name": "pause",
      "outputs": [],
      "stateMutability": "nonpayable",
      "type": "function"
    },
    {
      "inputs": [],
      "name": "unpause",
      "outputs": [],
      "stateMutability": "nonpayable",
      "type": "function"
    }
  ],
  "bytecode": "0x60806040523480156200001157600080fd5b5062000032620000266200005360201b60201c565b6200005b60201b60201c565b6000600160146101000a81548160ff02191690831515021790555062000121565b600033905090565b6000600160009054906101000a900473ffffffffffffffffffffffffffffffffffffffff16905081600160006101000a81548173ffffffffffffffffffffffffffffffffffffffff021916908373ffffffffffffffffffffffffffffffffffffffff1602179055508173ffffffffffffffffffffffffffffffffffffffff168173ffffffffffffffffffffffffffffffffffffffff167f8be0079c531659141344cd1fd0a4f28419497f9722a3daafe3b4186f6b6457e060405160405180910390a35050565b61256d80620001316000396000f3fe6080604052600436106101025760003560e01c80638456cb5911610095578063b35d11bf11610064578063b35d11bf146102db578063c0fe1af814610318578063c20eec7b14610341578063c34f6b0d1461037e578063f2fde38b146103a95761010c565b80638456cb591461024557806389e8491f1461025c5780638ced8132146102855780638da5cb5b146102b05761010c565b80635c975abb116100d15780635c975abb146101a55780636ca7f3ba146101d05780637149d2e4146101ec578063715018a61461022e5761010c565b806304a87e381461011157806336555b851461013c5780633f4ba83a146101655780634cc822151461017c5761010c565b3661010c57600080fd5b600080fd5b34801561011d57600080fd5b506101266103d2565b604051610133919061207e565b60405180910390f35b34801561014857600080fd5b50610163600480360381019061015e9190611bb1565b6103e1565b005b34801561017157600080fd5b5061017a6103ef565b005b34801561018857600080fd5b506101a3600480360381019061019e9190611c05565b610475565b005b3480156101b157600080fd5b506101ba610481565b6040516101c791906120a0565b60405180910390f35b6101ea60048036038101906101e59190611c05565b610498565b005b3480156101f857600080fd5b50610213600480360381019061020e9190611b75565b6104a4565b604051610225969594939291906120bb565b60405180910390f35b34801561023a57600080fd5b5061024361059f565b005b34801561025157600080fd5b5061025a610627565b005b34801561026857600080fd5b50610283600480360381019061027e9190611c05565b6106ad565b005b34801561029157600080fd5b5061029a6106b9565b6040516102a79190612243565b60405180910390f35b3480156102bc57600080fd5b506102c56106be565b6040516102d29190612063565b60405180910390f35b3480156102e757600080fd5b5061030260048036038101906102fd9190611b4c565b6106e8565b60405161030f9190612243565b60405180910390f35b34801561032457600080fd5b5061033f600480360381019061033a9190611c05565b610700565b005b34801561034d57600080fd5b5061036860048036038101906103639190611c05565b61070c565b6040516103759190612243565b60405180910390f35b34801561038a57600080fd5b506103936107cd565b6040516103a09190612243565b60405180910390f35b3480156103b557600080fd5b506103d060048036038101906103cb9190611b4c565b610813565b005b60606103dc61090b565b905090565b6103eb8282610a8d565b5050565b6103f7610bf5565b73ffffffffffffffffffffffffffffffffffffffff166104156106be565b73ffffffffffffffffffffffffffffffffffffffff161461046b576040517f08c379a0000000000000000000000000000000000000000000000000000000008152600401610462906121e3565b60405180910390fd5b610473610bfd565b565b61047e81610c9f565b50565b6000600160149054906101000a900460ff16905090565b6104a181610fc6565b50565b600260205281600052604060002081815481106104c057600080fd5b9060005260206000209060050201600091509150508060000180546104e490612439565b80601f016020809104026020016040519081016040528092919081815260200182805461051090612439565b801561055d5780601f106105325761010080835404028352916020019161055d565b820191906000526020600020905b81548152906001019060200180831161054057829003601f168201915b5050505050908060010154908060020154908060030154908060040160009054906101000a900460ff16908060040160019054906101000a900460ff16905086565b6105a7610bf5565b73ffffffffffffffffffffffffffffffffffffffff166105c56106be565b73ffffffffffffffffffffffffffffffffffffffff161461061b576040517f08c379a0000000000000000000000000000000000000000000000000000000008152600401610612906121e3565b60405180910390fd5b61062560006110b9565b565b61062f610bf5565b73ffffffffffffffffffffffffffffffffffffffff1661064d6106be565b73ffffffffffffffffffffffffffffffffffffffff16146106a3576040517f08c379a000000000000000000000000000000000000000000000000000000000815260040161069a906121e3565b60405180910390fd5b6106ab61117f565b565b6106b681611221565b50565b603c81565b6000600160009054906101000a900473ffffffffffffffffffffffffffffffffffffffff16905090565b60006020528060005260406000206000915090505481565b61070981611330565b50565b6000816107176107cd565b101561072257600080fd5b816000803373ffffffffffffffffffffffffffffffffffffffff1673ffffffffffffffffffffffffffffffffffffffff1681526020019081526020016000206000828254610770919061237b565b925050819055503373ffffffffffffffffffffffffffffffffffffffff166108fc839081150290604051600060405180830381858888f193505050501580156107bd573d6000803e3d6000fd5b506107c66107cd565b9050919050565b60008060003373ffffffffffffffffffffffffffffffffffffffff1673ffffffffffffffffffffffffffffffffffffffff16815260200190815260200160002054905090565b61081b610bf5565b73ffffffffffffffffffffffffffffffffffffffff166108396106be565b73ffffffffffffffffffffffffffffffffffffffff161461088f576040517f08c379a0000000000000000000000000000000000000000000000000000000008152600401610886906121e3565b60405180910390fd5b600073ffffffffffffffffffffffffffffffffffffffff168173ffffffffffffffffffffffffffffffffffffffff1614156108ff576040517f08c379a00000000000000000000000000000000000000000000000000000000081526004016108f690612183565b60405180910390fd5b610908816110b9565b50565b6060600260003373ffffffffffffffffffffffffffffffffffffffff1673ffffffffffffffffffffffffffffffffffffffff168152602001908152602001600020805480602002602001604051908101604052809291908181526020016000905b82821015610a8457838290600052602060002090600502016040518060c001604052908160008201805461099f90612439565b80601f01602080910402602001604051908101604052809291908181526020018280546109cb90612439565b8015610a185780601f106109ed57610100808354040283529160200191610a18565b820191906000526020600020905b8154815290600101906020018083116109fb57829003601f168201915b505050505081526020016001820154815260200160028201548152602001600382015481526020016004820160009054906101000a900460ff161515151581526020016004820160019054906101000a900460ff1615151515815250508152602001906001019061096c565b50505050905090565b806000811480610a9c57504281115b610aa557600080fd5b60006040518060c0016040528085815260200142815260200160008152602001848152602001600015158152602001600115158152509050600260003373ffffffffffffffffffffffffffffffffffffffff1673ffffffffffffffffffffffffffffffffffffffff1681526020019081526020016000208190806001815401808255809150506001900390600052602060002090600502016000909190919091506000820151816000019080519060200190610b62929190611910565b5060208201518160010155604082015181600201556060820151816003015560808201518160040160006101000a81548160ff02191690831515021790555060a08201518160040160016101000a81548160ff02191690831515021790555050507ff1d942a3aa0252ca9653f82dac1b78fedc485a12a7f7ce983e614d3914e7114560405160405180910390a150505050565b600033905090565b610c05610481565b610c44576040517f08c379a0000000000000000000000000000000000000000000000000000000008152600401610c3b90612163565b60405180910390fd5b6000600160146101000a81548160ff0219169083151502179055507f5db9ee0a495bf2e6ff9c91a7834c1ba4fdd244a5e8aa4e537bd38aeae4b073aa610c88610bf5565b604051610c959190612063565b60405180910390a1565b80610ca981611442565b15610cb357600080fd5b6000600260003373ffffffffffffffffffffffffffffffffffffffff1673ffffffffffffffffffffffffffffffffffffffff168152602001908152602001600020805490509050808310610d0657600080fd5b600260003373ffffffffffffffffffffffffffffffffffffffff1673ffffffffffffffffffffffffffffffffffffffff168152602001908152602001600020600182610d52919061237b565b81548110610d89577f4e487b7100000000000000000000000000000000000000000000000000000000600052603260045260246000fd5b9060005260206000209060050201600260003373ffffffffffffffffffffffffffffffffffffffff1673ffffffffffffffffffffffffffffffffffffffff1681526020019081526020016000208481548110610e0e577f4e487b7100000000000000000000000000000000000000000000000000000000600052603260045260246000fd5b90600052602060002090600502016000820181600001908054610e3090612439565b610e3b929190611996565b506001820154816001015560028201548160020155600382015481600301556004820160009054906101000a900460ff168160040160006101000a81548160ff0219169083151502179055506004820160019054906101000a900460ff168160040160016101000a81548160ff021916908315150217905550905050600260003373ffffffffffffffffffffffffffffffffffffffff1673ffffffffffffffffffffffffffffffffffffffff168152602001908152602001600020805480610f2c577f4e487b7100000000000000000000000000000000000000000000000000000000600052603160045260246000fd5b600190038181906000526020600020906005020160008082016000610f519190611a23565b6001820160009055600282016000905560038201600090556004820160006101000a81549060ff02191690556004820160016101000a81549060ff0219169055505090557ff1d942a3aa0252ca9653f82dac1b78fedc485a12a7f7ce983e614d3914e7114560405160405180910390a1505050565b806000610fd282611476565b606001511415610fe157600080fd5b81610feb81611476565b6080015115610ff957600080fd5b611001610481565b15611041576040517f08c379a0000000000000000000000000000000000000000000000000000000008152600401611038906121c3565b60405180910390fd5b600061104c84611476565b9050600081604001511461105f57600080fd5b61106884611649565b1561107257600080fd5b8060a0015161108057600080fd5b600034141561108e57600080fd5b3481604001818152505060008160a00190151590811515815250506110b3848261167e565b50505050565b6000600160009054906101000a900473ffffffffffffffffffffffffffffffffffffffff16905081600160006101000a81548173ffffffffffffffffffffffffffffffffffffffff021916908373ffffffffffffffffffffffffffffffffffffffff1602179055508173ffffffffffffffffffffffffffffffffffffffff168173ffffffffffffffffffffffffffffffffffffffff167f8be0079c531659141344cd1fd0a4f28419497f9722a3daafe3b4186f6b6457e060405160405180910390a35050565b611187610481565b156111c7576040517f08c379a00000000000000000000000000000000000000000000000000000000081526004016111be906121c3565b60405180910390fd5b60018060146101000a81548160ff0219169083151502179055507f62e78cea01bee320cd4e420270b5ea74000d11b0c9f74754ebdbfc544b05a25861120a610bf5565b6040516112179190612063565b60405180910390a1565b8061122b81611476565b608001511561123957600080fd5b61124282611649565b15611282576040517f08c379a000000000000000000000000000000000000000000000000000000000815260040161127990612223565b60405180910390fd5b61128b826117b2565b156112cb576040517f08c379a00000000000000000000000000000000000000000000000000000000081526004016112c2906121a3565b60405180910390fd5b60006112d683611476565b905060018160800190151590811515815250508060a001516113205760018160a001901515908115158152505061130d838261167e565b61131b3382604001516117f2565b61132b565b61132a838261167e565b5b505050565b600061133b82611476565b905061134682611442565b611385576040517f08c379a000000000000000000000000000000000000000000000000000000000815260040161137c90612203565b60405180910390fd5b61138e826117b2565b156113ce576040517f08c379a00000000000000000000000000000000000000000000000000000000081526004016113c590612123565b60405180910390fd5b6113d78261188b565b611416576040517f08c379a000000000000000000000000000000000000000000000000000000000815260040161140d90612143565b60405180910390fd5b60018160a001901515908115158152505061143481604001516118c6565b61143e828261167e565b5050565b60008061144e83611476565b9050600081604001511415611467576000915050611471565b8060a00151159150505b919050565b61147e611a63565b81600260003373ffffffffffffffffffffffffffffffffffffffff1673ffffffffffffffffffffffffffffffffffffffff16815260200190815260200160002080549050116114cc57600080fd5b600260003373ffffffffffffffffffffffffffffffffffffffff1673ffffffffffffffffffffffffffffffffffffffff1681526020019081526020016000208281548110611543577f4e487b7100000000000000000000000000000000000000000000000000000000600052603260045260246000fd5b90600052602060002090600502016040518060c001604052908160008201805461156c90612439565b80601f016020809104026020016040519081016040528092919081815260200182805461159890612439565b80156115e55780601f106115ba576101008083540402835291602001916115e5565b820191906000526020600020905b8154815290600101906020018083116115c857829003601f168201915b505050505081526020016001820154815260200160028201548152602001600382015481526020016004820160009054906101000a900460ff161515151581526020016004820160019054906101000a900460ff1615151515815250509050919050565b60008061165583611476565b905060008160600151141561166e576000915050611679565b428160600151109150505b919050565b80600260003373ffffffffffffffffffffffffffffffffffffffff1673ffffffffffffffffffffffffffffffffffffffff16815260200190815260200160002083815481106116f6577f4e487b7100000000000000000000000000000000000000000000000000000000600052603260045260246000fd5b90600052602060002090600502016000820151816000019080519060200190611720929190611910565b5060208201518160010155604082015181600201556060820151816003015560808201518160040160006101000a81548160ff02191690831515021790555060a08201518160040160016101000a81548160ff0219169083151502179055509050507ff1d942a3aa0252ca9653f82dac1b78fedc485a12a7f7ce983e614d3914e7114560405160405180910390a15050565b60006117bd82611442565b6117ca57600090506117ed565b6117d382611649565b6117e057600090506117ed565b6117e98261188b565b1590505b919050565b60008060008473ffffffffffffffffffffffffffffffffffffffff1673ffffffffffffffffffffffffffffffffffffffff16815260200190815260200160002054905081816118419190612325565b9050806000808573ffffffffffffffffffffffffffffffffffffffff1673ffffffffffffffffffffffffffffffffffffffff16815260200190815260200160002081905550505050565b60008061189783611476565b9050603c81606001516118aa9190612325565b4211156118bb5760019150506118c1565b60009150505b919050565b3373ffffffffffffffffffffffffffffffffffffffff166108fc829081150290604051600060405180830381858888f1935050505015801561190c573d6000803e3d6000fd5b5050565b82805461191c90612439565b90600052602060002090601f01602090048101928261193e5760008555611985565b82601f1061195757805160ff1916838001178555611985565b82800160010185558215611985579182015b82811115611984578251825591602001919060010190611969565b5b5090506119929190611a9d565b5090565b8280546119a290612439565b90600052602060002090601f0160209004810192826119c45760008555611a12565b82601f106119d55780548555611a12565b82800160010185558215611a1257600052602060002091601f016020900482015b82811115611a115782548255916001019190600101906119f6565b5b509050611a1f9190611a9d565b5090565b508054611a2f90612439565b6000825580601f10611a415750611a60565b601f016020900490600052602060002090810190611a5f9190611a9d565b5b50565b6040518060c00160405280606081526020016000815260200160008152602001600081526020016000151581526020016000151581525090565b5b80821115611ab6576000816000905550600101611a9e565b5090565b6000611acd611ac88461228f565b61225e565b905082815260208101848484011115611ae557600080fd5b611af08482856123f7565b509392505050565b600081359050611b0781612509565b92915050565b600082601f830112611b1e57600080fd5b8135611b2e848260208601611aba565b91505092915050565b600081359050611b4681612520565b92915050565b600060208284031215611b5e57600080fd5b6000611b6c84828501611af8565b91505092915050565b60008060408385031215611b8857600080fd5b6000611b9685828601611af8565b9250506020611ba785828601611b37565b9150509250929050565b60008060408385031215611bc457600080fd5b600083013567ffffffffffffffff811115611bde57600080fd5b611bea85828601611b0d565b9250506020611bfb85828601611b37565b9150509250929050565b600060208284031215611c1757600080fd5b6000611c2584828501611b37565b91505092915050565b6000611c3a8383611fbc565b905092915050565b611c4b816123af565b82525050565b6000611c5c826122cf565b611c6681856122f2565b935083602082028501611c78856122bf565b8060005b85811015611cb45784840389528151611c958582611c2e565b9450611ca0836122e5565b925060208a01995050600181019050611c7c565b50829750879550505050505092915050565b611ccf816123c1565b82525050565b611cde816123c1565b82525050565b6000611cef826122da565b611cf98185612303565b9350611d09818560208601612406565b611d12816124f8565b840191505092915050565b6000611d28826122da565b611d328185612314565b9350611d42818560208601612406565b611d4b816124f8565b840191505092915050565b6000611d63601983612314565b91507f5461736b20697320756e6465722070756e6973686d656e7421000000000000006000830152602082019050919050565b6000611da3601683612314565b91507f50756e6973686d656e74206973206e6f74206f766572000000000000000000006000830152602082019050919050565b6000611de3601483612314565b91507f5061757361626c653a206e6f74207061757365640000000000000000000000006000830152602082019050919050565b6000611e23602683612314565b91507f4f776e61626c653a206e6577206f776e657220697320746865207a65726f206160008301527f64647265737300000000000000000000000000000000000000000000000000006020830152604082019050919050565b6000611e89601883612314565b91507f7461736b20697320756e6465722070756e6973686d656e7400000000000000006000830152602082019050919050565b6000611ec9601083612314565b91507f5061757361626c653a20706175736564000000000000000000000000000000006000830152602082019050919050565b6000611f09602083612314565b91507f4f776e61626c653a2063616c6c6572206973206e6f7420746865206f776e65726000830152602082019050919050565b6000611f49601383612314565b91507f446f6e277420686176652061207072697a6521000000000000000000000000006000830152602082019050919050565b6000611f89601383612314565b91507f64756520646174652069732065787069726564000000000000000000000000006000830152602082019050919050565b600060c0830160008301518482036000860152611fd98282611ce4565b9150506020830151611fee6020860182612045565b5060408301516120016040860182612045565b5060608301516120146060860182612045565b5060808301516120276080860182611cc6565b5060a083015161203a60a0860182611cc6565b508091505092915050565b61204e816123ed565b82525050565b61205d816123ed565b82525050565b60006020820190506120786000830184611c42565b92915050565b600060208201905081810360008301526120988184611c51565b905092915050565b60006020820190506120b56000830184611cd5565b92915050565b600060c08201905081810360008301526120d58189611d1d565b90506120e46020830188612054565b6120f16040830187612054565b6120fe6060830186612054565b61210b6080830185611cd5565b61211860a0830184611cd5565b979650505050505050565b6000602082019050818103600083015261213c81611d56565b9050919050565b6000602082019050818103600083015261215c81611d96565b9050919050565b6000602082019050818103600083015261217c81611dd6565b9050919050565b6000602082019050818103600083015261219c81611e16565b9050919050565b600060208201905081810360008301526121bc81611e7c565b9050919050565b600060208201905081810360008301526121dc81611ebc565b9050919050565b600060208201905081810360008301526121fc81611efc565b9050919050565b6000602082019050818103600083015261221c81611f3c565b9050919050565b6000602082019050818103600083015261223c81611f7c565b9050919050565b60006020820190506122586000830184612054565b92915050565b6000604051905081810181811067ffffffffffffffff82111715612285576122846124c9565b5b8060405250919050565b600067ffffffffffffffff8211156122aa576122a96124c9565b5b601f19601f8301169050602081019050919050565b6000819050602082019050919050565b600081519050919050565b600081519050919050565b6000602082019050919050565b600082825260208201905092915050565b600082825260208201905092915050565b600082825260208201905092915050565b6000612330826123ed565b915061233b836123ed565b9250827fffffffffffffffffffffffffffffffffffffffffffffffffffffffffffffffff038211156123705761236f61246b565b5b828201905092915050565b6000612386826123ed565b9150612391836123ed565b9250828210156123a4576123a361246b565b5b828203905092915050565b60006123ba826123cd565b9050919050565b60008115159050919050565b600073ffffffffffffffffffffffffffffffffffffffff82169050919050565b6000819050919050565b82818337600083830152505050565b60005b83811015612424578082015181840152602081019050612409565b83811115612433576000848401525b50505050565b6000600282049050600182168061245157607f821691505b602082108114156124655761246461249a565b5b50919050565b7f4e487b7100000000000000000000000000000000000000000000000000000000600052601160045260246000fd5b7f4e487b7100000000000000000000000000000000000000000000000000000000600052602260045260246000fd5b7f4e487b7100000000000000000000000000000000000000000000000000000000600052604160045260246000fd5b6000601f19601f8301169050919050565b612512816123af565b811461251d57600080fd5b50565b612529816123ed565b811461253457600080fd5b5056fea26469706673582212200c1649a51f04bd020ce1d09bd708f25ccd54ba96a574358708be5ca1a4d677d164736f6c63430008000033",
  "immutableReferences": {},
  "source": "// SPDX-License-Identifier: MIT\npragma solidity >=0.8.0 <0.9.0;\n//pragma experimental ABIEncoderV2; // Two level dynamic arrays support\n\nimport \"@openzeppelin/contracts/access/Ownable.sol\";\nimport \"./TaskFactory.sol\";\n\ncontract Todos is Ownable, TaskFactory{\n\n  /// @notice Get all tasks of msg sender\n  /// @return Tasks array\n  function getTasks() public view returns (Task[] memory) {\n    return _getTasks();\n  }\n  \n  /// @notice Add a new task for msg sender\n  /// @param _description Task decription\n  /// @param _dueDate Task due date\n  function add(string memory _description, uint _dueDate) public {\n    _add(_description, _dueDate);\n  }\n\n  // Update a task TODO\n\n  // Set a task as completed\n  function setComplete(uint _id) public {\n    _setComplete(_id);\n  }\n\n  // Remove a task\n  function remove(uint _id) public {\n    _remove(_id);\n  }\n\n  // Add prize to a task\n  function setPrize(uint _id) public payable {\n    _setPrize(_id);\n  }\n\n  // Clear a task\n  function clear(uint _id) public {\n    _clear(_id);\n  }\n  \n\n  // Pause contract deposits\n  function pause() public onlyOwner() {\n    _pause();\n  }\n\n  // Unpause contract deposits\n  function unpause() public onlyOwner() {\n    _unpause();\n  }\n\n}\n",
  "sourcePath": "/home/ubuntu/todo-list-dapp/blockchain/contracts/Todos.sol",
  "compiler": {
    "name": "solc",
    "version": "0.8.0+commit.c7dfd78e.Emscripten.clang"
  },
  "schemaVersion": "3.4.3",
  "updatedAt": "2021-09-30T22:29:27.641Z",
  "networkType": "ethereum",
  "devdoc": {
    "kind": "dev",
    "methods": {
      "add(string,uint256)": {
        "params": {
          "_description": "Task decription",
          "_dueDate": "Task due date"
        }
      },
      "getTasks()": {
        "returns": {
          "_0": "Tasks array"
        }
      },
      "owner()": {
        "details": "Returns the address of the current owner."
      },
      "paused()": {
        "details": "Returns true if the contract is paused, and false otherwise."
      },
      "renounceOwnership()": {
        "details": "Leaves the contract without owner. It will not be possible to call `onlyOwner` functions anymore. Can only be called by the current owner. NOTE: Renouncing ownership will leave the contract without an owner, thereby removing any functionality that is only available to the owner."
      },
      "transferOwnership(address)": {
        "details": "Transfers ownership of the contract to a new account (`newOwner`). Can only be called by the current owner."
      }
    },
    "version": 1
  },
  "userdoc": {
    "kind": "user",
    "methods": {
      "add(string,uint256)": {
        "notice": "Add a new task for msg sender"
      },
      "getTasks()": {
        "notice": "Get all tasks of msg sender"
      }
    },
    "version": 1
  }
}