{
  "contractName": "Prizable",
  "abi": [
    {
      "stateMutability": "payable",
      "type": "fallback"
    },
    {
      "inputs": [
        {
          "internalType": "address",
          "name": "",
          "type": "address"
        }
      ],
      "name": "prizes",
      "outputs": [
        {
          "internalType": "uint256",
          "name": "",
          "type": "uint256"
        }
      ],
      "stateMutability": "view",
      "type": "function"
    },
    {
      "stateMutability": "payable",
      "type": "receive"
    },
    {
      "inputs": [],
      "name": "getPrize",
      "outputs": [
        {
          "internalType": "uint256",
          "name": "",
          "type": "uint256"
        }
      ],
      "stateMutability": "view",
      "type": "function"
    },
    {
      "inputs": [
        {
          "internalType": "uint256",
          "name": "withdrawAmount",
          "type": "uint256"
        }
      ],
      "name": "withdrawPrize",
      "outputs": [
        {
          "internalType": "uint256",
          "name": "",
          "type": "uint256"
        }
      ],
      "stateMutability": "nonpayable",
      "type": "function"
    }
  ],
  "bytecode": "0x608060405234801561001057600080fd5b506103b4806100206000396000f3fe6080604052600436106100385760003560e01c8063b35d11bf14610047578063c20eec7b14610084578063c34f6b0d146100c157610042565b3661004257600080fd5b600080fd5b34801561005357600080fd5b5061006e60048036038101906100699190610235565b6100ec565b60405161007b9190610296565b60405180910390f35b34801561009057600080fd5b506100ab60048036038101906100a6919061025e565b610104565b6040516100b89190610296565b60405180910390f35b3480156100cd57600080fd5b506100d66101c5565b6040516100e39190610296565b60405180910390f35b60006020528060005260406000206000915090505481565b60008161010f6101c5565b101561011a57600080fd5b816000803373ffffffffffffffffffffffffffffffffffffffff1673ffffffffffffffffffffffffffffffffffffffff168152602001908152602001600020600082825461016891906102b1565b925050819055503373ffffffffffffffffffffffffffffffffffffffff166108fc839081150290604051600060405180830381858888f193505050501580156101b5573d6000803e3d6000fd5b506101be6101c5565b9050919050565b60008060003373ffffffffffffffffffffffffffffffffffffffff1673ffffffffffffffffffffffffffffffffffffffff16815260200190815260200160002054905090565b60008135905061021a81610350565b92915050565b60008135905061022f81610367565b92915050565b60006020828403121561024757600080fd5b60006102558482850161020b565b91505092915050565b60006020828403121561027057600080fd5b600061027e84828501610220565b91505092915050565b61029081610317565b82525050565b60006020820190506102ab6000830184610287565b92915050565b60006102bc82610317565b91506102c783610317565b9250828210156102da576102d9610321565b5b828203905092915050565b60006102f0826102f7565b9050919050565b600073ffffffffffffffffffffffffffffffffffffffff82169050919050565b6000819050919050565b7f4e487b7100000000000000000000000000000000000000000000000000000000600052601160045260246000fd5b610359816102e5565b811461036457600080fd5b50565b61037081610317565b811461037b57600080fd5b5056fea26469706673582212206e49a14b45883df77e2e503d5f8fca767b93d011bb414316d1e7b29db5ee10c364736f6c63430008000033",
  "immutableReferences": {},
  "source": "// SPDX-License-Identifier: MIT\npragma solidity >=0.8.0 <0.9.0;\n\n\ncontract Prizable {\n    // Prizes\n    mapping (address => uint) public prizes;\n\n    // Fallback funciton\n    // No direct payment allowed\n    fallback() external payable {\n        revert();\n    }\n    receive() external payable {\n        revert();\n    }\n\n    function addPrize(address _address, uint _amount) internal {\n        uint balance = prizes[_address];\n        balance += _amount;\n        prizes[_address] = balance;\n    }\n\n    function getPrize() public view returns (uint) {\n        return prizes[msg.sender];\n    }\n    \n\n    function withdrawPrize(uint withdrawAmount) public returns (uint) {\n      // If the sender's balance is at least the amount they want to withdraw,\n      // Subtract the amount from the sender's balance, and try to send that amount of ether\n      // to the user attempting to withdraw. \n      // return the user's balance.\n\n      // 1. Use a require expression to guard/ensure sender has enough funds\n      require(getPrize() >= withdrawAmount);\n  \n      // 2. Transfer Eth to the sender and decrement the withdrawal amount from\n      //    sender's balance\n      prizes[msg.sender] -= withdrawAmount;\n      payable(msg.sender).transfer(withdrawAmount); // TODO\n\n      // 3. Emit the appropriate event for this message\n    //   emit LogWithdrawal(msg.sender, withdrawAmount, getBalance());\n\n      return getPrize();\n    }\n    \n}",
  "sourcePath": "/home/ubuntu/todo-list-dapp/contracts/Prizable.sol",
  "compiler": {
    "name": "solc",
    "version": "0.8.0+commit.c7dfd78e.Emscripten.clang"
  },
  "schemaVersion": "3.4.3",
  "updatedAt": "2021-09-11T14:21:05.197Z",
  "devdoc": {
    "kind": "dev",
    "methods": {},
    "version": 1
  },
  "userdoc": {
    "kind": "user",
    "methods": {},
    "version": 1
  }
}