{
  "contractName": "Todos",
  "abi": [
    {
      "inputs": [],
      "stateMutability": "nonpayable",
      "type": "constructor"
    },
    {
      "anonymous": false,
      "inputs": [
        {
          "indexed": false,
          "internalType": "address",
          "name": "userAddress",
          "type": "address"
        },
        {
          "indexed": false,
          "internalType": "uint256",
          "name": "taskID",
          "type": "uint256"
        }
      ],
      "name": "LogAdd",
      "type": "event"
    },
    {
      "inputs": [
        {
          "internalType": "address",
          "name": "",
          "type": "address"
        }
      ],
      "name": "credits",
      "outputs": [
        {
          "internalType": "uint256",
          "name": "",
          "type": "uint256"
        }
      ],
      "stateMutability": "view",
      "type": "function",
      "constant": true
    },
    {
      "inputs": [
        {
          "internalType": "address",
          "name": "",
          "type": "address"
        }
      ],
      "name": "prizes",
      "outputs": [
        {
          "internalType": "uint256",
          "name": "",
          "type": "uint256"
        }
      ],
      "stateMutability": "view",
      "type": "function",
      "constant": true
    },
    {
      "inputs": [
        {
          "internalType": "address",
          "name": "",
          "type": "address"
        },
        {
          "internalType": "uint256",
          "name": "",
          "type": "uint256"
        }
      ],
      "name": "tasks",
      "outputs": [
        {
          "internalType": "string",
          "name": "description",
          "type": "string"
        },
        {
          "internalType": "uint256",
          "name": "createdAt",
          "type": "uint256"
        },
        {
          "internalType": "uint256",
          "name": "value",
          "type": "uint256"
        },
        {
          "internalType": "uint256",
          "name": "dueDate",
          "type": "uint256"
        },
        {
          "internalType": "bool",
          "name": "completed",
          "type": "bool"
        },
        {
          "internalType": "bool",
          "name": "cleared",
          "type": "bool"
        }
      ],
      "stateMutability": "view",
      "type": "function",
      "constant": true
    },
    {
      "inputs": [
        {
          "internalType": "string",
          "name": "_description",
          "type": "string"
        },
        {
          "internalType": "uint256",
          "name": "_dueDate",
          "type": "uint256"
        }
      ],
      "name": "add",
      "outputs": [],
      "stateMutability": "nonpayable",
      "type": "function"
    },
    {
      "inputs": [
        {
          "internalType": "uint256",
          "name": "_taskID",
          "type": "uint256"
        },
        {
          "internalType": "string",
          "name": "_description",
          "type": "string"
        },
        {
          "internalType": "uint256",
          "name": "_dueDate",
          "type": "uint256"
        }
      ],
      "name": "update",
      "outputs": [],
      "stateMutability": "nonpayable",
      "type": "function"
    },
    {
      "inputs": [
        {
          "internalType": "uint256",
          "name": "_id",
          "type": "uint256"
        }
      ],
      "name": "setComplete",
      "outputs": [],
      "stateMutability": "nonpayable",
      "type": "function"
    },
    {
      "inputs": [
        {
          "internalType": "uint256",
          "name": "_id",
          "type": "uint256"
        }
      ],
      "name": "setIncomplete",
      "outputs": [],
      "stateMutability": "nonpayable",
      "type": "function"
    },
    {
      "inputs": [],
      "name": "getTasks",
      "outputs": [
        {
          "components": [
            {
              "internalType": "string",
              "name": "description",
              "type": "string"
            },
            {
              "internalType": "uint256",
              "name": "createdAt",
              "type": "uint256"
            },
            {
              "internalType": "uint256",
              "name": "value",
              "type": "uint256"
            },
            {
              "internalType": "uint256",
              "name": "dueDate",
              "type": "uint256"
            },
            {
              "internalType": "bool",
              "name": "completed",
              "type": "bool"
            },
            {
              "internalType": "bool",
              "name": "cleared",
              "type": "bool"
            }
          ],
          "internalType": "struct Todos.Task[]",
          "name": "",
          "type": "tuple[]"
        }
      ],
      "stateMutability": "view",
      "type": "function",
      "constant": true
    },
    {
      "inputs": [
        {
          "internalType": "uint256",
          "name": "_id",
          "type": "uint256"
        }
      ],
      "name": "getTask",
      "outputs": [
        {
          "components": [
            {
              "internalType": "string",
              "name": "description",
              "type": "string"
            },
            {
              "internalType": "uint256",
              "name": "createdAt",
              "type": "uint256"
            },
            {
              "internalType": "uint256",
              "name": "value",
              "type": "uint256"
            },
            {
              "internalType": "uint256",
              "name": "dueDate",
              "type": "uint256"
            },
            {
              "internalType": "bool",
              "name": "completed",
              "type": "bool"
            },
            {
              "internalType": "bool",
              "name": "cleared",
              "type": "bool"
            }
          ],
          "internalType": "struct Todos.Task",
          "name": "",
          "type": "tuple"
        }
      ],
      "stateMutability": "view",
      "type": "function",
      "constant": true
    }
  ],
  "bytecode": "0x608060405234801561001057600080fd5b50336000806101000a81548173ffffffffffffffffffffffffffffffffffffffff021916908373ffffffffffffffffffffffffffffffffffffffff160217905550611325806100606000396000f3fe608060405234801561001057600080fd5b50600436106100935760003560e01c806389e8491f1161006657806389e8491f14610137578063ad841e0714610153578063b35d11bf1461016f578063e7a9d4061461019f578063fe5ff468146101bb57610093565b806304a87e38146100985780631d65e77e146100b657806336555b85146100e65780637149d2e414610102575b600080fd5b6100a06101eb565b6040516100ad9190611008565b60405180910390f35b6100d060048036038101906100cb9190610d2f565b61036d565b6040516100dd9190611092565b60405180910390f35b61010060048036038101906100fb9190610cdb565b6104f2565b005b61011c60048036038101906101179190610c9f565b610615565b60405161012e9695949392919061102a565b60405180910390f35b610151600480360381019061014c9190610d2f565b610710565b005b61016d60048036038101906101689190610d58565b610776565b005b61018960048036038101906101849190610c76565b610928565b60405161019691906110b4565b60405180910390f35b6101b960048036038101906101b49190610d2f565b610940565b005b6101d560048036038101906101d09190610c76565b610999565b6040516101e291906110b4565b60405180910390f35b6060600160003373ffffffffffffffffffffffffffffffffffffffff1673ffffffffffffffffffffffffffffffffffffffff168152602001908152602001600020805480602002602001604051908101604052809291908181526020016000905b8282101561036457838290600052602060002090600502016040518060c001604052908160008201805461027f90611220565b80601f01602080910402602001604051908101604052809291908181526020018280546102ab90611220565b80156102f85780601f106102cd576101008083540402835291602001916102f8565b820191906000526020600020905b8154815290600101906020018083116102db57829003601f168201915b505050505081526020016001820154815260200160028201548152602001600382015481526020016004820160009054906101000a900460ff161515151581526020016004820160019054906101000a900460ff1615151515815250508152602001906001019061024c565b50505050905090565b610375610b07565b600160003373ffffffffffffffffffffffffffffffffffffffff1673ffffffffffffffffffffffffffffffffffffffff16815260200190815260200160002082815481106103ec577f4e487b7100000000000000000000000000000000000000000000000000000000600052603260045260246000fd5b90600052602060002090600502016040518060c001604052908160008201805461041590611220565b80601f016020809104026020016040519081016040528092919081815260200182805461044190611220565b801561048e5780601f106104635761010080835404028352916020019161048e565b820191906000526020600020905b81548152906001019060200180831161047157829003601f168201915b505050505081526020016001820154815260200160028201548152602001600382015481526020016004820160009054906101000a900460ff161515151581526020016004820160019054906101000a900460ff1615151515815250509050919050565b60006040518060c0016040528084815260200142815260200160008152602001838152602001600015158152602001600115158152509050600160003373ffffffffffffffffffffffffffffffffffffffff1673ffffffffffffffffffffffffffffffffffffffff16815260200190815260200160002081908060018154018082558091505060019003906000526020600020906005020160009091909190915060008201518160000190805190602001906105af929190610b41565b5060208201518160010155604082015181600201556060820151816003015560808201518160040160006101000a81548160ff02191690831515021790555060a08201518160040160016101000a81548160ff0219169083151502179055505050505050565b6001602052816000526040600020818154811061063157600080fd5b90600052602060002090600502016000915091505080600001805461065590611220565b80601f016020809104026020016040519081016040528092919081815260200182805461068190611220565b80156106ce5780601f106106a3576101008083540402835291602001916106ce565b820191906000526020600020905b8154815290600101906020018083116106b157829003601f168201915b5050505050908060010154908060020154908060030154908060040160009054906101000a900460ff16908060040160019054906101000a900460ff16905086565b8061071a8161036d565b608001511561072857600080fd5b60006107338361036d565b905061073e836109b1565b1580610750575061074e836109ca565b155b1561077157600181608001901515908115158152505061077083826109ff565b5b505050565b82610780816109b1565b1561078a57600080fd5b6000600160003373ffffffffffffffffffffffffffffffffffffffff1673ffffffffffffffffffffffffffffffffffffffff1681526020019081526020016000208581548110610803577f4e487b7100000000000000000000000000000000000000000000000000000000600052603260045260246000fd5b90600052602060002090600502016040518060c001604052908160008201805461082c90611220565b80601f016020809104026020016040519081016040528092919081815260200182805461085890611220565b80156108a55780601f1061087a576101008083540402835291602001916108a5565b820191906000526020600020905b81548152906001019060200180831161088857829003601f168201915b505050505081526020016001820154815260200160028201548152602001600382015481526020016004820160009054906101000a900460ff161515151581526020016004820160019054906101000a900460ff16151515158152505090508381600001819052508281606001818152505061092185826109ff565b5050505050565b60036020528060005260406000206000915090505481565b8061094a8161036d565b6080015161095757600080fd5b81610961816109b1565b1561096b57600080fd5b60006109768461036d565b9050600081608001901515908115158152505061099384826109ff565b50505050565b60026020528060005260406000206000915090505481565b6000806109bd8361036d565b6040015114159050919050565b6000806109d68361036d565b90506000816060015114156109ef5760009150506109fa565b428160600151109150505b919050565b80600160003373ffffffffffffffffffffffffffffffffffffffff1673ffffffffffffffffffffffffffffffffffffffff1681526020019081526020016000208381548110610a77577f4e487b7100000000000000000000000000000000000000000000000000000000600052603260045260246000fd5b90600052602060002090600502016000820151816000019080519060200190610aa1929190610b41565b5060208201518160010155604082015181600201556060820151816003015560808201518160040160006101000a81548160ff02191690831515021790555060a08201518160040160016101000a81548160ff0219169083151502179055509050505050565b6040518060c00160405280606081526020016000815260200160008152602001600081526020016000151581526020016000151581525090565b828054610b4d90611220565b90600052602060002090601f016020900481019282610b6f5760008555610bb6565b82601f10610b8857805160ff1916838001178555610bb6565b82800160010185558215610bb6579182015b82811115610bb5578251825591602001919060010190610b9a565b5b509050610bc39190610bc7565b5090565b5b80821115610be0576000816000905550600101610bc8565b5090565b6000610bf7610bf284611100565b6110cf565b905082815260208101848484011115610c0f57600080fd5b610c1a8482856111de565b509392505050565b600081359050610c31816112c1565b92915050565b600082601f830112610c4857600080fd5b8135610c58848260208601610be4565b91505092915050565b600081359050610c70816112d8565b92915050565b600060208284031215610c8857600080fd5b6000610c9684828501610c22565b91505092915050565b60008060408385031215610cb257600080fd5b6000610cc085828601610c22565b9250506020610cd185828601610c61565b9150509250929050565b60008060408385031215610cee57600080fd5b600083013567ffffffffffffffff811115610d0857600080fd5b610d1485828601610c37565b9250506020610d2585828601610c61565b9150509250929050565b600060208284031215610d4157600080fd5b6000610d4f84828501610c61565b91505092915050565b600080600060608486031215610d6d57600080fd5b6000610d7b86828701610c61565b935050602084013567ffffffffffffffff811115610d9857600080fd5b610da486828701610c37565b9250506040610db586828701610c61565b9150509250925092565b6000610dcb8383610ed8565b905092915050565b6000610dde82611140565b610de88185611163565b935083602082028501610dfa85611130565b8060005b85811015610e365784840389528151610e178582610dbf565b9450610e2283611156565b925060208a01995050600181019050610dfe565b50829750879550505050505092915050565b610e51816111a8565b82525050565b610e60816111a8565b82525050565b6000610e718261114b565b610e7b8185611174565b9350610e8b8185602086016111ed565b610e94816112b0565b840191505092915050565b6000610eaa8261114b565b610eb48185611185565b9350610ec48185602086016111ed565b610ecd816112b0565b840191505092915050565b600060c0830160008301518482036000860152610ef58282610e66565b9150506020830151610f0a6020860182610fea565b506040830151610f1d6040860182610fea565b506060830151610f306060860182610fea565b506080830151610f436080860182610e48565b5060a0830151610f5660a0860182610e48565b508091505092915050565b600060c0830160008301518482036000860152610f7e8282610e66565b9150506020830151610f936020860182610fea565b506040830151610fa66040860182610fea565b506060830151610fb96060860182610fea565b506080830151610fcc6080860182610e48565b5060a0830151610fdf60a0860182610e48565b508091505092915050565b610ff3816111d4565b82525050565b611002816111d4565b82525050565b600060208201905081810360008301526110228184610dd3565b905092915050565b600060c08201905081810360008301526110448189610e9f565b90506110536020830188610ff9565b6110606040830187610ff9565b61106d6060830186610ff9565b61107a6080830185610e57565b61108760a0830184610e57565b979650505050505050565b600060208201905081810360008301526110ac8184610f61565b905092915050565b60006020820190506110c96000830184610ff9565b92915050565b6000604051905081810181811067ffffffffffffffff821117156110f6576110f5611281565b5b8060405250919050565b600067ffffffffffffffff82111561111b5761111a611281565b5b601f19601f8301169050602081019050919050565b6000819050602082019050919050565b600081519050919050565b600081519050919050565b6000602082019050919050565b600082825260208201905092915050565b600082825260208201905092915050565b600082825260208201905092915050565b60006111a1826111b4565b9050919050565b60008115159050919050565b600073ffffffffffffffffffffffffffffffffffffffff82169050919050565b6000819050919050565b82818337600083830152505050565b60005b8381101561120b5780820151818401526020810190506111f0565b8381111561121a576000848401525b50505050565b6000600282049050600182168061123857607f821691505b6020821081141561124c5761124b611252565b5b50919050565b7f4e487b7100000000000000000000000000000000000000000000000000000000600052602260045260246000fd5b7f4e487b7100000000000000000000000000000000000000000000000000000000600052604160045260246000fd5b6000601f19601f8301169050919050565b6112ca81611196565b81146112d557600080fd5b50565b6112e1816111d4565b81146112ec57600080fd5b5056fea2646970667358221220348def199ad1ba03454bc6ecc3efb04399b351ae7759573c842d0f4713bc0f0964736f6c63430008000033",
  "immutableReferences": {},
  "source": "// SPDX-License-Identifier: MIT\npragma solidity >=0.8.0 <0.9.0;\n//pragma experimental ABIEncoderV2; // Two level dynamic arrays support\n\ncontract Todos {\n  /*\n   * Constant variables\n   */\n  \n  // Punishment period in seconds\n  uint constant PUNISHMENT_TIME = 30 days;\n\n  /*\n   * State variables\n   */\n  \n  // Contract owner\n  address owner;\n\n  struct Task {\n    string description;\n    uint createdAt;\n    uint value;\n    uint dueDate;\n    bool completed;\n    bool cleared;\n  }\n\n  // Tasks\n  mapping (address => Task[]) public tasks;\n\n  // Credits\n  mapping (address => uint) public credits;\n\n  // Prizes\n  mapping (address => uint) public prizes;\n\n  /* \n   * Events\n   */\n\n  // Task added event\n  event LogAdd (address userAddress, uint taskID); // TODO\n\n  /* \n   * Modifiers\n   */\n\n  modifier isOwner (address _address) {\n    require(msg.sender == owner);\n    _;\n  }\n\n  modifier validDueDate (uint _date) {\n    require(_date > block.timestamp);\n    _;\n  }\n\n  // If task has not any prize locked in it\n  modifier notPrized (uint _id) {\n    require(!hasPrize(_id));\n    _;\n  }\n\n  modifier completed (uint _id) {\n    require(getTask(_id).completed);\n    _;\n  }\n\n  modifier incompleted (uint _id) {\n    require(!getTask(_id).completed);\n    _;\n  }\n\n\n\n  constructor() public {\n    owner = msg.sender;\n  }\n\n\n\n  // Add task\n  function add(string memory _description, uint _dueDate) public {\n    Task memory task = Task({\n      description: _description,\n      createdAt: block.timestamp,\n      value: 0,\n      dueDate: _dueDate,\n      completed: false,\n      cleared: true\n    });\n    tasks[msg.sender].push(task);\n  }\n\n\n  // Update task\n  function update(uint _taskID, string memory _description, uint _dueDate)\n  public notPrized(_taskID) {\n    Task memory task = tasks[msg.sender][_taskID];\n    task.description = _description;\n    task.dueDate = _dueDate;\n    replace(_taskID, task);\n  }\n  \n\n  // Set complete\n  function setComplete(uint _id) public incompleted(_id) {\n    Task memory task = getTask(_id);\n    if (!hasPrize(_id) || !isExpired(_id)) {\n      task.completed = true;\n      replace(_id, task);\n    }\n  }\n\n  // Set incomplete\n  function setIncomplete(uint _id) public completed(_id) notPrized(_id) {\n    Task memory task = getTask(_id);\n    task.completed = false;\n    replace(_id, task);\n  }\n\n  // Is task locked: Has no price locked in it\n  function hasPrize(uint _id) internal view returns (bool) {\n    return !(getTask(_id).value == 0);\n  }\n\n  // Is task overdue\n  function isExpired(uint _id) internal view returns (bool) {\n    Task memory task = getTask(_id);\n    if (task.dueDate == 0) {\n      return false;\n    }\n    return (task.dueDate < block.timestamp);\n  }\n\n  // Get current user tasks\n  function getTasks() public view returns(Task[] memory) {\n    return tasks[msg.sender];\n  }\n\n  // Get task\n  function getTask(uint _id) public view returns(Task memory) {\n    return tasks[msg.sender][_id];\n  }\n\n\n  // Replace task\n  function replace(uint _id, Task memory _task) internal {\n    tasks[msg.sender][_id] = _task;\n  }\n\n}\n",
  "sourcePath": "/home/ubuntu/todo-list-dapp/contracts/Todos.sol",
  "compiler": {
    "name": "solc",
    "version": "0.8.0+commit.c7dfd78e.Emscripten.clang"
  },
  "schemaVersion": "3.4.3",
  "updatedAt": "2021-09-11T11:23:32.380Z",
  "networkType": "ethereum",
  "devdoc": {
    "kind": "dev",
    "methods": {},
    "version": 1
  },
  "userdoc": {
    "kind": "user",
    "methods": {},
    "version": 1
  }
}