{
  "contractName": "Todos",
  "abi": [
    {
      "inputs": [],
      "payable": false,
      "stateMutability": "nonpayable",
      "type": "constructor"
    },
    {
      "anonymous": false,
      "inputs": [
        {
          "indexed": false,
          "internalType": "address",
          "name": "userAddress",
          "type": "address"
        },
        {
          "indexed": false,
          "internalType": "uint256",
          "name": "taskID",
          "type": "uint256"
        }
      ],
      "name": "LogAdd",
      "type": "event"
    },
    {
      "constant": true,
      "inputs": [
        {
          "internalType": "address",
          "name": "",
          "type": "address"
        }
      ],
      "name": "credits",
      "outputs": [
        {
          "internalType": "uint256",
          "name": "",
          "type": "uint256"
        }
      ],
      "payable": false,
      "stateMutability": "view",
      "type": "function"
    },
    {
      "constant": true,
      "inputs": [
        {
          "internalType": "address",
          "name": "",
          "type": "address"
        }
      ],
      "name": "prizes",
      "outputs": [
        {
          "internalType": "uint256",
          "name": "",
          "type": "uint256"
        }
      ],
      "payable": false,
      "stateMutability": "view",
      "type": "function"
    },
    {
      "constant": true,
      "inputs": [
        {
          "internalType": "address",
          "name": "",
          "type": "address"
        },
        {
          "internalType": "uint256",
          "name": "",
          "type": "uint256"
        }
      ],
      "name": "tasks",
      "outputs": [
        {
          "internalType": "string",
          "name": "description",
          "type": "string"
        },
        {
          "internalType": "uint256",
          "name": "createdAt",
          "type": "uint256"
        },
        {
          "internalType": "uint256",
          "name": "value",
          "type": "uint256"
        },
        {
          "internalType": "uint256",
          "name": "dueDate",
          "type": "uint256"
        },
        {
          "internalType": "bool",
          "name": "completed",
          "type": "bool"
        },
        {
          "internalType": "bool",
          "name": "cleared",
          "type": "bool"
        }
      ],
      "payable": false,
      "stateMutability": "view",
      "type": "function"
    },
    {
      "constant": false,
      "inputs": [
        {
          "internalType": "string",
          "name": "_description",
          "type": "string"
        },
        {
          "internalType": "uint256",
          "name": "_dueDate",
          "type": "uint256"
        }
      ],
      "name": "add",
      "outputs": [],
      "payable": false,
      "stateMutability": "nonpayable",
      "type": "function"
    },
    {
      "constant": false,
      "inputs": [
        {
          "internalType": "uint256",
          "name": "_taskID",
          "type": "uint256"
        },
        {
          "internalType": "string",
          "name": "_description",
          "type": "string"
        },
        {
          "internalType": "uint256",
          "name": "_dueDate",
          "type": "uint256"
        }
      ],
      "name": "update",
      "outputs": [],
      "payable": false,
      "stateMutability": "nonpayable",
      "type": "function"
    },
    {
      "constant": false,
      "inputs": [
        {
          "internalType": "uint256",
          "name": "_id",
          "type": "uint256"
        }
      ],
      "name": "setComplete",
      "outputs": [],
      "payable": false,
      "stateMutability": "nonpayable",
      "type": "function"
    },
    {
      "constant": false,
      "inputs": [
        {
          "internalType": "uint256",
          "name": "_id",
          "type": "uint256"
        }
      ],
      "name": "setIncomplete",
      "outputs": [],
      "payable": false,
      "stateMutability": "nonpayable",
      "type": "function"
    },
    {
      "constant": true,
      "inputs": [],
      "name": "getTasks",
      "outputs": [
        {
          "components": [
            {
              "internalType": "string",
              "name": "description",
              "type": "string"
            },
            {
              "internalType": "uint256",
              "name": "createdAt",
              "type": "uint256"
            },
            {
              "internalType": "uint256",
              "name": "value",
              "type": "uint256"
            },
            {
              "internalType": "uint256",
              "name": "dueDate",
              "type": "uint256"
            },
            {
              "internalType": "bool",
              "name": "completed",
              "type": "bool"
            },
            {
              "internalType": "bool",
              "name": "cleared",
              "type": "bool"
            }
          ],
          "internalType": "struct Todos.Task[]",
          "name": "",
          "type": "tuple[]"
        }
      ],
      "payable": false,
      "stateMutability": "view",
      "type": "function"
    },
    {
      "constant": true,
      "inputs": [
        {
          "internalType": "uint256",
          "name": "_id",
          "type": "uint256"
        }
      ],
      "name": "getTask",
      "outputs": [
        {
          "components": [
            {
              "internalType": "string",
              "name": "description",
              "type": "string"
            },
            {
              "internalType": "uint256",
              "name": "createdAt",
              "type": "uint256"
            },
            {
              "internalType": "uint256",
              "name": "value",
              "type": "uint256"
            },
            {
              "internalType": "uint256",
              "name": "dueDate",
              "type": "uint256"
            },
            {
              "internalType": "bool",
              "name": "completed",
              "type": "bool"
            },
            {
              "internalType": "bool",
              "name": "cleared",
              "type": "bool"
            }
          ],
          "internalType": "struct Todos.Task",
          "name": "",
          "type": "tuple"
        }
      ],
      "payable": false,
      "stateMutability": "view",
      "type": "function"
    }
  ],
  "bytecode": "0x608060405234801561001057600080fd5b50336000806101000a81548173ffffffffffffffffffffffffffffffffffffffff021916908373ffffffffffffffffffffffffffffffffffffffff160217905550611260806100606000396000f3fe608060405234801561001057600080fd5b50600436106100935760003560e01c806389e8491f1161006657806389e8491f14610137578063ad841e0714610153578063b35d11bf1461016f578063e7a9d4061461019f578063fe5ff468146101bb57610093565b806304a87e38146100985780631d65e77e146100b657806336555b85146100e65780637149d2e414610102575b600080fd5b6100a06101eb565b6040516100ad9190610fce565b60405180910390f35b6100d060048036036100cb9190810190610cf5565b61037d565b6040516100dd9190611058565b60405180910390f35b61010060048036036100fb9190810190610ca1565b6104e5565b005b61011c60048036036101179190810190610c65565b610611565b60405161012e96959493929190610ff0565b60405180910390f35b610151600480360361014c9190810190610cf5565b610719565b005b61016d60048036036101689190810190610d1e565b610785565b005b61018960048036036101849190810190610c3c565b610920565b604051610196919061107a565b60405180910390f35b6101b960048036036101b49190810190610cf5565b610938565b005b6101d560048036036101d09190810190610c3c565b610997565b6040516101e2919061107a565b60405180910390f35b6060600160003373ffffffffffffffffffffffffffffffffffffffff1673ffffffffffffffffffffffffffffffffffffffff168152602001908152602001600020805480602002602001604051908101604052809291908181526020016000905b8282101561037457838290600052602060002090600502016040518060c0016040529081600082018054600181600116156101000203166002900480601f0160208091040260200160405190810160405280929190818152602001828054600181600116156101000203166002900480156103085780601f106102dd57610100808354040283529160200191610308565b820191906000526020600020905b8154815290600101906020018083116102eb57829003601f168201915b505050505081526020016001820154815260200160028201548152602001600382015481526020016004820160009054906101000a900460ff161515151581526020016004820160019054906101000a900460ff1615151515815250508152602001906001019061024c565b50505050905090565b610385610adf565b600160003373ffffffffffffffffffffffffffffffffffffffff1673ffffffffffffffffffffffffffffffffffffffff16815260200190815260200160002082815481106103cf57fe5b90600052602060002090600502016040518060c0016040529081600082018054600181600116156101000203166002900480601f0160208091040260200160405190810160405280929190818152602001828054600181600116156101000203166002900480156104815780601f1061045657610100808354040283529160200191610481565b820191906000526020600020905b81548152906001019060200180831161046457829003601f168201915b505050505081526020016001820154815260200160028201548152602001600382015481526020016004820160009054906101000a900460ff161515151581526020016004820160019054906101000a900460ff1615151515815250509050919050565b6104ed610adf565b6040518060c0016040528084815260200142815260200160008152602001838152602001600015158152602001600115158152509050600160003373ffffffffffffffffffffffffffffffffffffffff1673ffffffffffffffffffffffffffffffffffffffff168152602001908152602001600020819080600181540180825580915050906001820390600052602060002090600502016000909192909190915060008201518160000190805190602001906105aa929190610b19565b5060208201518160010155604082015181600201556060820151816003015560808201518160040160006101000a81548160ff02191690831515021790555060a08201518160040160016101000a81548160ff021916908315150217905550505050505050565b6001602052816000526040600020818154811061062a57fe5b906000526020600020906005020160009150915050806000018054600181600116156101000203166002900480601f0160208091040260200160405190810160405280929190818152602001828054600181600116156101000203166002900480156106d75780601f106106ac576101008083540402835291602001916106d7565b820191906000526020600020905b8154815290600101906020018083116106ba57829003601f168201915b5050505050908060010154908060020154908060030154908060040160009054906101000a900460ff16908060040160019054906101000a900460ff16905086565b806107238161037d565b608001511561073157600080fd5b610739610adf565b6107428361037d565b905061074d836109af565b158061075f575061075d836109c8565b155b1561078057600181608001901515908115158152505061077f8382610a04565b5b505050565b8261078f816109af565b1561079957600080fd5b6107a1610adf565b600160003373ffffffffffffffffffffffffffffffffffffffff1673ffffffffffffffffffffffffffffffffffffffff16815260200190815260200160002085815481106107eb57fe5b90600052602060002090600502016040518060c0016040529081600082018054600181600116156101000203166002900480601f01602080910402602001604051908101604052809291908181526020018280546001816001161561010002031660029004801561089d5780601f106108725761010080835404028352916020019161089d565b820191906000526020600020905b81548152906001019060200180831161088057829003601f168201915b505050505081526020016001820154815260200160028201548152602001600382015481526020016004820160009054906101000a900460ff161515151581526020016004820160019054906101000a900460ff1615151515815250509050838160000181905250828160600181815250506109198582610a04565b5050505050565b60036020528060005260406000206000915090505481565b806109428161037d565b6080015161094f57600080fd5b81610959816109af565b1561096357600080fd5b61096b610adf565b6109748461037d565b905060008160800190151590811515815250506109918482610a04565b50505050565b60026020528060005260406000206000915090505481565b6000806109bb8361037d565b6040015114159050919050565b60006109d2610adf565b6109db8361037d565b90506000816060015114156109f45760009150506109ff565b428160600151109150505b919050565b80600160003373ffffffffffffffffffffffffffffffffffffffff1673ffffffffffffffffffffffffffffffffffffffff1681526020019081526020016000208381548110610a4f57fe5b90600052602060002090600502016000820151816000019080519060200190610a79929190610b19565b5060208201518160010155604082015181600201556060820151816003015560808201518160040160006101000a81548160ff02191690831515021790555060a08201518160040160016101000a81548160ff0219169083151502179055509050505050565b6040518060c00160405280606081526020016000815260200160008152602001600081526020016000151581526020016000151581525090565b828054600181600116156101000203166002900490600052602060002090601f016020900481019282601f10610b5a57805160ff1916838001178555610b88565b82800160010185558215610b88579182015b82811115610b87578251825591602001919060010190610b6c565b5b509050610b959190610b99565b5090565b610bbb91905b80821115610bb7576000816000905550600101610b9f565b5090565b90565b600081359050610bcd816111ef565b92915050565b600082601f830112610be457600080fd5b8135610bf7610bf2826110c2565b611095565b91508082526020830160208301858383011115610c1357600080fd5b610c1e83828461119c565b50505092915050565b600081359050610c3681611206565b92915050565b600060208284031215610c4e57600080fd5b6000610c5c84828501610bbe565b91505092915050565b60008060408385031215610c7857600080fd5b6000610c8685828601610bbe565b9250506020610c9785828601610c27565b9150509250929050565b60008060408385031215610cb457600080fd5b600083013567ffffffffffffffff811115610cce57600080fd5b610cda85828601610bd3565b9250506020610ceb85828601610c27565b9150509250929050565b600060208284031215610d0757600080fd5b6000610d1584828501610c27565b91505092915050565b600080600060608486031215610d3357600080fd5b6000610d4186828701610c27565b935050602084013567ffffffffffffffff811115610d5e57600080fd5b610d6a86828701610bd3565b9250506040610d7b86828701610c27565b9150509250925092565b6000610d918383610f27565b905092915050565b6000610da4826110fe565b610dae8185611121565b935083602082028501610dc0856110ee565b8060005b85811015610dfc5784840389528151610ddd8582610d85565b9450610de883611114565b925060208a01995050600181019050610dc4565b50829750879550505050505092915050565b610e1781611166565b82525050565b610e2681611166565b82525050565b6000610e3782611109565b610e418185611132565b9350610e518185602086016111ab565b610e5a816111de565b840191505092915050565b6000610e7082611109565b610e7a8185611143565b9350610e8a8185602086016111ab565b610e93816111de565b840191505092915050565b600060c0830160008301518482036000860152610ebb8282610e2c565b9150506020830151610ed06020860182610fb0565b506040830151610ee36040860182610fb0565b506060830151610ef66060860182610fb0565b506080830151610f096080860182610e0e565b5060a0830151610f1c60a0860182610e0e565b508091505092915050565b600060c0830160008301518482036000860152610f448282610e2c565b9150506020830151610f596020860182610fb0565b506040830151610f6c6040860182610fb0565b506060830151610f7f6060860182610fb0565b506080830151610f926080860182610e0e565b5060a0830151610fa560a0860182610e0e565b508091505092915050565b610fb981611192565b82525050565b610fc881611192565b82525050565b60006020820190508181036000830152610fe88184610d99565b905092915050565b600060c082019050818103600083015261100a8189610e65565b90506110196020830188610fbf565b6110266040830187610fbf565b6110336060830186610fbf565b6110406080830185610e1d565b61104d60a0830184610e1d565b979650505050505050565b600060208201905081810360008301526110728184610e9e565b905092915050565b600060208201905061108f6000830184610fbf565b92915050565b6000604051905081810181811067ffffffffffffffff821117156110b857600080fd5b8060405250919050565b600067ffffffffffffffff8211156110d957600080fd5b601f19601f8301169050602081019050919050565b6000819050602082019050919050565b600081519050919050565b600081519050919050565b6000602082019050919050565b600082825260208201905092915050565b600082825260208201905092915050565b600082825260208201905092915050565b600061115f82611172565b9050919050565b60008115159050919050565b600073ffffffffffffffffffffffffffffffffffffffff82169050919050565b6000819050919050565b82818337600083830152505050565b60005b838110156111c95780820151818401526020810190506111ae565b838111156111d8576000848401525b50505050565b6000601f19601f8301169050919050565b6111f881611154565b811461120357600080fd5b50565b61120f81611192565b811461121a57600080fd5b5056fea365627a7a7231582024b217a72684dd548109fd8ba8cae47c8b6ff661dc03958e3e2060056839910f6c6578706572696d656e74616cf564736f6c63430005100040",
  "source": "// SPDX-License-Identifier: MIT\npragma solidity >=0.4.22 <0.9.0;\npragma experimental ABIEncoderV2; // Two level dynamic arrays support\n\ncontract Todos {\n  /*\n   * Constant variables\n   */\n  \n  // Punishment period in seconds\n  uint constant PUNISHMENT_TIME = 30 days;\n\n  /*\n   * State variables\n   */\n  \n  // Contract owner\n  address owner;\n\n  struct Task {\n    string description;\n    uint createdAt;\n    uint value;\n    uint dueDate;\n    bool completed;\n    bool cleared;\n  }\n\n  // Tasks\n  mapping (address => Task[]) public tasks;\n\n  // Credits\n  mapping (address => uint) public credits;\n\n  // Prizes\n  mapping (address => uint) public prizes;\n\n  /* \n   * Events\n   */\n\n  // Task added event\n  event LogAdd (address userAddress, uint taskID); // TODO\n\n  /* \n   * Modifiers\n   */\n\n  modifier isOwner (address _address) {\n    require(msg.sender == owner);\n    _;\n  }\n\n  modifier validDueDate (uint _date) {\n    require(_date > block.timestamp);\n    _;\n  }\n\n  // If task has not any prize locked in it\n  modifier notPrized (uint _id) {\n    require(!hasPrize(_id));\n    _;\n  }\n\n  modifier completed (uint _id) {\n    require(getTask(_id).completed);\n    _;\n  }\n\n  modifier incompleted (uint _id) {\n    require(!getTask(_id).completed);\n    _;\n  }\n\n\n\n  constructor() public {\n    owner = msg.sender;\n  }\n\n\n\n  // Add task\n  function add(string memory _description, uint _dueDate) public {\n    Task memory task = Task({\n      description: _description,\n      createdAt: block.timestamp,\n      value: 0,\n      dueDate: _dueDate,\n      completed: false,\n      cleared: true\n    });\n    tasks[msg.sender].push(task);\n  }\n\n\n  // Update task\n  function update(uint _taskID, string memory _description, uint _dueDate)\n  public notPrized(_taskID) {\n    Task memory task = tasks[msg.sender][_taskID];\n    task.description = _description;\n    task.dueDate = _dueDate;\n    replace(_taskID, task);\n  }\n  \n\n  // Set complete\n  function setComplete(uint _id) public incompleted(_id) {\n    Task memory task = getTask(_id);\n    if (!hasPrize(_id) || !isExpired(_id)) {\n      task.completed = true;\n      replace(_id, task);\n    }\n  }\n\n  // Set incomplete\n  function setIncomplete(uint _id) public completed(_id) notPrized(_id) {\n    Task memory task = getTask(_id);\n    task.completed = false;\n    replace(_id, task);\n  }\n\n  // Is task locked: Has no price locked in it\n  function hasPrize(uint _id) internal view returns (bool) {\n    return !(getTask(_id).value == 0);\n  }\n\n  // Is task overdue\n  function isExpired(uint _id) internal view returns (bool) {\n    Task memory task = getTask(_id);\n    if (task.dueDate == 0) {\n      return false;\n    }\n    return (task.dueDate < block.timestamp);\n  }\n\n  // Get current user tasks\n  function getTasks() public view returns(Task[] memory) {\n    return tasks[msg.sender];\n  }\n\n  // Get task\n  function getTask(uint _id) public view returns(Task memory) {\n    return tasks[msg.sender][_id];\n  }\n\n\n  // Replace task\n  function replace(uint _id, Task memory _task) internal {\n    tasks[msg.sender][_id] = _task;\n  }\n\n}\n",
  "sourcePath": "/home/ubuntu/todo-list-dapp/contracts/Todos.sol",
  "compiler": {
    "name": "solc",
    "version": "0.5.16+commit.9c3226ce.Emscripten.clang"
  },
  "schemaVersion": "3.4.3",
  "updatedAt": "2021-09-11T11:18:36.254Z",
  "networkType": "ethereum",
  "devdoc": {
    "methods": {}
  },
  "userdoc": {
    "methods": {}
  }
}