{
  "contractName": "Todos",
  "abi": [
    {
      "anonymous": false,
      "inputs": [
        {
          "indexed": false,
          "internalType": "address",
          "name": "userAddress",
          "type": "address"
        },
        {
          "indexed": false,
          "internalType": "uint256",
          "name": "taskID",
          "type": "uint256"
        }
      ],
      "name": "LogAdd",
      "type": "event"
    },
    {
      "anonymous": false,
      "inputs": [
        {
          "indexed": true,
          "internalType": "address",
          "name": "previousOwner",
          "type": "address"
        },
        {
          "indexed": true,
          "internalType": "address",
          "name": "newOwner",
          "type": "address"
        }
      ],
      "name": "OwnershipTransferred",
      "type": "event"
    },
    {
      "stateMutability": "payable",
      "type": "fallback"
    },
    {
      "inputs": [],
      "name": "getPrize",
      "outputs": [
        {
          "internalType": "uint256",
          "name": "",
          "type": "uint256"
        }
      ],
      "stateMutability": "view",
      "type": "function"
    },
    {
      "inputs": [],
      "name": "owner",
      "outputs": [
        {
          "internalType": "address",
          "name": "",
          "type": "address"
        }
      ],
      "stateMutability": "view",
      "type": "function"
    },
    {
      "inputs": [
        {
          "internalType": "address",
          "name": "",
          "type": "address"
        }
      ],
      "name": "prizes",
      "outputs": [
        {
          "internalType": "uint256",
          "name": "",
          "type": "uint256"
        }
      ],
      "stateMutability": "view",
      "type": "function"
    },
    {
      "inputs": [],
      "name": "renounceOwnership",
      "outputs": [],
      "stateMutability": "nonpayable",
      "type": "function"
    },
    {
      "inputs": [
        {
          "internalType": "address",
          "name": "",
          "type": "address"
        },
        {
          "internalType": "uint256",
          "name": "",
          "type": "uint256"
        }
      ],
      "name": "tasks",
      "outputs": [
        {
          "internalType": "string",
          "name": "description",
          "type": "string"
        },
        {
          "internalType": "uint256",
          "name": "createdAt",
          "type": "uint256"
        },
        {
          "internalType": "uint256",
          "name": "value",
          "type": "uint256"
        },
        {
          "internalType": "uint256",
          "name": "dueDate",
          "type": "uint256"
        },
        {
          "internalType": "bool",
          "name": "completed",
          "type": "bool"
        },
        {
          "internalType": "bool",
          "name": "cleared",
          "type": "bool"
        }
      ],
      "stateMutability": "view",
      "type": "function"
    },
    {
      "inputs": [
        {
          "internalType": "address",
          "name": "newOwner",
          "type": "address"
        }
      ],
      "name": "transferOwnership",
      "outputs": [],
      "stateMutability": "nonpayable",
      "type": "function"
    },
    {
      "inputs": [
        {
          "internalType": "uint256",
          "name": "withdrawAmount",
          "type": "uint256"
        }
      ],
      "name": "withdrawPrize",
      "outputs": [
        {
          "internalType": "uint256",
          "name": "",
          "type": "uint256"
        }
      ],
      "stateMutability": "nonpayable",
      "type": "function"
    },
    {
      "stateMutability": "payable",
      "type": "receive"
    },
    {
      "inputs": [
        {
          "internalType": "string",
          "name": "_description",
          "type": "string"
        },
        {
          "internalType": "uint256",
          "name": "_dueDate",
          "type": "uint256"
        }
      ],
      "name": "add",
      "outputs": [],
      "stateMutability": "nonpayable",
      "type": "function"
    },
    {
      "inputs": [
        {
          "internalType": "uint256",
          "name": "_id",
          "type": "uint256"
        },
        {
          "internalType": "string",
          "name": "_description",
          "type": "string"
        },
        {
          "internalType": "uint256",
          "name": "_dueDate",
          "type": "uint256"
        }
      ],
      "name": "update",
      "outputs": [],
      "stateMutability": "nonpayable",
      "type": "function"
    },
    {
      "inputs": [
        {
          "internalType": "uint256",
          "name": "_id",
          "type": "uint256"
        }
      ],
      "name": "remove",
      "outputs": [],
      "stateMutability": "nonpayable",
      "type": "function"
    },
    {
      "inputs": [
        {
          "internalType": "uint256",
          "name": "_id",
          "type": "uint256"
        }
      ],
      "name": "setComplete",
      "outputs": [],
      "stateMutability": "nonpayable",
      "type": "function"
    },
    {
      "inputs": [
        {
          "internalType": "uint256",
          "name": "_id",
          "type": "uint256"
        }
      ],
      "name": "setIncomplete",
      "outputs": [],
      "stateMutability": "nonpayable",
      "type": "function"
    },
    {
      "inputs": [
        {
          "internalType": "uint256",
          "name": "_id",
          "type": "uint256"
        }
      ],
      "name": "setPrize",
      "outputs": [],
      "stateMutability": "payable",
      "type": "function"
    },
    {
      "inputs": [
        {
          "internalType": "uint256",
          "name": "_id",
          "type": "uint256"
        }
      ],
      "name": "isPunishing",
      "outputs": [
        {
          "internalType": "bool",
          "name": "",
          "type": "bool"
        }
      ],
      "stateMutability": "view",
      "type": "function"
    },
    {
      "inputs": [],
      "name": "getTasks",
      "outputs": [
        {
          "components": [
            {
              "internalType": "string",
              "name": "description",
              "type": "string"
            },
            {
              "internalType": "uint256",
              "name": "createdAt",
              "type": "uint256"
            },
            {
              "internalType": "uint256",
              "name": "value",
              "type": "uint256"
            },
            {
              "internalType": "uint256",
              "name": "dueDate",
              "type": "uint256"
            },
            {
              "internalType": "bool",
              "name": "completed",
              "type": "bool"
            },
            {
              "internalType": "bool",
              "name": "cleared",
              "type": "bool"
            }
          ],
          "internalType": "struct Todos.Task[]",
          "name": "",
          "type": "tuple[]"
        }
      ],
      "stateMutability": "view",
      "type": "function"
    },
    {
      "inputs": [
        {
          "internalType": "uint256",
          "name": "_id",
          "type": "uint256"
        }
      ],
      "name": "getTask",
      "outputs": [
        {
          "components": [
            {
              "internalType": "string",
              "name": "description",
              "type": "string"
            },
            {
              "internalType": "uint256",
              "name": "createdAt",
              "type": "uint256"
            },
            {
              "internalType": "uint256",
              "name": "value",
              "type": "uint256"
            },
            {
              "internalType": "uint256",
              "name": "dueDate",
              "type": "uint256"
            },
            {
              "internalType": "bool",
              "name": "completed",
              "type": "bool"
            },
            {
              "internalType": "bool",
              "name": "cleared",
              "type": "bool"
            }
          ],
          "internalType": "struct Todos.Task",
          "name": "",
          "type": "tuple"
        }
      ],
      "stateMutability": "view",
      "type": "function"
    }
  ],
  "bytecode": "0x608060405234801561001057600080fd5b5061002d61002261003260201b60201c565b61003a60201b60201c565b6100fe565b600033905090565b60008060009054906101000a900473ffffffffffffffffffffffffffffffffffffffff169050816000806101000a81548173ffffffffffffffffffffffffffffffffffffffff021916908373ffffffffffffffffffffffffffffffffffffffff1602179055508173ffffffffffffffffffffffffffffffffffffffff168173ffffffffffffffffffffffffffffffffffffffff167f8be0079c531659141344cd1fd0a4f28419497f9722a3daafe3b4186f6b6457e060405160405180910390a35050565b612078806200010e6000396000f3fe6080604052600436106100f75760003560e01c80638da5cb5b1161008a578063c20eec7b11610059578063c20eec7b1461032c578063c34f6b0d14610369578063e7a9d40614610394578063f2fde38b146103bd57610101565b80638da5cb5b1461025e5780639ec06b8e14610289578063ad841e07146102c6578063b35d11bf146102ef57610101565b80636ca7f3ba116100c65780636ca7f3ba146101c05780637149d2e4146101dc578063715018a61461021e57806389e8491f1461023557610101565b806304a87e38146101065780631d65e77e1461013157806336555b851461016e5780634cc822151461019757610101565b3661010157600080fd5b600080fd5b34801561011257600080fd5b5061011b6103e6565b6040516101289190611c47565b60405180910390f35b34801561013d57600080fd5b506101586004803603810190610153919061189e565b610568565b6040516101659190611d2c565b60405180910390f35b34801561017a57600080fd5b506101956004803603810190610190919061184a565b6106ed565b005b3480156101a357600080fd5b506101be60048036038101906101b9919061189e565b610810565b005b6101da60048036038101906101d5919061189e565b610b47565b005b3480156101e857600080fd5b5061020360048036038101906101fe919061180e565b610bcb565b60405161021596959493929190611c84565b60405180910390f35b34801561022a57600080fd5b50610233610cc6565b005b34801561024157600080fd5b5061025c6004803603810190610257919061189e565b610d4e565b005b34801561026a57600080fd5b50610273610e19565b6040516102809190611c2c565b60405180910390f35b34801561029557600080fd5b506102b060048036038101906102ab919061189e565b610e42565b6040516102bd9190611c69565b60405180910390f35b3480156102d257600080fd5b506102ed60048036038101906102e891906118c7565b610ead565b005b3480156102fb57600080fd5b50610316600480360381019061031191906117e5565b61105f565b6040516103239190611d4e565b60405180910390f35b34801561033857600080fd5b50610353600480360381019061034e919061189e565b611077565b6040516103609190611d4e565b60405180910390f35b34801561037557600080fd5b5061037e611139565b60405161038b9190611d4e565b60405180910390f35b3480156103a057600080fd5b506103bb60048036038101906103b6919061189e565b611180565b005b3480156103c957600080fd5b506103e460048036038101906103df91906117e5565b6111d9565b005b6060600260003373ffffffffffffffffffffffffffffffffffffffff1673ffffffffffffffffffffffffffffffffffffffff168152602001908152602001600020805480602002602001604051908101604052809291908181526020016000905b8282101561055f57838290600052602060002090600502016040518060c001604052908160008201805461047a90611f44565b80601f01602080910402602001604051908101604052809291908181526020018280546104a690611f44565b80156104f35780601f106104c8576101008083540402835291602001916104f3565b820191906000526020600020905b8154815290600101906020018083116104d657829003601f168201915b505050505081526020016001820154815260200160028201548152602001600382015481526020016004820160009054906101000a900460ff161515151581526020016004820160019054906101000a900460ff16151515158152505081526020019060010190610447565b50505050905090565b6105706115a9565b600260003373ffffffffffffffffffffffffffffffffffffffff1673ffffffffffffffffffffffffffffffffffffffff16815260200190815260200160002082815481106105e7577f4e487b7100000000000000000000000000000000000000000000000000000000600052603260045260246000fd5b90600052602060002090600502016040518060c001604052908160008201805461061090611f44565b80601f016020809104026020016040519081016040528092919081815260200182805461063c90611f44565b80156106895780601f1061065e57610100808354040283529160200191610689565b820191906000526020600020905b81548152906001019060200180831161066c57829003601f168201915b505050505081526020016001820154815260200160028201548152602001600382015481526020016004820160009054906101000a900460ff161515151581526020016004820160019054906101000a900460ff1615151515815250509050919050565b60006040518060c0016040528084815260200142815260200160008152602001838152602001600015158152602001600115158152509050600260003373ffffffffffffffffffffffffffffffffffffffff1673ffffffffffffffffffffffffffffffffffffffff16815260200190815260200160002081908060018154018082558091505060019003906000526020600020906005020160009091909190915060008201518160000190805190602001906107aa9291906115e3565b5060208201518160010155604082015181600201556060820151816003015560808201518160040160006101000a81548160ff02191690831515021790555060a08201518160040160016101000a81548160ff0219169083151502179055505050505050565b8061081a816112d1565b1561082457600080fd5b600260003373ffffffffffffffffffffffffffffffffffffffff1673ffffffffffffffffffffffffffffffffffffffff16815260200190815260200160002080549050821061087257600080fd5b600260003373ffffffffffffffffffffffffffffffffffffffff1673ffffffffffffffffffffffffffffffffffffffff1681526020019081526020016000206001600260003373ffffffffffffffffffffffffffffffffffffffff1673ffffffffffffffffffffffffffffffffffffffff168152602001908152602001600020805490506109009190611e86565b81548110610937577f4e487b7100000000000000000000000000000000000000000000000000000000600052603260045260246000fd5b9060005260206000209060050201600260003373ffffffffffffffffffffffffffffffffffffffff1673ffffffffffffffffffffffffffffffffffffffff16815260200190815260200160002083815481106109bc577f4e487b7100000000000000000000000000000000000000000000000000000000600052603260045260246000fd5b906000526020600020906005020160008201816000019080546109de90611f44565b6109e9929190611669565b506001820154816001015560028201548160020155600382015481600301556004820160009054906101000a900460ff168160040160006101000a81548160ff0219169083151502179055506004820160019054906101000a900460ff168160040160016101000a81548160ff021916908315150217905550905050600260003373ffffffffffffffffffffffffffffffffffffffff1673ffffffffffffffffffffffffffffffffffffffff168152602001908152602001600020805480610ada577f4e487b7100000000000000000000000000000000000000000000000000000000600052603160045260246000fd5b600190038181906000526020600020906005020160008082016000610aff91906116f6565b6001820160009055600282016000905560038201600090556004820160006101000a81549060ff02191690556004820160016101000a81549060ff0219169055505090555050565b806000610b5382610568565b606001511415610b6257600080fd5b6000610b6d83610568565b90506000816040015114610b8057600080fd5b610b8983611305565b15610b9357600080fd5b8060a00151610ba157600080fd5b3481604001818152505060008160a0019015159081151581525050610bc6838261133a565b505050565b60026020528160005260406000208181548110610be757600080fd5b906000526020600020906005020160009150915050806000018054610c0b90611f44565b80601f0160208091040260200160405190810160405280929190818152602001828054610c3790611f44565b8015610c845780601f10610c5957610100808354040283529160200191610c84565b820191906000526020600020905b815481529060010190602001808311610c6757829003601f168201915b5050505050908060010154908060020154908060030154908060040160009054906101000a900460ff16908060040160019054906101000a900460ff16905086565b610cce611442565b73ffffffffffffffffffffffffffffffffffffffff16610cec610e19565b73ffffffffffffffffffffffffffffffffffffffff1614610d42576040517f08c379a0000000000000000000000000000000000000000000000000000000008152600401610d3990611d0c565b60405180910390fd5b610d4c600061144a565b565b80610d5881610568565b6080015115610d6657600080fd5b6000610d7183610568565b9050610d7c836112d1565b1580610d8e5750610d8c83611305565b155b15610daf576001816080019015159081151581525050610dae838261133a565b5b610db8836112d1565b8015610dc657508060a00151155b15610e1457610dd483610e42565b610e135760018160a00190151590811515815250506001816080019015159081151581525050610e04838261133a565b610e1233826040015161150e565b5b5b505050565b60008060009054906101000a900473ffffffffffffffffffffffffffffffffffffffff16905090565b6000610e4d826112d1565b610e5a5760009050610ea8565b610e6382611305565b15610e715760009050610ea8565b6000610e7c83610568565b905062278d008160600151610e919190611e30565b421115610ea2576000915050610ea8565b60019150505b919050565b82610eb7816112d1565b15610ec157600080fd5b6000600260003373ffffffffffffffffffffffffffffffffffffffff1673ffffffffffffffffffffffffffffffffffffffff1681526020019081526020016000208581548110610f3a577f4e487b7100000000000000000000000000000000000000000000000000000000600052603260045260246000fd5b90600052602060002090600502016040518060c0016040529081600082018054610f6390611f44565b80601f0160208091040260200160405190810160405280929190818152602001828054610f8f90611f44565b8015610fdc5780601f10610fb157610100808354040283529160200191610fdc565b820191906000526020600020905b815481529060010190602001808311610fbf57829003601f168201915b505050505081526020016001820154815260200160028201548152602001600382015481526020016004820160009054906101000a900460ff161515151581526020016004820160019054906101000a900460ff161515151581525050905083816000018190525082816060018181525050611058858261133a565b5050505050565b60016020528060005260406000206000915090505481565b600081611082611139565b101561108d57600080fd5b81600160003373ffffffffffffffffffffffffffffffffffffffff1673ffffffffffffffffffffffffffffffffffffffff16815260200190815260200160002060008282546110dc9190611e86565b925050819055503373ffffffffffffffffffffffffffffffffffffffff166108fc839081150290604051600060405180830381858888f19350505050158015611129573d6000803e3d6000fd5b50611132611139565b9050919050565b6000600160003373ffffffffffffffffffffffffffffffffffffffff1673ffffffffffffffffffffffffffffffffffffffff16815260200190815260200160002054905090565b8061118a81610568565b6080015161119757600080fd5b816111a1816112d1565b156111ab57600080fd5b60006111b684610568565b905060008160800190151590811515815250506111d3848261133a565b50505050565b6111e1611442565b73ffffffffffffffffffffffffffffffffffffffff166111ff610e19565b73ffffffffffffffffffffffffffffffffffffffff1614611255576040517f08c379a000000000000000000000000000000000000000000000000000000000815260040161124c90611d0c565b60405180910390fd5b600073ffffffffffffffffffffffffffffffffffffffff168173ffffffffffffffffffffffffffffffffffffffff1614156112c5576040517f08c379a00000000000000000000000000000000000000000000000000000000081526004016112bc90611cec565b60405180910390fd5b6112ce8161144a565b50565b6000806112dd83610568565b90506000816040015114156112f6576000915050611300565b8060a00151159150505b919050565b60008061131183610568565b905060008160600151141561132a576000915050611335565b428160600151109150505b919050565b80600260003373ffffffffffffffffffffffffffffffffffffffff1673ffffffffffffffffffffffffffffffffffffffff16815260200190815260200160002083815481106113b2577f4e487b7100000000000000000000000000000000000000000000000000000000600052603260045260246000fd5b906000526020600020906005020160008201518160000190805190602001906113dc9291906115e3565b5060208201518160010155604082015181600201556060820151816003015560808201518160040160006101000a81548160ff02191690831515021790555060a08201518160040160016101000a81548160ff0219169083151502179055509050505050565b600033905090565b60008060009054906101000a900473ffffffffffffffffffffffffffffffffffffffff169050816000806101000a81548173ffffffffffffffffffffffffffffffffffffffff021916908373ffffffffffffffffffffffffffffffffffffffff1602179055508173ffffffffffffffffffffffffffffffffffffffff168173ffffffffffffffffffffffffffffffffffffffff167f8be0079c531659141344cd1fd0a4f28419497f9722a3daafe3b4186f6b6457e060405160405180910390a35050565b6000600160008473ffffffffffffffffffffffffffffffffffffffff1673ffffffffffffffffffffffffffffffffffffffff168152602001908152602001600020549050818161155e9190611e30565b905080600160008573ffffffffffffffffffffffffffffffffffffffff1673ffffffffffffffffffffffffffffffffffffffff16815260200190815260200160002081905550505050565b6040518060c00160405280606081526020016000815260200160008152602001600081526020016000151581526020016000151581525090565b8280546115ef90611f44565b90600052602060002090601f0160209004810192826116115760008555611658565b82601f1061162a57805160ff1916838001178555611658565b82800160010185558215611658579182015b8281111561165757825182559160200191906001019061163c565b5b5090506116659190611736565b5090565b82805461167590611f44565b90600052602060002090601f01602090048101928261169757600085556116e5565b82601f106116a857805485556116e5565b828001600101855582156116e557600052602060002091601f016020900482015b828111156116e45782548255916001019190600101906116c9565b5b5090506116f29190611736565b5090565b50805461170290611f44565b6000825580601f106117145750611733565b601f0160209004906000526020600020908101906117329190611736565b5b50565b5b8082111561174f576000816000905550600101611737565b5090565b600061176661176184611d9a565b611d69565b90508281526020810184848401111561177e57600080fd5b611789848285611f02565b509392505050565b6000813590506117a081612014565b92915050565b600082601f8301126117b757600080fd5b81356117c7848260208601611753565b91505092915050565b6000813590506117df8161202b565b92915050565b6000602082840312156117f757600080fd5b600061180584828501611791565b91505092915050565b6000806040838503121561182157600080fd5b600061182f85828601611791565b9250506020611840858286016117d0565b9150509250929050565b6000806040838503121561185d57600080fd5b600083013567ffffffffffffffff81111561187757600080fd5b611883858286016117a6565b9250506020611894858286016117d0565b9150509250929050565b6000602082840312156118b057600080fd5b60006118be848285016117d0565b91505092915050565b6000806000606084860312156118dc57600080fd5b60006118ea868287016117d0565b935050602084013567ffffffffffffffff81111561190757600080fd5b611913868287016117a6565b9250506040611924868287016117d0565b9150509250925092565b600061193a8383611afc565b905092915050565b61194b81611eba565b82525050565b600061195c82611dda565b6119668185611dfd565b93508360208202850161197885611dca565b8060005b858110156119b45784840389528151611995858261192e565b94506119a083611df0565b925060208a0199505060018101905061197c565b50829750879550505050505092915050565b6119cf81611ecc565b82525050565b6119de81611ecc565b82525050565b60006119ef82611de5565b6119f98185611e0e565b9350611a09818560208601611f11565b611a1281612003565b840191505092915050565b6000611a2882611de5565b611a328185611e1f565b9350611a42818560208601611f11565b611a4b81612003565b840191505092915050565b6000611a63602683611e1f565b91507f4f776e61626c653a206e6577206f776e657220697320746865207a65726f206160008301527f64647265737300000000000000000000000000000000000000000000000000006020830152604082019050919050565b6000611ac9602083611e1f565b91507f4f776e61626c653a2063616c6c6572206973206e6f7420746865206f776e65726000830152602082019050919050565b600060c0830160008301518482036000860152611b1982826119e4565b9150506020830151611b2e6020860182611c0e565b506040830151611b416040860182611c0e565b506060830151611b546060860182611c0e565b506080830151611b6760808601826119c6565b5060a0830151611b7a60a08601826119c6565b508091505092915050565b600060c0830160008301518482036000860152611ba282826119e4565b9150506020830151611bb76020860182611c0e565b506040830151611bca6040860182611c0e565b506060830151611bdd6060860182611c0e565b506080830151611bf060808601826119c6565b5060a0830151611c0360a08601826119c6565b508091505092915050565b611c1781611ef8565b82525050565b611c2681611ef8565b82525050565b6000602082019050611c416000830184611942565b92915050565b60006020820190508181036000830152611c618184611951565b905092915050565b6000602082019050611c7e60008301846119d5565b92915050565b600060c0820190508181036000830152611c9e8189611a1d565b9050611cad6020830188611c1d565b611cba6040830187611c1d565b611cc76060830186611c1d565b611cd460808301856119d5565b611ce160a08301846119d5565b979650505050505050565b60006020820190508181036000830152611d0581611a56565b9050919050565b60006020820190508181036000830152611d2581611abc565b9050919050565b60006020820190508181036000830152611d468184611b85565b905092915050565b6000602082019050611d636000830184611c1d565b92915050565b6000604051905081810181811067ffffffffffffffff82111715611d9057611d8f611fd4565b5b8060405250919050565b600067ffffffffffffffff821115611db557611db4611fd4565b5b601f19601f8301169050602081019050919050565b6000819050602082019050919050565b600081519050919050565b600081519050919050565b6000602082019050919050565b600082825260208201905092915050565b600082825260208201905092915050565b600082825260208201905092915050565b6000611e3b82611ef8565b9150611e4683611ef8565b9250827fffffffffffffffffffffffffffffffffffffffffffffffffffffffffffffffff03821115611e7b57611e7a611f76565b5b828201905092915050565b6000611e9182611ef8565b9150611e9c83611ef8565b925082821015611eaf57611eae611f76565b5b828203905092915050565b6000611ec582611ed8565b9050919050565b60008115159050919050565b600073ffffffffffffffffffffffffffffffffffffffff82169050919050565b6000819050919050565b82818337600083830152505050565b60005b83811015611f2f578082015181840152602081019050611f14565b83811115611f3e576000848401525b50505050565b60006002820490506001821680611f5c57607f821691505b60208210811415611f7057611f6f611fa5565b5b50919050565b7f4e487b7100000000000000000000000000000000000000000000000000000000600052601160045260246000fd5b7f4e487b7100000000000000000000000000000000000000000000000000000000600052602260045260246000fd5b7f4e487b7100000000000000000000000000000000000000000000000000000000600052604160045260246000fd5b6000601f19601f8301169050919050565b61201d81611eba565b811461202857600080fd5b50565b61203481611ef8565b811461203f57600080fd5b5056fea26469706673582212200878d96a5f07c504678113a60e3977a9d2cfc7b7103dfb59538e589688dd127664736f6c63430008000033",
  "immutableReferences": {},
  "source": "// SPDX-License-Identifier: MIT\npragma solidity >=0.8.0 <0.9.0;\n//pragma experimental ABIEncoderV2; // Two level dynamic arrays support\n\nimport \"@openzeppelin/contracts/access/Ownable.sol\";\nimport \"./Prizable.sol\";\n\ncontract Todos is Ownable, Prizable{\n  /*\n   * Constant variables\n   */\n  \n  // Punishment period in seconds\n  uint constant PUNISHMENT_TIME = 30 days;\n\n  /*\n   * State variables\n   */\n\n  struct Task {\n    string description;\n    uint createdAt;\n    uint value;\n    uint dueDate;\n    bool completed;\n    bool cleared;\n  }\n\n  // Tasks\n  mapping (address => Task[]) public tasks;\n\n  /* \n   * Events\n   */\n\n  // Task added event\n  event LogAdd (address userAddress, uint taskID); // TODO\n\n  /* \n   * Modifiers\n   */\n\n  modifier validDueDate (uint _date) {\n    require(_date > block.timestamp);\n    _;\n  }\n\n  // If task has not any prize locked in it\n  modifier notPrized (uint _id) {\n    require(!hasPrize(_id));\n    _;\n  }\n\n  modifier completed (uint _id) {\n    require(getTask(_id).completed);\n    _;\n  }\n\n  modifier incomplete (uint _id) {\n    require(!getTask(_id).completed);\n    _;\n  }\n\n  modifier dueIsSet (uint _id) {\n    require(getTask(_id).dueDate != 0);\n    _;\n  }\n\n\n\n  /* \n   * Functions\n   */\n\n  // Add task\n  function add(string memory _description, uint _dueDate) public {\n    Task memory task = Task({\n      description: _description,\n      createdAt: block.timestamp,\n      value: 0,\n      dueDate: _dueDate,\n      completed: false,\n      cleared: true\n    });\n    tasks[msg.sender].push(task);\n  }\n\n\n  // Update task\n  function update(uint _id, string memory _description, uint _dueDate)\n  public notPrized(_id) {\n    Task memory task = tasks[msg.sender][_id];\n    task.description = _description;\n    task.dueDate = _dueDate;\n    replace(_id, task);\n  }\n\n  // Remove task\n  function remove(uint _id) public notPrized(_id) {\n    require(_id < tasks[msg.sender].length);\n\n    tasks[msg.sender][_id] = tasks[msg.sender][tasks[msg.sender].length - 1];\n    tasks[msg.sender].pop();\n  }\n  \n\n  // Set complete\n  function setComplete(uint _id) public incomplete(_id) {\n    Task memory task = getTask(_id);\n    if (!hasPrize(_id) || !isExpired(_id)) {\n      task.completed = true;\n      replace(_id, task);\n    }\n    if (hasPrize(_id) && !task.cleared) {\n      if (!isPunishing(_id)) {\n        task.cleared = true;\n        task.completed = true;\n        replace(_id, task);\n        addPrize(msg.sender, task.value);\n      }\n    }\n  }\n\n  // Set incomplete\n  function setIncomplete(uint _id) public completed(_id) notPrized(_id) {\n    Task memory task = getTask(_id);\n    task.completed = false;\n    replace(_id, task);\n  }\n\n  // Has prize locked in it\n  function hasPrize(uint _id) internal view returns (bool) {\n    Task memory task = getTask(_id);\n    if (task.value == 0)\n      return false;\n    return !task.cleared;\n  }\n\n  // Set prize\n  function setPrize(uint _id) public payable dueIsSet(_id) {\n    Task memory task = getTask(_id);\n    require(task.value == 0);\n    require(!isExpired(_id));\n    require(task.cleared);\n\n    task.value = msg.value;\n    task.cleared = false;\n\n    replace(_id, task);\n  }\n\n  // Is in punishment period\n  function isPunishing(uint _id) public view returns (bool) {\n    if (!hasPrize(_id)) {\n      return false;\n    }\n    if (!!isExpired(_id)) {\n      return false;\n    }\n    Task memory task = getTask(_id);\n    if (block.timestamp > task.dueDate + PUNISHMENT_TIME) {\n      return false;\n    }\n    return true;\n  }\n\n  // Is task overdue\n  function isExpired(uint _id) internal view returns (bool) {\n    Task memory task = getTask(_id);\n    if (task.dueDate == 0) {\n      return false;\n    }\n    return (task.dueDate < block.timestamp);\n  }\n\n  // Get current user tasks\n  function getTasks() public view returns(Task[] memory) {\n    return tasks[msg.sender];\n  }\n\n  // Get task\n  function getTask(uint _id) public view returns(Task memory) {\n    return tasks[msg.sender][_id];\n  }\n\n\n  // Replace task\n  function replace(uint _id, Task memory _task) internal {\n    tasks[msg.sender][_id] = _task;\n  }\n\n}\n",
  "sourcePath": "/home/ubuntu/todo-list-dapp/contracts/Todos.sol",
  "compiler": {
    "name": "solc",
    "version": "0.8.0+commit.c7dfd78e.Emscripten.clang"
  },
  "schemaVersion": "3.4.3",
  "updatedAt": "2021-09-11T14:21:05.211Z",
  "devdoc": {
    "kind": "dev",
    "methods": {
      "owner()": {
        "details": "Returns the address of the current owner."
      },
      "renounceOwnership()": {
        "details": "Leaves the contract without owner. It will not be possible to call `onlyOwner` functions anymore. Can only be called by the current owner. NOTE: Renouncing ownership will leave the contract without an owner, thereby removing any functionality that is only available to the owner."
      },
      "transferOwnership(address)": {
        "details": "Transfers ownership of the contract to a new account (`newOwner`). Can only be called by the current owner."
      }
    },
    "version": 1
  },
  "userdoc": {
    "kind": "user",
    "methods": {},
    "version": 1
  }
}