{
  "contractName": "Todos",
  "abi": [
    {
      "anonymous": false,
      "inputs": [
        {
          "indexed": false,
          "internalType": "address",
          "name": "userAddress",
          "type": "address"
        },
        {
          "indexed": false,
          "internalType": "uint256",
          "name": "taskID",
          "type": "uint256"
        }
      ],
      "name": "LogAdd",
      "type": "event"
    },
    {
      "anonymous": false,
      "inputs": [
        {
          "indexed": true,
          "internalType": "address",
          "name": "previousOwner",
          "type": "address"
        },
        {
          "indexed": true,
          "internalType": "address",
          "name": "newOwner",
          "type": "address"
        }
      ],
      "name": "OwnershipTransferred",
      "type": "event"
    },
    {
      "inputs": [
        {
          "internalType": "address",
          "name": "",
          "type": "address"
        }
      ],
      "name": "credits",
      "outputs": [
        {
          "internalType": "uint256",
          "name": "",
          "type": "uint256"
        }
      ],
      "stateMutability": "view",
      "type": "function"
    },
    {
      "inputs": [],
      "name": "owner",
      "outputs": [
        {
          "internalType": "address",
          "name": "",
          "type": "address"
        }
      ],
      "stateMutability": "view",
      "type": "function"
    },
    {
      "inputs": [
        {
          "internalType": "address",
          "name": "",
          "type": "address"
        }
      ],
      "name": "prizes",
      "outputs": [
        {
          "internalType": "uint256",
          "name": "",
          "type": "uint256"
        }
      ],
      "stateMutability": "view",
      "type": "function"
    },
    {
      "inputs": [],
      "name": "renounceOwnership",
      "outputs": [],
      "stateMutability": "nonpayable",
      "type": "function"
    },
    {
      "inputs": [
        {
          "internalType": "address",
          "name": "",
          "type": "address"
        },
        {
          "internalType": "uint256",
          "name": "",
          "type": "uint256"
        }
      ],
      "name": "tasks",
      "outputs": [
        {
          "internalType": "string",
          "name": "description",
          "type": "string"
        },
        {
          "internalType": "uint256",
          "name": "createdAt",
          "type": "uint256"
        },
        {
          "internalType": "uint256",
          "name": "value",
          "type": "uint256"
        },
        {
          "internalType": "uint256",
          "name": "dueDate",
          "type": "uint256"
        },
        {
          "internalType": "bool",
          "name": "completed",
          "type": "bool"
        },
        {
          "internalType": "bool",
          "name": "cleared",
          "type": "bool"
        }
      ],
      "stateMutability": "view",
      "type": "function"
    },
    {
      "inputs": [
        {
          "internalType": "address",
          "name": "newOwner",
          "type": "address"
        }
      ],
      "name": "transferOwnership",
      "outputs": [],
      "stateMutability": "nonpayable",
      "type": "function"
    },
    {
      "inputs": [
        {
          "internalType": "string",
          "name": "_description",
          "type": "string"
        },
        {
          "internalType": "uint256",
          "name": "_dueDate",
          "type": "uint256"
        }
      ],
      "name": "add",
      "outputs": [],
      "stateMutability": "nonpayable",
      "type": "function"
    },
    {
      "inputs": [
        {
          "internalType": "uint256",
          "name": "_taskID",
          "type": "uint256"
        },
        {
          "internalType": "string",
          "name": "_description",
          "type": "string"
        },
        {
          "internalType": "uint256",
          "name": "_dueDate",
          "type": "uint256"
        }
      ],
      "name": "update",
      "outputs": [],
      "stateMutability": "nonpayable",
      "type": "function"
    },
    {
      "inputs": [
        {
          "internalType": "uint256",
          "name": "_id",
          "type": "uint256"
        }
      ],
      "name": "setComplete",
      "outputs": [],
      "stateMutability": "nonpayable",
      "type": "function"
    },
    {
      "inputs": [
        {
          "internalType": "uint256",
          "name": "_id",
          "type": "uint256"
        }
      ],
      "name": "setIncomplete",
      "outputs": [],
      "stateMutability": "nonpayable",
      "type": "function"
    },
    {
      "inputs": [],
      "name": "getTasks",
      "outputs": [
        {
          "components": [
            {
              "internalType": "string",
              "name": "description",
              "type": "string"
            },
            {
              "internalType": "uint256",
              "name": "createdAt",
              "type": "uint256"
            },
            {
              "internalType": "uint256",
              "name": "value",
              "type": "uint256"
            },
            {
              "internalType": "uint256",
              "name": "dueDate",
              "type": "uint256"
            },
            {
              "internalType": "bool",
              "name": "completed",
              "type": "bool"
            },
            {
              "internalType": "bool",
              "name": "cleared",
              "type": "bool"
            }
          ],
          "internalType": "struct Todos.Task[]",
          "name": "",
          "type": "tuple[]"
        }
      ],
      "stateMutability": "view",
      "type": "function"
    },
    {
      "inputs": [
        {
          "internalType": "uint256",
          "name": "_id",
          "type": "uint256"
        }
      ],
      "name": "getTask",
      "outputs": [
        {
          "components": [
            {
              "internalType": "string",
              "name": "description",
              "type": "string"
            },
            {
              "internalType": "uint256",
              "name": "createdAt",
              "type": "uint256"
            },
            {
              "internalType": "uint256",
              "name": "value",
              "type": "uint256"
            },
            {
              "internalType": "uint256",
              "name": "dueDate",
              "type": "uint256"
            },
            {
              "internalType": "bool",
              "name": "completed",
              "type": "bool"
            },
            {
              "internalType": "bool",
              "name": "cleared",
              "type": "bool"
            }
          ],
          "internalType": "struct Todos.Task",
          "name": "",
          "type": "tuple"
        }
      ],
      "stateMutability": "view",
      "type": "function"
    }
  ],
  "bytecode": "0x608060405234801561001057600080fd5b5061002d61002261003260201b60201c565b61003a60201b60201c565b6100fe565b600033905090565b60008060009054906101000a900473ffffffffffffffffffffffffffffffffffffffff169050816000806101000a81548173ffffffffffffffffffffffffffffffffffffffff021916908373ffffffffffffffffffffffffffffffffffffffff1602179055508173ffffffffffffffffffffffffffffffffffffffff168173ffffffffffffffffffffffffffffffffffffffff167f8be0079c531659141344cd1fd0a4f28419497f9722a3daafe3b4186f6b6457e060405160405180910390a35050565b61170f8061010d6000396000f3fe608060405234801561001057600080fd5b50600436106100b45760003560e01c80638da5cb5b116100715780638da5cb5b1461017e578063ad841e071461019c578063b35d11bf146101b8578063e7a9d406146101e8578063f2fde38b14610204578063fe5ff46814610220576100b4565b806304a87e38146100b95780631d65e77e146100d757806336555b85146101075780637149d2e414610123578063715018a61461015857806389e8491f14610162575b600080fd5b6100c1610250565b6040516100ce91906113b2565b60405180910390f35b6100f160048036038101906100ec9190611009565b6103d2565b6040516100fe919061147c565b60405180910390f35b610121600480360381019061011c9190610fb5565b610557565b005b61013d60048036038101906101389190610f79565b61067a565b60405161014f969594939291906113d4565b60405180910390f35b610160610775565b005b61017c60048036038101906101779190611009565b6107fd565b005b610186610863565b6040516101939190611397565b60405180910390f35b6101b660048036038101906101b19190611032565b61088c565b005b6101d260048036038101906101cd9190610f50565b610a3e565b6040516101df919061149e565b60405180910390f35b61020260048036038101906101fd9190611009565b610a56565b005b61021e60048036038101906102199190610f50565b610aaf565b005b61023a60048036038101906102359190610f50565b610ba7565b604051610247919061149e565b60405180910390f35b6060600160003373ffffffffffffffffffffffffffffffffffffffff1673ffffffffffffffffffffffffffffffffffffffff168152602001908152602001600020805480602002602001604051908101604052809291908181526020016000905b828210156103c957838290600052602060002090600502016040518060c00160405290816000820180546102e49061160a565b80601f01602080910402602001604051908101604052809291908181526020018280546103109061160a565b801561035d5780601f106103325761010080835404028352916020019161035d565b820191906000526020600020905b81548152906001019060200180831161034057829003601f168201915b505050505081526020016001820154815260200160028201548152602001600382015481526020016004820160009054906101000a900460ff161515151581526020016004820160019054906101000a900460ff161515151581525050815260200190600101906102b1565b50505050905090565b6103da610de1565b600160003373ffffffffffffffffffffffffffffffffffffffff1673ffffffffffffffffffffffffffffffffffffffff1681526020019081526020016000208281548110610451577f4e487b7100000000000000000000000000000000000000000000000000000000600052603260045260246000fd5b90600052602060002090600502016040518060c001604052908160008201805461047a9061160a565b80601f01602080910402602001604051908101604052809291908181526020018280546104a69061160a565b80156104f35780601f106104c8576101008083540402835291602001916104f3565b820191906000526020600020905b8154815290600101906020018083116104d657829003601f168201915b505050505081526020016001820154815260200160028201548152602001600382015481526020016004820160009054906101000a900460ff161515151581526020016004820160019054906101000a900460ff1615151515815250509050919050565b60006040518060c0016040528084815260200142815260200160008152602001838152602001600015158152602001600115158152509050600160003373ffffffffffffffffffffffffffffffffffffffff1673ffffffffffffffffffffffffffffffffffffffff1681526020019081526020016000208190806001815401808255809150506001900390600052602060002090600502016000909190919091506000820151816000019080519060200190610614929190610e1b565b5060208201518160010155604082015181600201556060820151816003015560808201518160040160006101000a81548160ff02191690831515021790555060a08201518160040160016101000a81548160ff0219169083151502179055505050505050565b6001602052816000526040600020818154811061069657600080fd5b9060005260206000209060050201600091509150508060000180546106ba9061160a565b80601f01602080910402602001604051908101604052809291908181526020018280546106e69061160a565b80156107335780601f1061070857610100808354040283529160200191610733565b820191906000526020600020905b81548152906001019060200180831161071657829003601f168201915b5050505050908060010154908060020154908060030154908060040160009054906101000a900460ff16908060040160019054906101000a900460ff16905086565b61077d610bbf565b73ffffffffffffffffffffffffffffffffffffffff1661079b610863565b73ffffffffffffffffffffffffffffffffffffffff16146107f1576040517f08c379a00000000000000000000000000000000000000000000000000000000081526004016107e89061145c565b60405180910390fd5b6107fb6000610bc7565b565b80610807816103d2565b608001511561081557600080fd5b6000610820836103d2565b905061082b83610c8b565b158061083d575061083b83610ca4565b155b1561085e57600181608001901515908115158152505061085d8382610cd9565b5b505050565b60008060009054906101000a900473ffffffffffffffffffffffffffffffffffffffff16905090565b8261089681610c8b565b156108a057600080fd5b6000600160003373ffffffffffffffffffffffffffffffffffffffff1673ffffffffffffffffffffffffffffffffffffffff1681526020019081526020016000208581548110610919577f4e487b7100000000000000000000000000000000000000000000000000000000600052603260045260246000fd5b90600052602060002090600502016040518060c00160405290816000820180546109429061160a565b80601f016020809104026020016040519081016040528092919081815260200182805461096e9061160a565b80156109bb5780601f10610990576101008083540402835291602001916109bb565b820191906000526020600020905b81548152906001019060200180831161099e57829003601f168201915b505050505081526020016001820154815260200160028201548152602001600382015481526020016004820160009054906101000a900460ff161515151581526020016004820160019054906101000a900460ff161515151581525050905083816000018190525082816060018181525050610a378582610cd9565b5050505050565b60036020528060005260406000206000915090505481565b80610a60816103d2565b60800151610a6d57600080fd5b81610a7781610c8b565b15610a8157600080fd5b6000610a8c846103d2565b90506000816080019015159081151581525050610aa98482610cd9565b50505050565b610ab7610bbf565b73ffffffffffffffffffffffffffffffffffffffff16610ad5610863565b73ffffffffffffffffffffffffffffffffffffffff1614610b2b576040517f08c379a0000000000000000000000000000000000000000000000000000000008152600401610b229061145c565b60405180910390fd5b600073ffffffffffffffffffffffffffffffffffffffff168173ffffffffffffffffffffffffffffffffffffffff161415610b9b576040517f08c379a0000000000000000000000000000000000000000000000000000000008152600401610b929061143c565b60405180910390fd5b610ba481610bc7565b50565b60026020528060005260406000206000915090505481565b600033905090565b60008060009054906101000a900473ffffffffffffffffffffffffffffffffffffffff169050816000806101000a81548173ffffffffffffffffffffffffffffffffffffffff021916908373ffffffffffffffffffffffffffffffffffffffff1602179055508173ffffffffffffffffffffffffffffffffffffffff168173ffffffffffffffffffffffffffffffffffffffff167f8be0079c531659141344cd1fd0a4f28419497f9722a3daafe3b4186f6b6457e060405160405180910390a35050565b600080610c97836103d2565b6040015114159050919050565b600080610cb0836103d2565b9050600081606001511415610cc9576000915050610cd4565b428160600151109150505b919050565b80600160003373ffffffffffffffffffffffffffffffffffffffff1673ffffffffffffffffffffffffffffffffffffffff1681526020019081526020016000208381548110610d51577f4e487b7100000000000000000000000000000000000000000000000000000000600052603260045260246000fd5b90600052602060002090600502016000820151816000019080519060200190610d7b929190610e1b565b5060208201518160010155604082015181600201556060820151816003015560808201518160040160006101000a81548160ff02191690831515021790555060a08201518160040160016101000a81548160ff0219169083151502179055509050505050565b6040518060c00160405280606081526020016000815260200160008152602001600081526020016000151581526020016000151581525090565b828054610e279061160a565b90600052602060002090601f016020900481019282610e495760008555610e90565b82601f10610e6257805160ff1916838001178555610e90565b82800160010185558215610e90579182015b82811115610e8f578251825591602001919060010190610e74565b5b509050610e9d9190610ea1565b5090565b5b80821115610eba576000816000905550600101610ea2565b5090565b6000610ed1610ecc846114ea565b6114b9565b905082815260208101848484011115610ee957600080fd5b610ef48482856115c8565b509392505050565b600081359050610f0b816116ab565b92915050565b600082601f830112610f2257600080fd5b8135610f32848260208601610ebe565b91505092915050565b600081359050610f4a816116c2565b92915050565b600060208284031215610f6257600080fd5b6000610f7084828501610efc565b91505092915050565b60008060408385031215610f8c57600080fd5b6000610f9a85828601610efc565b9250506020610fab85828601610f3b565b9150509250929050565b60008060408385031215610fc857600080fd5b600083013567ffffffffffffffff811115610fe257600080fd5b610fee85828601610f11565b9250506020610fff85828601610f3b565b9150509250929050565b60006020828403121561101b57600080fd5b600061102984828501610f3b565b91505092915050565b60008060006060848603121561104757600080fd5b600061105586828701610f3b565b935050602084013567ffffffffffffffff81111561107257600080fd5b61107e86828701610f11565b925050604061108f86828701610f3b565b9150509250925092565b60006110a58383611267565b905092915050565b6110b681611580565b82525050565b60006110c78261152a565b6110d1818561154d565b9350836020820285016110e38561151a565b8060005b8581101561111f57848403895281516111008582611099565b945061110b83611540565b925060208a019950506001810190506110e7565b50829750879550505050505092915050565b61113a81611592565b82525050565b61114981611592565b82525050565b600061115a82611535565b611164818561155e565b93506111748185602086016115d7565b61117d8161169a565b840191505092915050565b600061119382611535565b61119d818561156f565b93506111ad8185602086016115d7565b6111b68161169a565b840191505092915050565b60006111ce60268361156f565b91507f4f776e61626c653a206e6577206f776e657220697320746865207a65726f206160008301527f64647265737300000000000000000000000000000000000000000000000000006020830152604082019050919050565b600061123460208361156f565b91507f4f776e61626c653a2063616c6c6572206973206e6f7420746865206f776e65726000830152602082019050919050565b600060c0830160008301518482036000860152611284828261114f565b91505060208301516112996020860182611379565b5060408301516112ac6040860182611379565b5060608301516112bf6060860182611379565b5060808301516112d26080860182611131565b5060a08301516112e560a0860182611131565b508091505092915050565b600060c083016000830151848203600086015261130d828261114f565b91505060208301516113226020860182611379565b5060408301516113356040860182611379565b5060608301516113486060860182611379565b50608083015161135b6080860182611131565b5060a083015161136e60a0860182611131565b508091505092915050565b611382816115be565b82525050565b611391816115be565b82525050565b60006020820190506113ac60008301846110ad565b92915050565b600060208201905081810360008301526113cc81846110bc565b905092915050565b600060c08201905081810360008301526113ee8189611188565b90506113fd6020830188611388565b61140a6040830187611388565b6114176060830186611388565b6114246080830185611140565b61143160a0830184611140565b979650505050505050565b60006020820190508181036000830152611455816111c1565b9050919050565b6000602082019050818103600083015261147581611227565b9050919050565b6000602082019050818103600083015261149681846112f0565b905092915050565b60006020820190506114b36000830184611388565b92915050565b6000604051905081810181811067ffffffffffffffff821117156114e0576114df61166b565b5b8060405250919050565b600067ffffffffffffffff8211156115055761150461166b565b5b601f19601f8301169050602081019050919050565b6000819050602082019050919050565b600081519050919050565b600081519050919050565b6000602082019050919050565b600082825260208201905092915050565b600082825260208201905092915050565b600082825260208201905092915050565b600061158b8261159e565b9050919050565b60008115159050919050565b600073ffffffffffffffffffffffffffffffffffffffff82169050919050565b6000819050919050565b82818337600083830152505050565b60005b838110156115f55780820151818401526020810190506115da565b83811115611604576000848401525b50505050565b6000600282049050600182168061162257607f821691505b602082108114156116365761163561163c565b5b50919050565b7f4e487b7100000000000000000000000000000000000000000000000000000000600052602260045260246000fd5b7f4e487b7100000000000000000000000000000000000000000000000000000000600052604160045260246000fd5b6000601f19601f8301169050919050565b6116b481611580565b81146116bf57600080fd5b50565b6116cb816115be565b81146116d657600080fd5b5056fea2646970667358221220ef3d255a1e7f64b4c100c2acd4d26cd8275923771055a7e088b535c7cf013c1164736f6c63430008000033",
  "immutableReferences": {},
  "source": "// SPDX-License-Identifier: MIT\npragma solidity >=0.8.0 <0.9.0;\n//pragma experimental ABIEncoderV2; // Two level dynamic arrays support\n\nimport \"@openzeppelin/contracts/access/Ownable.sol\";\n\ncontract Todos is Ownable{\n  /*\n   * Constant variables\n   */\n  \n  // Punishment period in seconds\n  uint constant PUNISHMENT_TIME = 30 days;\n\n  /*\n   * State variables\n   */\n\n  struct Task {\n    string description;\n    uint createdAt;\n    uint value;\n    uint dueDate;\n    bool completed;\n    bool cleared;\n  }\n\n  // Tasks\n  mapping (address => Task[]) public tasks;\n\n  // Credits\n  mapping (address => uint) public credits;\n\n  // Prizes\n  mapping (address => uint) public prizes;\n\n  /* \n   * Events\n   */\n\n  // Task added event\n  event LogAdd (address userAddress, uint taskID); // TODO\n\n  /* \n   * Modifiers\n   */\n\n  modifier validDueDate (uint _date) {\n    require(_date > block.timestamp);\n    _;\n  }\n\n  // If task has not any prize locked in it\n  modifier notPrized (uint _id) {\n    require(!hasPrize(_id));\n    _;\n  }\n\n  modifier completed (uint _id) {\n    require(getTask(_id).completed);\n    _;\n  }\n\n  modifier incompleted (uint _id) {\n    require(!getTask(_id).completed);\n    _;\n  }\n\n\n\n  /* \n   * Functions\n   */\n\n  // Add task\n  function add(string memory _description, uint _dueDate) public {\n    Task memory task = Task({\n      description: _description,\n      createdAt: block.timestamp,\n      value: 0,\n      dueDate: _dueDate,\n      completed: false,\n      cleared: true\n    });\n    tasks[msg.sender].push(task);\n  }\n\n\n  // Update task\n  function update(uint _taskID, string memory _description, uint _dueDate)\n  public notPrized(_taskID) {\n    Task memory task = tasks[msg.sender][_taskID];\n    task.description = _description;\n    task.dueDate = _dueDate;\n    replace(_taskID, task);\n  }\n  \n\n  // Set complete\n  function setComplete(uint _id) public incompleted(_id) {\n    Task memory task = getTask(_id);\n    if (!hasPrize(_id) || !isExpired(_id)) {\n      task.completed = true;\n      replace(_id, task);\n    }\n  }\n\n  // Set incomplete\n  function setIncomplete(uint _id) public completed(_id) notPrized(_id) {\n    Task memory task = getTask(_id);\n    task.completed = false;\n    replace(_id, task);\n  }\n\n  // Is task locked: Has no price locked in it\n  function hasPrize(uint _id) internal view returns (bool) {\n    return !(getTask(_id).value == 0);\n  }\n\n  // Is task overdue\n  function isExpired(uint _id) internal view returns (bool) {\n    Task memory task = getTask(_id);\n    if (task.dueDate == 0) {\n      return false;\n    }\n    return (task.dueDate < block.timestamp);\n  }\n\n  // Get current user tasks\n  function getTasks() public view returns(Task[] memory) {\n    return tasks[msg.sender];\n  }\n\n  // Get task\n  function getTask(uint _id) public view returns(Task memory) {\n    return tasks[msg.sender][_id];\n  }\n\n\n  // Replace task\n  function replace(uint _id, Task memory _task) internal {\n    tasks[msg.sender][_id] = _task;\n  }\n\n}\n",
  "sourcePath": "/home/ubuntu/todo-list-dapp/contracts/Todos.sol",
  "compiler": {
    "name": "solc",
    "version": "0.8.0+commit.c7dfd78e.Emscripten.clang"
  },
  "schemaVersion": "3.4.3",
  "updatedAt": "2021-09-11T11:37:58.137Z",
  "devdoc": {
    "kind": "dev",
    "methods": {
      "owner()": {
        "details": "Returns the address of the current owner."
      },
      "renounceOwnership()": {
        "details": "Leaves the contract without owner. It will not be possible to call `onlyOwner` functions anymore. Can only be called by the current owner. NOTE: Renouncing ownership will leave the contract without an owner, thereby removing any functionality that is only available to the owner."
      },
      "transferOwnership(address)": {
        "details": "Transfers ownership of the contract to a new account (`newOwner`). Can only be called by the current owner."
      }
    },
    "version": 1
  },
  "userdoc": {
    "kind": "user",
    "methods": {},
    "version": 1
  }
}